{
  "address": "0x34C228B9d634576d5D6d7C1F8B951f421362380c",
  "abi": [
    {
      "inputs": [
        {
          "internalType": "address",
          "name": "oracleAddress",
          "type": "address"
        }
      ],
      "name": "createDataAgent",
      "outputs": [
        {
          "internalType": "address",
          "name": "",
          "type": "address"
        }
      ],
      "stateMutability": "nonpayable",
      "type": "function"
    }
  ],
  "transactionHash": "0xe4614f109f8d5c169eee8e816da88f400b3333a0b70efc85f3e6134e7bad39ab",
  "args": [],
  "numDeployments": 1,
  "solcInputHash": "51cbc314716c7ac38a7f214dc300970e",
  "bytecode": "0x608060405234801561001057600080fd5b50612bbe806100206000396000f3fe608060405234801561001057600080fd5b506004361061002b5760003560e01c8063dfd276ca14610030575b600080fd5b61004361003e36600461010c565b61005f565b6040516001600160a01b03909116815260200160405180910390f35b6000808260405161006f906100ff565b6001600160a01b039091168152602001604051809103906000f08015801561009b573d6000803e3d6000fd5b5060405163e43252d760e01b81523360048201529091506001600160a01b0382169063e43252d790602401600060405180830381600087803b1580156100e057600080fd5b505af11580156100f4573d6000803e3d6000fd5b509295945050505050565b612a4c8061013d83390190565b60006020828403121561011e57600080fd5b81356001600160a01b038116811461013557600080fd5b939250505056fe60806040523480156200001157600080fd5b5060405162002a4c38038062002a4c83398101604081905262000034916200029b565b60028054336001600160a01b031991821617909155600380549091166001600160a01b03831617905560006001819055604080516101e081018252601a6101a082019081527f636c617564652d332d352d736f6e6e65742d32303234303632300000000000006101c083015281526015602080830182905283518082018552858152838501526103e86060840152608083019190915282518084018452600f81526e7b2274797065223a2274657874227d60881b8183015260a083015260c082018490528251808201845293845260e0820193909352600a61010082015260656101208201528151610460810190925261042a80835284938493610140840192909162002622908301398152602001604051806040016040528060048152602001636175746f60e01b8152508152602001604051806020016040528060008152508152506004600082015181600001908162000191919062000372565b50602082015160018201805460ff191660ff90921691909117905560408201516002820190620001c2908262000372565b506060820151600382018054608085015160ff166401000000000264ffffffffff1990911663ffffffff9093169290921791909117905560a082015160048201906200020f908262000372565b5060c0820151600582015560e0820151600682019062000230908262000372565b506101008201516007820155610120820151600882015561014082015160098201906200025e908262000372565b50610160820151600a82019062000276908262000372565b50610180820151600b8201906200028e908262000372565b509050505050506200043e565b600060208284031215620002ae57600080fd5b81516001600160a01b0381168114620002c657600080fd5b9392505050565b634e487b7160e01b600052604160045260246000fd5b600181811c90821680620002f857607f821691505b6020821081036200031957634e487b7160e01b600052602260045260246000fd5b50919050565b601f8211156200036d57600081815260208120601f850160051c81016020861015620003485750805b601f850160051c820191505b81811015620003695782815560010162000354565b5050505b505050565b81516001600160401b038111156200038e576200038e620002cd565b620003a6816200039f8454620002e3565b846200031f565b602080601f831160018114620003de5760008415620003c55750858301515b600019600386901b1c1916600185901b17855562000369565b600085815260208120601f198616915b828110156200040f57888601518255948401946001909101908401620003ee565b50858210156200042e5787850151600019600388901b60f8161c191681555b5050505050600190811b01905550565b6121d4806200044e6000396000f3fe608060405234801561001057600080fd5b50600436106101165760003560e01c80638ab1d681116100a2578063e43252d711610071578063e43252d7146102c6578063e5fcc7bf146102d9578063eb17429a146102ec578063ed6e39e51461030c578063f997cc251461031f57600080fd5b80638ab1d6811461026d578063941fac371461028057806395e6fad714610293578063a89ae4ba146102b357600080fd5b80634c69c00f116100e95780634c69c00f146101b5578063632cc98b146101c857806363c770d81461021a5780636d028027146102455780637397454d1461025a57600080fd5b806306c933d81461011b5780632843d135146101535780632d08d82a146101685780633af32abf14610189575b600080fd5b61013e6101293660046116fb565b60126020526000908152604090205460ff1681565b60405190151581526020015b60405180910390f35b61016661016136600461180c565b610327565b005b61017b6101763660046118fd565b610678565b60405190815260200161014a565b61013e6101973660046116fb565b6001600160a01b031660009081526012602052604090205460ff1690565b6101666101c33660046116fb565b6107d0565b6101fb6101d636600461193a565b600060208190529081526040902080546002909101546001600160a01b039091169082565b604080516001600160a01b03909316835260208301919091520161014a565b61022d61022836600461193a565b610844565b6040516001600160a01b03909116815260200161014a565b61024d61086e565b60405161014a9190611953565b6101666102683660046119a0565b6108d0565b61016661027b3660046116fb565b610b25565b61016661028e366004611a03565b610c9b565b6102a66102a136600461193a565b610fcf565b60405161014a9190611a98565b60035461022d906001600160a01b031681565b6101666102d43660046116fb565b611069565b6101666102e7366004611adc565b611119565b6102ff6102fa36600461193a565b6113e6565b60405161014a9190611c80565b6102ff61031a36600461193a565b611541565b6102a6611694565b6003546001600160a01b0316331461035a5760405162461bcd60e51b815260040161035190611ce2565b60405180910390fd5b6000838152602081905260409020600281015461044d906001808401916103819190611d26565b8154811061039157610391611d39565b906000526020600020906002020160000180546103ad90611d4f565b80601f01602080910402602001604051908101604052809291908181526020018280546103d990611d4f565b80156104265780601f106103fb57610100808354040283529160200191610426565b820191906000526020600020905b81548152906001019060200180831161040957829003601f168201915b5050505050604051806040016040528060048152602001633ab9b2b960e11b8152506116a1565b6104995760405162461bcd60e51b815260206004820152601c60248201527f4e6f206d65737361676520746f2061646420636f6e7465787420746f000000006044820152606401610351565b600081600101600183600201546104b09190611d26565b815481106104c0576104c0611d39565b9060005260206000209060020201905060008160010180546104e190611d4f565b80601f016020809104026020016040519081016040528092919081815260200182805461050d90611d4f565b801561055a5780601f1061052f5761010080835404028352916020019161055a565b820191906000526020600020905b81548152906001019060200180831161053d57829003601f168201915b5050505050905060008551111561058e578060405160200161057c9190611d89565b60405160208183030381529060405290505b60005b85518110156105ea57818682815181106105ad576105ad611d39565b60200260200101516040516020016105c6929190611dc1565b604051602081830303815290604052915080806105e290611dfc565b915050610591565b50600182016105f98282611e60565b5060035460405163cbbfd0b760e01b81526001600160a01b039091169063cbbfd0b79061062c9089906004908101611f9d565b6020604051808303816000875af115801561064b573d6000803e3d6000fd5b505050506040513d601f19601f8201168201806040525081019061066f91906120ae565b50505050505050565b6001805460009081526020818152604080832080546001600160a01b0319163317815581516080810183526004928101928352633ab9b2b960e11b60608201529182528183018690528085018054958601815584529183208151939492939192839260029091029091019081906106ef9082611e60565b50602082015160018201906107049082611e60565b5050600160028401819055805491508190600061072083611dfc565b909155505060035460405163cbbfd0b760e01b81526001600160a01b039091169063cbbfd0b7906107579084906004908101611f9d565b6020604051808303816000875af1158015610776573d6000803e3d6000fd5b505050506040513d601f19601f8201168201806040525081019061079a91906120ae565b50604051819033907fd1de2c4de50323207202f3df0bb1dec1a42e233aec245f25519d674c10bd72ca90600090a3949350505050565b6002546001600160a01b031633146107fa5760405162461bcd60e51b8152600401610351906120c7565b600380546001600160a01b0319166001600160a01b0383169081179091556040517f107a9fafffb7ac890f780879e423760c9ffea8dcee8045681f40f542aede2cb890600090a250565b6013818154811061085457600080fd5b6000918252602090912001546001600160a01b0316905081565b606060138054806020026020016040519081016040528092919081815260200182805480156108c657602002820191906000526020600020905b81546001600160a01b031681526001909101906020018083116108a8575b5050505050905090565b6003546001600160a01b031633146108fa5760405162461bcd60e51b815260040161035190611ce2565b600083815260116020526040902080546109ab919061091890611d4f565b80601f016020809104026020016040519081016040528092919081815260200182805461094490611d4f565b80156109915780601f1061096657610100808354040283529160200191610991565b820191906000526020600020905b81548152906001019060200180831161097457829003601f168201915b5050505050604051806020016040528060008152506116a1565b156109f85760405162461bcd60e51b815260206004820152601960248201527f4e6f2066756e6374696f6e20746f20726573706f6e6420746f000000000000006044820152606401610351565b6000838152602081815260408083208151928301909152918152610a1d9083906116a1565b15610b1f57604080516080810182526004918101918252633ab9b2b960e11b6060820152908152602080820185905260018084018054918201815560009081529190912082518392600202909101908190610a789082611e60565b5060208201516001820190610a8d9082611e60565b505050600282018054906000610aa283611dfc565b909155505060035460405163cbbfd0b760e01b81526001600160a01b039091169063cbbfd0b790610ad99088906004908101611f9d565b6020604051808303816000875af1158015610af8573d6000803e3d6000fd5b505050506040513d601f19601f82011682018060405250810190610b1c91906120ae565b50505b50505050565b6002546001600160a01b03163314610b4f5760405162461bcd60e51b8152600401610351906120c7565b6001600160a01b03811660009081526012602052604090205460ff1615610c98576001600160a01b0381166000908152601260205260408120805460ff191690555b601354811015610c9657816001600160a01b031660138281548110610bb857610bb8611d39565b6000918252602090912001546001600160a01b031603610c845760138054610be290600190611d26565b81548110610bf257610bf2611d39565b600091825260209091200154601380546001600160a01b039092169183908110610c1e57610c1e611d39565b9060005260206000200160006101000a8154816001600160a01b0302191690836001600160a01b031602179055506013805480610c5d57610c5d6120f4565b600082815260209020810160001990810180546001600160a01b0319169055019055610c96565b80610c8e81611dfc565b915050610b91565b505b50565b60008181526020819052604090206002810154610d9390600180840191610cc29190611d26565b81548110610cd257610cd2611d39565b90600052602060002090600202016000018054610cee90611d4f565b80601f0160208091040260200160405190810160405280929190818152602001828054610d1a90611d4f565b8015610d675780601f10610d3c57610100808354040283529160200191610d67565b820191906000526020600020905b815481529060010190602001808311610d4a57829003601f168201915b505050505060405180604001604052806009815260200168185cdcda5cdd185b9d60ba1b8152506116a1565b610ddf5760405162461bcd60e51b815260206004820152601f60248201527f4e6f20726573706f6e736520746f2070726576696f7573206d657373616765006044820152606401610351565b80546001600160a01b03163314610e385760405162461bcd60e51b815260206004820181905260248201527f4f6e6c792063686174206f776e65722063616e20616464206d657373616765736044820152606401610351565b604080516080810182526004918101918252633ab9b2b960e11b6060820152908152602080820185905260018084018054918201815560009081529190912082518392600202909101908190610e8e9082611e60565b5060208201516001820190610ea39082611e60565b505050600282018054906000610eb883611dfc565b9190505550600060108054610ecc90611d4f565b90501115610f53576003805460405163a252a95160e01b81526001600160a01b039091169163a252a95191610f0a9187916010918a9160040161210a565b6020604051808303816000875af1158015610f29573d6000803e3d6000fd5b505050506040513d601f19601f82011682018060405250810190610f4d91906120ae565b50610b1f565b60035460405163cbbfd0b760e01b81526001600160a01b039091169063cbbfd0b790610f859086906004908101611f9d565b6020604051808303816000875af1158015610fa4573d6000803e3d6000fd5b505050506040513d601f19601f82011682018060405250810190610fc891906120ae565b5050505050565b60116020526000908152604090208054610fe890611d4f565b80601f016020809104026020016040519081016040528092919081815260200182805461101490611d4f565b80156110615780601f1061103657610100808354040283529160200191611061565b820191906000526020600020905b81548152906001019060200180831161104457829003601f168201915b505050505081565b6002546001600160a01b031633146110935760405162461bcd60e51b8152600401610351906120c7565b6001600160a01b03811660009081526012602052604090205460ff16610c98576001600160a01b03166000818152601260205260408120805460ff191660019081179091556013805491820181559091527f66de8ffda797e3de9c05e8fc57b3bf0ec28a930d40b0d285d93c06501cf6a0900180546001600160a01b0319169091179055565b6003546001600160a01b031633146111435760405162461bcd60e51b815260040161035190611ce2565b6000838152602081905260409020600281015461116a906001808401916103819190611d26565b6111b65760405162461bcd60e51b815260206004820152601860248201527f4e6f206d65737361676520746f20726573706f6e6420746f00000000000000006044820152606401610351565b6111cf82604051806020016040528060008152506116a1565b6112635760408051608081018252600991810191825268185cdcda5cdd185b9d60ba1b606082015290815260208082018490526001808401805491820181556000908152919091208251839260020290910190819061122e9082611e60565b50602082015160018201906112439082611e60565b50505060028201805490600061125883611dfc565b919050555050610b1f565b6112808360400151604051806020016040528060008152506116a1565b61132a576040808401516000868152601160205291909120906112a39082611e60565b5060035460408085015160608601519151634b04236b60e01b81526001600160a01b0390931692634b04236b926112e192899290919060040161214d565b6020604051808303816000875af1158015611300573d6000803e3d6000fd5b505050506040513d601f19601f8201168201806040525081019061132491906120ae565b50611353565b60408051602080820183526000808352878152601190915291909120906113519082611e60565b505b60408051608081018252600991810191825268185cdcda5cdd185b9d60ba1b606082015290815260208481015181830152600180840180549182018155600090815291909120825183926002029091019081906113b09082611e60565b50602082015160018201906113c59082611e60565b5050506002820180549060006113da83611dfc565b91905055505050505050565b600081815260208190526040812060028101546060929067ffffffffffffffff8111156114155761141561172b565b60405190808252806020026020018201604052801561144857816020015b60608152602001906001900390816114335790505b50905060005b82600201548110156115395782600101818154811061146f5761146f611d39565b9060005260206000209060020201600101805461148b90611d4f565b80601f01602080910402602001604051908101604052809291908181526020018280546114b790611d4f565b80156115045780601f106114d957610100808354040283529160200191611504565b820191906000526020600020905b8154815290600101906020018083116114e757829003601f168201915b505050505082828151811061151b5761151b611d39565b6020026020010181905250808061153190611dfc565b91505061144e565b509392505050565b600081815260208190526040812060028101546060929067ffffffffffffffff8111156115705761157061172b565b6040519080825280602002602001820160405280156115a357816020015b606081526020019060019003908161158e5790505b50905060005b8260020154811015611539578260010181815481106115ca576115ca611d39565b906000526020600020906002020160000180546115e690611d4f565b80601f016020809104026020016040519081016040528092919081815260200182805461161290611d4f565b801561165f5780601f106116345761010080835404028352916020019161165f565b820191906000526020600020905b81548152906001019060200180831161164257829003601f168201915b505050505082828151811061167657611676611d39565b6020026020010181905250808061168c90611dfc565b9150506115a9565b60108054610fe890611d4f565b6000816040516020016116b49190612182565b60405160208183030381529060405280519060200120836040516020016116db9190612182565b604051602081830303815290604052805190602001201490505b92915050565b60006020828403121561170d57600080fd5b81356001600160a01b038116811461172457600080fd5b9392505050565b634e487b7160e01b600052604160045260246000fd5b604051610160810167ffffffffffffffff811182821017156117655761176561172b565b60405290565b604051601f8201601f1916810167ffffffffffffffff811182821017156117945761179461172b565b604052919050565b600082601f8301126117ad57600080fd5b813567ffffffffffffffff8111156117c7576117c761172b565b6117da601f8201601f191660200161176b565b8181528460208386010111156117ef57600080fd5b816020850160208301376000918101602001919091529392505050565b60008060006060848603121561182157600080fd5b8335925060208085013567ffffffffffffffff8082111561184157600080fd5b818701915087601f83011261185557600080fd5b8135818111156118675761186761172b565b8060051b61187685820161176b565b918252838101850191858101908b84111561189057600080fd5b86860192505b838310156118cc578235858111156118ae5760008081fd5b6118bc8d89838a010161179c565b8352509186019190860190611896565b975050505060408701359250808311156118e557600080fd5b50506118f38682870161179c565b9150509250925092565b60006020828403121561190f57600080fd5b813567ffffffffffffffff81111561192657600080fd5b6119328482850161179c565b949350505050565b60006020828403121561194c57600080fd5b5035919050565b6020808252825182820181905260009190848201906040850190845b818110156119945783516001600160a01b03168352928401929184019160010161196f565b50909695505050505050565b6000806000606084860312156119b557600080fd5b83359250602084013567ffffffffffffffff808211156119d457600080fd5b6119e08783880161179c565b935060408601359150808211156119f657600080fd5b506118f38682870161179c565b60008060408385031215611a1657600080fd5b823567ffffffffffffffff811115611a2d57600080fd5b611a398582860161179c565b95602094909401359450505050565b60005b83811015611a63578181015183820152602001611a4b565b50506000910152565b60008151808452611a84816020860160208601611a48565b601f01601f19169290920160200192915050565b6020815260006117246020830184611a6c565b803567ffffffffffffffff81168114611ac357600080fd5b919050565b803563ffffffff81168114611ac357600080fd5b600080600060608486031215611af157600080fd5b83359250602084013567ffffffffffffffff80821115611b1057600080fd5b908501906101608288031215611b2557600080fd5b611b2d611741565b823582811115611b3c57600080fd5b611b488982860161179c565b825250602083013582811115611b5d57600080fd5b611b698982860161179c565b602083015250604083013582811115611b8157600080fd5b611b8d8982860161179c565b604083015250606083013582811115611ba557600080fd5b611bb18982860161179c565b606083015250611bc360808401611aab565b608082015260a083013582811115611bda57600080fd5b611be68982860161179c565b60a08301525060c083013582811115611bfe57600080fd5b611c0a8982860161179c565b60c08301525060e083013582811115611c2257600080fd5b611c2e8982860161179c565b60e083015250610100611c42818501611ac8565b90820152610120611c54848201611ac8565b90820152610140611c66848201611ac8565b90820152935060408601359150808211156119f657600080fd5b6000602080830181845280855180835260408601915060408160051b870101925083870160005b82811015611cd557603f19888603018452611cc3858351611a6c565b94509285019290850190600101611ca7565b5092979650505050505050565b60208082526014908201527343616c6c6572206973206e6f74206f7261636c6560601b604082015260600190565b634e487b7160e01b600052601160045260246000fd5b818103818111156116f5576116f5611d10565b634e487b7160e01b600052603260045260246000fd5b600181811c90821680611d6357607f821691505b602082108103611d8357634e487b7160e01b600052602260045260246000fd5b50919050565b60008251611d9b818460208701611a48565b7305052932b632bb30b73a1031b7b73a32bc3a1d0560611b920191825250601401919050565b60008351611dd3818460208801611a48565b835190830190611de7818360208801611a48565b600560f91b9101908152600101949350505050565b600060018201611e0e57611e0e611d10565b5060010190565b601f821115611e5b57600081815260208120601f850160051c81016020861015611e3c5750805b601f850160051c820191505b81811015610b1c57828155600101611e48565b505050565b815167ffffffffffffffff811115611e7a57611e7a61172b565b611e8e81611e888454611d4f565b84611e15565b602080601f831160018114611ec35760008415611eab5750858301515b600019600386901b1c1916600185901b178555610b1c565b600085815260208120601f198616915b82811015611ef257888601518255948401946001909101908401611ed3565b5085821015611f105787850151600019600388901b60f8161c191681555b5050505050600190811b01905550565b60008154611f2d81611d4f565b808552602060018381168015611f4a5760018114611f6457611f92565b60ff1985168884015283151560051b880183019550611f92565b866000528260002060005b85811015611f8a5781548a8201860152908301908401611f6f565b890184019650505b505050505092915050565b8281526040602082015260006101a0806040840152611fc06101e0840185611f20565b600185015460000b6060850152603f1984820381016080860152611fe78260028801611f20565b600387015463ffffffff811660a088015260201c60000b60c0870152858103820160e0870152915061201c8260048801611f20565b9150600586015461010086015280858303016101208601526120418260068801611f20565b91506007860154610140860152600886015461016086015280858303016101808601526120718260098801611f20565b915080858303018386015261208982600a8801611f20565b925080858403016101c086015250506120a581600b8601611f20565b95945050505050565b6000602082840312156120c057600080fd5b5051919050565b60208082526013908201527221b0b63632b91034b9903737ba1037bbb732b960691b604082015260600190565b634e487b7160e01b600052603160045260246000fd5b8481526080602082015260006121236080830186611f20565b82810360408401526121358186611a6c565b91505063ffffffff8316606083015295945050505050565b8381526060602082015260006121666060830185611a6c565b82810360408401526121788185611a6c565b9695505050505050565b60008251612194818460208701611a48565b919091019291505056fea2646970667358221220f616bd310bfd90956a97551662ac1c05fc3d62ebe76b0c10e0fc99155a883dad64736f6c634300081100335b7b2274797065223a2266756e6374696f6e222c2266756e6374696f6e223a7b226e616d65223a227765625f736561726368222c226465736372697074696f6e223a225365617263682074686520696e7465726e6574222c22706172616d6574657273223a7b2274797065223a226f626a656374222c2270726f70657274696573223a7b227175657279223a7b2274797065223a22737472696e67222c226465736372697074696f6e223a22536561726368207175657279227d7d2c227265717569726564223a5b227175657279225d7d7d7d2c7b2274797065223a2266756e6374696f6e222c2266756e6374696f6e223a7b226e616d65223a22636f64655f696e746572707265746572222c226465736372697074696f6e223a224576616c756174657320707974686f6e20636f646520696e20612073616e64626f7820656e7669726f6e6d656e742e2054686520656e7669726f6e6d656e7420726573657473206f6e20657665727920657865637574696f6e2e20596f75206d7573742073656e64207468652077686f6c65207363726970742065766572792074696d6520616e64207072696e7420796f7572206f7574707574732e205363726970742073686f756c64206265207075726520707974686f6e20636f646520746861742063616e206265206576616c75617465642e2049742073686f756c6420626520696e20707974686f6e20666f726d6174204e4f54206d61726b646f776e2e2054686520636f64652073686f756c64204e4f54206265207772617070656420696e206261636b7469636b732e20416c6c20707974686f6e207061636b6167657320696e636c7564696e672072657175657374732c206d6174706c6f746c69622c2073636970792c206e756d70792c2070616e6461732c206574632061726520617661696c61626c652e204f75747075742063616e206f6e6c7920626520726561642066726f6d207374646f75742c20616e6420737464696e2e20446f206e6f7420757365207468696e6773206c696b6520706c6f742e73686f7728292061732069742077696c6c206e6f7420776f726b2e207072696e74282920616e79206f757470757420616e6420726573756c747320736f20796f752063616e206361707475726520746865206f75747075742e222c22706172616d6574657273223a7b2274797065223a226f626a656374222c2270726f70657274696573223a7b22636f6465223a7b2274797065223a22737472696e67222c226465736372697074696f6e223a22546865207075726520707974686f6e2073637269707420746f206265206576616c75617465642e2054686520636f6e74656e74732077696c6c20626520696e206d61696e2e70792e2049742073686f756c64206e6f7420626520696e206d61726b646f776e20666f726d61742e227d7d2c227265717569726564223a5b22636f6465225d7d7d7d5da26469706673582212203e8bd7f31b482870aefef43ab8080654353c1c64cc74f5f1c958de43b97294ae64736f6c63430008110033",
  "devdoc": {
    "kind": "dev",
    "methods": {},
    "version": 1
  },
  "userdoc": {
    "kind": "user",
    "methods": {},
    "version": 1
  },
  "storageLayout": {
    "storage": [],
    "types": null
  }
}