{
  "address": "0x72645ff40fBB78f369789973F38f0686f407B3FA",
  "abi": [
    {
      "inputs": [
        {
          "internalType": "address",
          "name": "initialOracleAddress",
          "type": "address"
        },
        {
          "internalType": "string",
          "name": "systemPrompt",
          "type": "string"
        },
        {
          "internalType": "address",
          "name": "techAgentFactoryAddress",
          "type": "address"
        },
        {
          "internalType": "address",
          "name": "socialAgentFactoryAddress",
          "type": "address"
        },
        {
          "internalType": "address",
          "name": "dataAgentFactoryAddress",
          "type": "address"
        }
      ],
      "stateMutability": "nonpayable",
      "type": "constructor"
    },
    {
      "anonymous": false,
      "inputs": [
        {
          "indexed": true,
          "internalType": "address",
          "name": "owner",
          "type": "address"
        },
        {
          "indexed": true,
          "internalType": "uint256",
          "name": "runId",
          "type": "uint256"
        }
      ],
      "name": "AgentRunCreated",
      "type": "event"
    },
    {
      "anonymous": false,
      "inputs": [
        {
          "indexed": true,
          "internalType": "address",
          "name": "newOracleAddress",
          "type": "address"
        }
      ],
      "name": "OracleAddressUpdated",
      "type": "event"
    },
    {
      "inputs": [
        {
          "internalType": "string",
          "name": "message",
          "type": "string"
        },
        {
          "internalType": "uint256",
          "name": "runId",
          "type": "uint256"
        }
      ],
      "name": "addMessage",
      "outputs": [],
      "stateMutability": "nonpayable",
      "type": "function"
    },
    {
      "inputs": [],
      "name": "agentRunCount",
      "outputs": [
        {
          "internalType": "uint256",
          "name": "",
          "type": "uint256"
        }
      ],
      "stateMutability": "view",
      "type": "function"
    },
    {
      "inputs": [
        {
          "internalType": "uint256",
          "name": "",
          "type": "uint256"
        }
      ],
      "name": "agentRuns",
      "outputs": [
        {
          "internalType": "address",
          "name": "owner",
          "type": "address"
        },
        {
          "internalType": "address",
          "name": "creator",
          "type": "address"
        },
        {
          "internalType": "address",
          "name": "target",
          "type": "address"
        },
        {
          "internalType": "string",
          "name": "targetFirstName",
          "type": "string"
        },
        {
          "internalType": "string",
          "name": "targetFriend",
          "type": "string"
        },
        {
          "internalType": "string",
          "name": "situation",
          "type": "string"
        },
        {
          "internalType": "string",
          "name": "publicInfo",
          "type": "string"
        },
        {
          "internalType": "string",
          "name": "privateInfo",
          "type": "string"
        },
        {
          "internalType": "string",
          "name": "groupTitle",
          "type": "string"
        },
        {
          "internalType": "string",
          "name": "groupImage",
          "type": "string"
        },
        {
          "internalType": "string",
          "name": "groupId",
          "type": "string"
        },
        {
          "internalType": "uint256",
          "name": "responsesCount",
          "type": "uint256"
        },
        {
          "internalType": "uint8",
          "name": "max_iterations",
          "type": "uint8"
        },
        {
          "internalType": "bool",
          "name": "is_finished",
          "type": "bool"
        }
      ],
      "stateMutability": "view",
      "type": "function"
    },
    {
      "inputs": [],
      "name": "dataAgent",
      "outputs": [
        {
          "internalType": "contract IOpenAiChatGpt",
          "name": "",
          "type": "address"
        }
      ],
      "stateMutability": "view",
      "type": "function"
    },
    {
      "inputs": [
        {
          "internalType": "address",
          "name": "_creator",
          "type": "address"
        }
      ],
      "name": "getAgentRuns",
      "outputs": [
        {
          "components": [
            {
              "internalType": "address",
              "name": "owner",
              "type": "address"
            },
            {
              "internalType": "address",
              "name": "creator",
              "type": "address"
            },
            {
              "internalType": "address",
              "name": "target",
              "type": "address"
            },
            {
              "internalType": "string",
              "name": "targetFirstName",
              "type": "string"
            },
            {
              "internalType": "string",
              "name": "targetFriend",
              "type": "string"
            },
            {
              "internalType": "string",
              "name": "situation",
              "type": "string"
            },
            {
              "internalType": "string",
              "name": "publicInfo",
              "type": "string"
            },
            {
              "internalType": "string",
              "name": "privateInfo",
              "type": "string"
            },
            {
              "internalType": "string",
              "name": "groupTitle",
              "type": "string"
            },
            {
              "internalType": "string",
              "name": "groupImage",
              "type": "string"
            },
            {
              "internalType": "string",
              "name": "groupId",
              "type": "string"
            },
            {
              "internalType": "uint256",
              "name": "responsesCount",
              "type": "uint256"
            },
            {
              "internalType": "uint8",
              "name": "max_iterations",
              "type": "uint8"
            },
            {
              "internalType": "bool",
              "name": "is_finished",
              "type": "bool"
            }
          ],
          "internalType": "struct LeadAgent.AgentRunInfo[]",
          "name": "",
          "type": "tuple[]"
        }
      ],
      "stateMutability": "view",
      "type": "function"
    },
    {
      "inputs": [
        {
          "internalType": "uint256",
          "name": "agentId",
          "type": "uint256"
        }
      ],
      "name": "getMessageHistoryContents",
      "outputs": [
        {
          "internalType": "string[]",
          "name": "",
          "type": "string[]"
        }
      ],
      "stateMutability": "view",
      "type": "function"
    },
    {
      "inputs": [
        {
          "internalType": "uint256",
          "name": "agentId",
          "type": "uint256"
        }
      ],
      "name": "getMessageHistoryRoles",
      "outputs": [
        {
          "internalType": "string[]",
          "name": "",
          "type": "string[]"
        }
      ],
      "stateMutability": "view",
      "type": "function"
    },
    {
      "inputs": [
        {
          "internalType": "uint256",
          "name": "runId",
          "type": "uint256"
        }
      ],
      "name": "isRunFinished",
      "outputs": [
        {
          "internalType": "bool",
          "name": "",
          "type": "bool"
        }
      ],
      "stateMutability": "view",
      "type": "function"
    },
    {
      "inputs": [
        {
          "internalType": "uint256",
          "name": "runId",
          "type": "uint256"
        },
        {
          "internalType": "string",
          "name": "response",
          "type": "string"
        },
        {
          "internalType": "string",
          "name": "errorMessage",
          "type": "string"
        }
      ],
      "name": "onOracleFunctionResponse",
      "outputs": [],
      "stateMutability": "nonpayable",
      "type": "function"
    },
    {
      "inputs": [
        {
          "internalType": "uint256",
          "name": "runId",
          "type": "uint256"
        },
        {
          "components": [
            {
              "internalType": "string",
              "name": "id",
              "type": "string"
            },
            {
              "internalType": "string",
              "name": "content",
              "type": "string"
            },
            {
              "internalType": "string",
              "name": "functionName",
              "type": "string"
            },
            {
              "internalType": "string",
              "name": "functionArguments",
              "type": "string"
            },
            {
              "internalType": "uint64",
              "name": "created",
              "type": "uint64"
            },
            {
              "internalType": "string",
              "name": "model",
              "type": "string"
            },
            {
              "internalType": "string",
              "name": "systemFingerprint",
              "type": "string"
            },
            {
              "internalType": "string",
              "name": "object",
              "type": "string"
            },
            {
              "internalType": "uint32",
              "name": "completionTokens",
              "type": "uint32"
            },
            {
              "internalType": "uint32",
              "name": "promptTokens",
              "type": "uint32"
            },
            {
              "internalType": "uint32",
              "name": "totalTokens",
              "type": "uint32"
            }
          ],
          "internalType": "struct IOracle.OpenAiResponse",
          "name": "response",
          "type": "tuple"
        },
        {
          "internalType": "string",
          "name": "errorMessage",
          "type": "string"
        }
      ],
      "name": "onOracleOpenAiLlmResponse",
      "outputs": [],
      "stateMutability": "nonpayable",
      "type": "function"
    },
    {
      "inputs": [],
      "name": "oracleAddress",
      "outputs": [
        {
          "internalType": "address",
          "name": "",
          "type": "address"
        }
      ],
      "stateMutability": "view",
      "type": "function"
    },
    {
      "inputs": [],
      "name": "prompt",
      "outputs": [
        {
          "internalType": "string",
          "name": "",
          "type": "string"
        }
      ],
      "stateMutability": "view",
      "type": "function"
    },
    {
      "inputs": [
        {
          "internalType": "string",
          "name": "query",
          "type": "string"
        },
        {
          "internalType": "uint8",
          "name": "max_iterations",
          "type": "uint8"
        },
        {
          "internalType": "string",
          "name": "techAgentPrompt",
          "type": "string"
        },
        {
          "internalType": "string",
          "name": "socialAgentPrompt",
          "type": "string"
        },
        {
          "internalType": "string",
          "name": "dataAgentPrompt",
          "type": "string"
        },
        {
          "internalType": "address",
          "name": "creator",
          "type": "address"
        },
        {
          "internalType": "address",
          "name": "target",
          "type": "address"
        },
        {
          "internalType": "string",
          "name": "targetFirstName",
          "type": "string"
        },
        {
          "internalType": "string",
          "name": "targetFriend",
          "type": "string"
        },
        {
          "internalType": "string",
          "name": "situation",
          "type": "string"
        },
        {
          "internalType": "string",
          "name": "publicInfo",
          "type": "string"
        },
        {
          "internalType": "string",
          "name": "privateInfo",
          "type": "string"
        },
        {
          "internalType": "string",
          "name": "groupTitle",
          "type": "string"
        },
        {
          "internalType": "string",
          "name": "groupImage",
          "type": "string"
        },
        {
          "internalType": "string",
          "name": "groupId",
          "type": "string"
        }
      ],
      "name": "runAgent",
      "outputs": [
        {
          "internalType": "uint256",
          "name": "",
          "type": "uint256"
        }
      ],
      "stateMutability": "nonpayable",
      "type": "function"
    },
    {
      "inputs": [
        {
          "internalType": "address",
          "name": "newOracleAddress",
          "type": "address"
        }
      ],
      "name": "setOracleAddress",
      "outputs": [],
      "stateMutability": "nonpayable",
      "type": "function"
    },
    {
      "inputs": [],
      "name": "socialAgent",
      "outputs": [
        {
          "internalType": "contract IOpenAiChatGpt",
          "name": "",
          "type": "address"
        }
      ],
      "stateMutability": "view",
      "type": "function"
    },
    {
      "inputs": [],
      "name": "techAgent",
      "outputs": [
        {
          "internalType": "contract IOpenAiChatGpt",
          "name": "",
          "type": "address"
        }
      ],
      "stateMutability": "view",
      "type": "function"
    }
  ],
  "transactionHash": "0xf23543baaedd858d3b689d931a0949169c98cbd36e00c20627d7fd8e37c4c708",
  "args": [
    "0x0352b37E5680E324E804B5A6e1AddF0A064E201D",
    "You are a helpful assistant",
    "0xD438b4245Bff99d112f637c155011F8066C9Efa9",
    "0xaF7B6E3DCdE8BaD4643b88d6dCd953A72edD6e30",
    "0xE92B718dDB54aB6613e0dA0511fD3D756A0E3c2d"
  ],
  "numDeployments": 1,
  "solcInputHash": "f6705d2e95c6d09b103653be99aab3d3",
  "bytecode": "0x6080806040523462001265576200420a8038038091620000208285620012a2565b833981019060a08183031262001265576200003b81620012c6565b60208201519092906001600160401b0381116200126557820181601f8201121562001265578051906001600160401b03821162000a9057604051926200008c601f8401601f191660200185620012a2565b82845260208383010111620012655760005b8281106200124f575050602060009183010152620000bf60408301620012c6565b90620000dc6080620000d460608601620012c6565b9401620012c6565b600380546001600160a01b03199081163317909155600480549091166001600160a01b03909616959095179094558051906001600160401b03821162000a9057600054600181811c9116801562001244575b602082101462000a6f57601f8111620011f0575b50602090601f83116001146200117257918060009492602094869262001166575b50508160011b9185199060031b1c19161783555b6004805460405163e2079a8360e01b81526001600160a01b039182169281019290925290938492602492849291165af1908115620010c5576000916200111d575b50601180546001600160a01b0319166001600160a01b0392831617905560048054604051630323981f60e11b8152908316918101919091529160209183916024918391600091165af1908115620010c557600091620010d1575b50601280546001600160a01b0319166001600160a01b0392831617905560048054604051636fe93b6560e11b8152908316918101919091529160209183916024918391600091165af1908115620010c55760009162001080575b50601380546001600160a01b0319166001600160a01b03929092169190911790556040516101a081016001600160401b0381118282101762000a905780604052620002b7816200126a565b601381527f6770742d342d747572626f2d70726576696577000000000000000000000000006101c0830152815260156020820152604051620002f98162001286565b6000815260408201526103e86060820152601560808201526040516200031f816200126a565b600f81526e7b2274797065223a2274657874227d60881b602082015260a0820152600060c0820152604051620003558162001286565b6000815260e0820152600a61010082015260656101208201526040516001600160401b0361020082019081119082111762000a905761020081016040526101d381527f5b7b2274797065223a2266756e6374696f6e222c2266756e6374696f6e223a7b60208201527f226e616d65223a227765625f736561726368222c226465736372697074696f6e60408201527f223a225365617263682074686520696e7465726e6574222c22706172616d657460608201527f657273223a7b2274797065223a226f626a656374222c2270726f70657274696560808201527f73223a7b227175657279223a7b2274797065223a22737472696e67222c22646560a08201527f736372697074696f6e223a22536561726368207175657279227d7d2c2272657160c08201527f7569726564223a5b227175657279225d7d7d7d2c7b2274797065223a2266756e60e08201527f6374696f6e222c2266756e6374696f6e223a7b226e616d65223a22696d6167656101008201527f5f67656e65726174696f6e222c226465736372697074696f6e223a2247656e656101208201527f726174657320616e20696d616765207573696e672044616c6c652d32222c22706101408201527f6172616d6574657273223a7b2274797065223a226f626a656374222c2270726f6101608201527f70657274696573223a7b2270726f6d7074223a7b2274797065223a22737472696101808201527f6e67222c226465736372697074696f6e223a2244616c6c652d322070726f6d706101a08201527f7420746f2067656e657261746520616e20696d616765227d7d2c2272657175696101c08201527f726564223a5b2270726f6d7074225d7d7d7d5d000000000000000000000000006101e0820152610140820152604051620005ed816200126a565b60048152636175746f60e01b6020820152610160820152604051620006128162001286565b6000815261018082015280518051906001600160401b03821162000a905760055490600182811c9216801562001075575b602083101462000a6f5781601f8493116200101f575b50602090601f831160011462000f905760009262000f84575b50508160011b916000199060031b1c1916176005555b602081015160ff19600654169060ff1617600655604081015180519060018060401b03821162000a905760075490600182811c9216801562000f79575b602083101462000a6f5781601f84931162000f18575b50602090601f831160011462000e9a5760009262000e8e575b50508160011b916000199060031b1c1916176007555b63ffffffff60608201511660085490608083015160201b64ff00000000169164ffffffffff1916171760085560a081015180519060018060401b03821162000a905760095490600182811c9216801562000e83575b602083101462000a6f5781601f84931162000e22575b50602090601f831160011462000da45760009262000d98575b50508160011b916000199060031b1c1916176009555b60c0810151600a5560e08101518051906001600160401b03821162000a9057600b5490600182811c9216801562000d8d575b602083101462000a6f5781601f84931162000d1b575b50602090601f831160011462000c8c5760009262000c80575b50508160011b916000199060031b1c191617600b555b610100810151600c55610120810151600d5561014081015180519091906001600160401b03811162000a9057600e54600181811c9116801562000c75575b602082101462000a6f57601f811162000c0b575b50602092601f821160011462000ba0579281929360009262000b94575b50508160011b916000199060031b1c191617600e555b610160810151805191906001600160401b03831162000a9057600f54600181811c9116801562000b89575b602082101462000a6f57601f811162000b30575b50602090601f841160011462000ab25761018093916000918362000aa6575b50508160011b916000199060031b1c191617600f555b015180516001600160401b03811162000a9057601054600181811c9116801562000a85575b602082101462000a6f57601f811162000a05575b50602091601f82116001146200099b579181926000926200098f575b50508160011b916000199060031b1c1916176010555b604051612eae9081620012dc8239f35b01519050388062000969565b601f19821692601060005260206000209160005b858110620009ec57508360019510620009d2575b505050811b016010556200097f565b015160001960f88460031b161c19169055388080620009c3565b91926020600181928685015181550194019201620009af565b60106000527f1b6847dc741a1b0cd08d278845f9d819d87b734759afb55fe2de5cb82a9ae672601f830160051c8101916020841062000a64575b601f0160051c01905b81811062000a5757506200094d565b6000815560010162000a48565b909150819062000a3f565b634e487b7160e01b600052602260045260246000fd5b90607f169062000939565b634e487b7160e01b600052604160045260246000fd5b015190503880620008fe565b600f6000908152600080516020620041ea833981519152929190601f198616905b81811062000b17575091600193918661018097941062000afd575b505050811b01600f5562000914565b015160001960f88460031b161c1916905538808062000aee565b9293602060018192878601518155019501930162000ad3565b600f600052600080516020620041ea833981519152601f850160051c8101916020861062000b7e575b601f0160051c01905b81811062000b715750620008df565b6000815560010162000b62565b909150819062000b59565b90607f1690620008cb565b0151905038806200088a565b601f19821693600e60005260206000209160005b86811062000bf2575083600195961062000bd8575b505050811b01600e55620008a0565b015160001960f88460031b161c1916905538808062000bc9565b9192602060018192868501518155019401920162000bb4565b600e6000527fbb7b4a454dc3493923482f07822329ed19e8244eff582cc204f8554c3620c3fd601f830160051c8101916020841062000c6a575b601f0160051c01905b81811062000c5d57506200086d565b6000815560010162000c4e565b909150819062000c45565b90607f169062000859565b01519050388062000805565b600b600090815293507f0175b7a638427703f0dbe7bb9bbf987a2551717b34e79f33b5b1008d1fa01db991905b601f198416851062000cff576001945083601f1981161062000ce5575b505050811b01600b556200081b565b015160001960f88460031b161c1916905538808062000cd6565b8181015183556020948501946001909301929091019062000cb9565b600b6000529091507f0175b7a638427703f0dbe7bb9bbf987a2551717b34e79f33b5b1008d1fa01db9601f840160051c81016020851062000d85575b90849392915b601f830160051c8201811062000d75575050620007ec565b6000815585945060010162000d5d565b508062000d57565b91607f1691620007d6565b0151905038806200078e565b600960009081529350600080516020620041ca83398151915291905b601f198416851062000e06576001945083601f1981161062000dec575b505050811b01600955620007a4565b015160001960f88460031b161c1916905538808062000ddd565b8181015183556020948501946001909301929091019062000dc0565b6009600052909150600080516020620041ca833981519152601f840160051c81016020851062000e7b575b90849392915b601f830160051c8201811062000e6b57505062000775565b6000815585945060010162000e53565b508062000e4d565b91607f16916200075f565b015190503880620006f4565b600760009081529350600080516020620041aa83398151915291905b601f198416851062000efc576001945083601f1981161062000ee2575b505050811b016007556200070a565b015160001960f88460031b161c1916905538808062000ed3565b8181015183556020948501946001909301929091019062000eb6565b6007600052909150600080516020620041aa833981519152601f840160051c81016020851062000f71575b90849392915b601f830160051c8201811062000f61575050620006db565b6000815585945060010162000f49565b508062000f43565b91607f1691620006c5565b01519050388062000672565b6005600090815293507f036b6384b5eca791c62761152d0c79bb0604c104a5fb6f4eb0703f3154bb3db091905b601f198416851062001003576001945083601f1981161062000fe9575b505050811b0160055562000688565b015160001960f88460031b161c1916905538808062000fda565b8181015183556020948501946001909301929091019062000fbd565b90915060056000526020600020601f840160051c8101602085106200106d575b90849392915b601f830160051c820181106200105d57505062000659565b6000815585945060010162001045565b50806200103f565b91607f169162000643565b6020813d602011620010bc575b816200109c60209383620012a2565b81010312620010b857620010b19150620012c6565b386200026c565b5080fd5b3d91506200108d565b6040513d6000823e3d90fd5b906020823d60201162001114575b81620010ee60209383620012a2565b8101031262001111575060009162001108602092620012c6565b91509162000212565b80fd5b3d9150620010df565b906020823d6020116200115d575b816200113a60209383620012a2565b8101031262001111575060009162001154602092620012c6565b915091620001b8565b3d91506200112b565b01519050388062000163565b60008080526000805160206200418a8339815191529291905b601f1985168110620011d75750926000949260019260209583601f19811610620011be575b505050811b01835562000177565b0151861960f88460031b161c19169055388080620011b0565b919260206001819286850151815501940192016200118b565b600080526000805160206200418a833981519152601f840160051c8101602085106200123c575b601f830160051c820181106200122f57505062000142565b6000815560010162001217565b508062001217565b90607f16906200012e565b806020809284010151828287010152016200009e565b600080fd5b604081019081106001600160401b0382111762000a9057604052565b602081019081106001600160401b0382111762000a9057604052565b601f909101601f19168101906001600160401b0382119082101762000a9057604052565b51906001600160a01b0382168203620012655756fe61010080604052600436101561001457600080fd5b60003560e01c90816304495a3b14611db1575080630911674b146119155780632eab9c81146118de5780634c69c00f146118345780634cecd88e146116825780635923400b146116595780637397454d146115845780637c65d7111461154c578063941fac371461140b578063a89ae4ba146113e2578063b75f07e4146113b9578063c63b0295146111c7578063d080dd8914610249578063dade4cf91461022b578063eb17429a146101935763ed6e39e5146100d057600080fd5b3461018e5760208060031936011261018e576004359081600052600190818152600b906101038260406000200154612d25565b936000845b61011f575b6040518061011b88826123ca565b0390f35b81600052848352836040600020015481101561018957906101818261015f61016661015289979689604060002001612455565b5060405192838092612334565b0382611e98565b610170828a612d6f565b5261017b8189612d6f565b506128f6565b909192610108565b61010d565b600080fd5b3461018e5760208060031936011261018e576004358060005260018281809452600b906101c68260406000200154612d25565b936000955b6101de575b6040518061011b87826123ca565b8060005283825282604060002001548610156102265761021f868561016661020e82999a88604060002001612455565b5061015f6040518094819301612334565b95946101cb565b6101d0565b3461018e57600036600319011261018e576020600254604051908152f35b3461018e576101e036600319011261018e576004356001600160401b03811161018e5761027a903690600401611ed4565b60e05260243560ff8116810361018e576044356001600160401b03811161018e576102a9903690600401611ed4565b6064356001600160401b03811161018e576102c8903690600401611ed4565b916084356001600160401b03811161018e576102e8903690600401611ed4565b60a05260a4356001600160a01b038116810361018e5760c435906001600160a01b038216820361018e5760e4356001600160401b03811161018e57610331903690600401611ed4565b610104356001600160401b03811161018e57610351903690600401611ed4565b610124356001600160401b03811161018e57610371903690600401611ed4565b6001600160401b03610144351161018e576103923661014435600401611ed4565b906001600160401b03610164351161018e576103b43661016435600401611ed4565b926001600160401b03610184351161018e576103d63661018435600401611ed4565b946001600160401b036101a4351161018e576103f8366101a435600401611ed4565b966001600160401b036101c4351161018e5761041a366101c435600401611ed4565b986002548060805260005260016020526040600020918260c0526bffffffffffffffffffffffff60a01b903382855416178455600184019060018060a01b031682825416179055600283019160018060a01b0316908254161790558151906001600160401b038211610c4b576003610493910154611f2c565b601f811161117e575b50602091601f821160011461111057918192600092611105575b50508160011b916000199060031b1c191617600360c05101555b80516001600160401b038111610c4b576104ef600460c0510154611f2c565b601f81116110bc575b50602091601f821160011461104a5791819260009261103f575b50508160011b916000199060031b1c191617600460c05101555b80516001600160401b038111610c4b5761054b600560c0510154611f2c565b601f8111610ff6575b50602091601f8211600114610f8457918192600092610f79575b50508160011b916000199060031b1c191617600560c05101555b80516001600160401b038111610c4b576105a7600660c0510154611f2c565b601f8111610f30575b50602091601f8211600114610ebe57918192600092610eb3575b50508160011b916000199060031b1c191617600660c05101555b80516001600160401b038111610c4b57610603600760c0510154611f2c565b601f8111610e6a575b50602091601f8211600114610df857918192600092610ded575b50508160011b916000199060031b1c191617600760c05101555b80516001600160401b038111610c4b5761065f600860c0510154611f2c565b601f8111610da4575b50602091601f8211600114610d3257918192600092610d27575b50508160011b916000199060031b1c191617600860c05101555b80516001600160401b038111610c4b576106bb600960c0510154611f2c565b601f8111610cde575b50602091601f8211600114610c6c57918192600092610c61575b50508160011b916000199060031b1c191617600960c05101555b8051906001600160401b038211610c4b57610718600a60c0510154611f2c565b601f8111610c02575b50602090601f8311600114610b865792826107a893600096936020968892610b7b575b50508160011b9187199060031b1c191617600a60c05101555b60c05160ff600d82019287600c8554940155169061ffff191617905560018060a01b0360115416906040519485809481936316846c1560e11b83528760048401526024830190611e0e565b03925af18015610a5a57610b50575b5060206107ef60009260018060a01b0360125416906040519485809481936316846c1560e11b83528760048401526024830190611e0e565b03925af18015610a5a57610b25575b5060018060a01b0360135416602060405180926316846c1560e11b8252826004830152816000816108346024820160a051611e0e565b03925af18015610a5a57610afa575b506108b561084f61242c565b60405161085f8161015f81611f66565b602082015260405161087081611e62565b600681526573797374656d60d01b60208201528152610895600b60c051019182612487565b61089d61242c565b9060e05160208301526108ae6126e7565b8252612487565b600254600181018111610ae45760010160025560018060a01b036004541660405190633c38a5f560e01b82526080516004830152604060248301526101a0604483015281600060055461090781611f2c565b90816101e4850152600181169081600014610ac15750600114610a66575b5091816000816109df602096600654840b60648401526109cf6109bf61099d61098461095d60431995868982030160848a015261200a565b60085463ffffffff811660a48a01528d1c890b60c4890152858882030160e4890152612091565b600a546101048801528487820301610124880152612118565b600c54610144870152600d54610164870152838682030161018487015261219f565b82858203016101a4860152612226565b90838203016101c48401526122ad565b03925af18015610a5a57610a2f575b60c0515460405160805160209281906001600160a01b03167f9697c88a6be3b3ed5062f2dcbd719a10914832320686f14e24f7756210a6685e600080a38152f35b602090813d8311610a53575b610a458183611e98565b8101031261018e57806109ee565b503d610a3b565b6040513d6000823e3d90fd5b6005600090815291507f036b6384b5eca791c62761152d0c79bb0604c104a5fb6f4eb0703f3154bb3db05b818310610aa657505081016102040181610925565b80546102048488010152859350602090920191600101610a91565b60ff19166102048086019190915291151560051b84019091019150829050610925565b634e487b7160e01b600052601160045260246000fd5b602090813d8311610b1e575b610b108183611e98565b8101031261018e5780610843565b503d610b06565b602090813d8311610b49575b610b3b8183611e98565b8101031261018e57806107fe565b503d610b31565b602090813d8311610b74575b610b668183611e98565b8101031261018e57816107b7565b503d610b5c565b015190508880610744565b600a60c09392935101928360005260206000209160005b601f1985168110610bea575083602096936107a8969360019360009a97601f19811610610bd2575b505050811b01905561075d565b0151891960f88460031b161c19169055898080610bc5565b91926020600181928685015181550194019201610b9d565b600a60c051016000526020600020601f840160051c810160208510610c44575b601f830160051c82018110610c38575050610721565b60008155600101610c22565b5080610c22565b634e487b7160e01b600052604160045260246000fd5b0151905086806106de565b90600960c0510192836000526020600020906000935b601f1984168510610cc3576001945083601f19811610610caa575b505050811b0190556106f8565b015160001960f88460031b161c19169055878080610c9d565b81810151835560209485019460019093019290910190610c82565b600960c051016000526020600020601f830160051c810160208410610d20575b601f830160051c82018110610d145750506106c4565b60008155600101610cfe565b5080610cfe565b015190508780610682565b90600860c0510192836000526020600020906000935b601f1984168510610d89576001945083601f19811610610d70575b505050811b01905561069c565b015160001960f88460031b161c19169055888080610d63565b81810151835560209485019460019093019290910190610d48565b600860c051016000526020600020601f830160051c810160208410610de6575b601f830160051c82018110610dda575050610668565b60008155600101610dc4565b5080610dc4565b015190508880610626565b90600760c0510192836000526020600020906000935b601f1984168510610e4f576001945083601f19811610610e36575b505050811b019055610640565b015160001960f88460031b161c19169055898080610e29565b81810151835560209485019460019093019290910190610e0e565b600760c051016000526020600020601f830160051c810160208410610eac575b601f830160051c82018110610ea057505061060c565b60008155600101610e8a565b5080610e8a565b0151905089806105ca565b90600660c0510192836000526020600020906000935b601f1984168510610f15576001945083601f19811610610efc575b505050811b0190556105e4565b015160001960f88460031b161c191690558a8080610eef565b81810151835560209485019460019093019290910190610ed4565b600660c051016000526020600020601f830160051c810160208410610f72575b601f830160051c82018110610f665750506105b0565b60008155600101610f50565b5080610f50565b015190508a8061056e565b90600560c0510192836000526020600020906000935b601f1984168510610fdb576001945083601f19811610610fc2575b505050811b019055610588565b015160001960f88460031b161c191690558b8080610fb5565b81810151835560209485019460019093019290910190610f9a565b600560c051016000526020600020601f830160051c810160208410611038575b601f830160051c8201811061102c575050610554565b60008155600101611016565b5080611016565b015190508b80610512565b90600460c0510192836000526020600020906000935b601f19841685106110a1576001945083601f19811610611088575b505050811b01905561052c565b015160001960f88460031b161c191690558c808061107b565b81810151835560209485019460019093019290910190611060565b600460c051016000526020600020601f830160051c8101602084106110fe575b601f830160051c820181106110f25750506104f8565b600081556001016110dc565b50806110dc565b015190508c806104b6565b600360c0510192836000526020600020916000601f198516905b818110611166575090846001959493921061114d575b505050811b0190556104d0565b015160001960f88460031b161c191690558d8080611140565b9293602060018192878601518155019501930161112a565b600360c051016000526020600020601f830160051c8101602084106111c0575b601f830160051c820181106111b457505061049c565b6000815560010161119e565b508061119e565b3461018e57602036600319011261018e5760043560005260016020526040600020600160a01b6001900390818154169082600182015416926002820154166040518080600385019061121891612334565b036112239082611e98565b604051806112348160048701612334565b0361123f9082611e98565b604051806112508160058801612334565b0361125b9082611e98565b6040518061126c8160068901612334565b036112779082611e98565b60405190816112898160078a01612334565b036112949083611e98565b60405192836112a68160088b01612334565b036112b19085611e98565b60405194856112c38160098c01612334565b036112ce9087611e98565b60405196876112e081600a8d01612334565b036112eb9089611e98565b600c8a015499600d0154986040519c8d9c8d5260208d015260408c01526101c08060608d01528b0161131c91611e0e565b8a810360808c015261132d91611e0e565b89810360a08b015261133e91611e0e565b88810360c08a015261134f91611e0e565b87810360e089015261136091611e0e565b86810361010088015261137291611e0e565b85810361012087015261138491611e0e565b84810361014086015261139691611e0e565b9161016084015260ff811661018084015260081c60ff1615156101a08301520390f35b3461018e57600036600319011261018e576012546040516001600160a01b039091168152602090f35b3461018e57600036600319011261018e576004546040516001600160a01b039091168152602090f35b3461018e57604036600319011261018e576004356001600160401b03811161018e5761143b903690600401611ed4565b6024358060005260209160018352604060002061146260ff600d83015460081c1615612cd0565b80546001600160a01b0392908316330361150757928492600c6114d3936114a560009761148d61242c565b906114966126e7565b825288820152600b8301612487565b016114b081546128f6565b90556004541690604051948580948193633c38a5f560e01b835260048301612707565b03925af18015610a5a576114e357005b813d8311611500575b6114f68183611e98565b8101031261018e57005b503d6114ec565b60405162461bcd60e51b815260048101869052601f60248201527f4f6e6c792072756e206f776e65722063616e2061646420636f6d6d616e6473006044820152606490fd5b3461018e57600036600319011261018e5761011b6040516115708161015f81611f66565b604051918291602083526020830190611e0e565b3461018e57606036600319011261018e576004356001600160401b0360243581811161018e576115b8903690600401611ed4565b9060443581811161018e576115d1903690600401611ed4565b6004546001600160a01b0394906115eb908616331461288e565b806000526020946001865260406000209461161060ff600d88015460081c1615612cd0565b93604051958787019187831090831117610c4b576114a588966114d39661164260009a600c966040528b815282612d83565b15611651575b5061148d61242c565b90508a611648565b3461018e57600036600319011261018e576013546040516001600160a01b039091168152602090f35b3461018e5760031960603682011261018e576001600160401b039060243582811161018e576101608092823603011261018e5760405191820182811084821117610c4b57604052806004013583811161018e576116e59060043691840101611ed4565b8252602481013583811161018e576117039060043691840101611ed4565b6020830152604481013583811161018e576117249060043691840101611ed4565b6040830152606481013583811161018e576117459060043691840101611ed4565b60608301526084810135838116810361018e57608083015260a481013583811161018e576117799060043691840101611ed4565b60a083015260c481013583811161018e5761179a9060043691840101611ed4565b60c083015260e481013583811161018e576117f3916117c26101449260043691840101611ed4565b60e08501526117d46101048201611f1b565b6101008501526117e76101248201611f1b565b61012085015201611f1b565b61014082015260443591821161018e57611814611832923690600401611ed4565b9061182a60018060a01b0360045416331461288e565b600435612905565b005b3461018e57602036600319011261018e5761184d611dd5565b6003546001600160a01b039190821633036118a35716806bffffffffffffffffffffffff60a01b60045416176004557f107a9fafffb7ac890f780879e423760c9ffea8dcee8045681f40f542aede2cb8600080a2005b60405162461bcd60e51b815260206004820152601360248201527221b0b63632b91034b9903737ba1037bbb732b960691b6044820152606490fd5b3461018e57602036600319011261018e576004356000526001602052602060ff600d6040600020015460081c166040519015158152f35b3461018e57602036600319011261018e5761192e611dd5565b600280546001600160a01b039260009290841680159190821590855b858110611d67575061195b86612d0e565b956119696040519788611e98565b808752611978601f1991612d0e565b0160005b818110611cf057505060009360005b868110611ae557888860405190602082016020835281518091526040830190602060408260051b8601019301916000905b8282106119c95785850386f35b90919293602080600192603f198982030185528751908a82511681528a8383015116838201528a6040830151166040820152611ab1611a9d611a89611a75611a63611a50611a3d611a2a6060808b0151906101c080918c01528a0190611e0e565b6080808b0151908a8303908b0152611e0e565b60a0808a015190898303908a0152611e0e565b60c0808901519088830390890152611e0e565b60e087015186820360e0880152611e0e565b610100808701519086830390870152611e0e565b610120808601519085830390860152611e0e565b610140808501519084830390850152611e0e565b91610160808201519083015261018060ff8183015116908301526101a08091015115159101529601920192019092916119bc565b8184611cd5575b611aff575b611afa906128f6565b61198b565b94856000526001806020528980604060002054169160406000200154168a876040600020015416604060002060030160406000206004016040600020600501604060002060060160406000206007016040600020600801916040600020600901936040600020600a01956040600020600c015497600d998a6040600020015460ff169a6040600020015460081c60ff169b604051809e611b9e82611e33565b81526020015260408d0152604051611bb7818093612334565b03611bc29082611e98565b60608c0152604051611bd5818093612334565b03611be09082611e98565b60808b0152604051611bf3818093612334565b03611bfe9082611e98565b60a08a0152604051611c11818093612334565b03611c1c9082611e98565b60c0890152604051611c2f818093612334565b03611c3a9082611e98565b60e0880152604051611c4d818093612334565b03611c589082611e98565b610100870152604051611c6c818093612334565b03611c779082611e98565b610120860152604051611c8b818093612334565b03611c969082611e98565b61014085015261016084015261018083015215156101a0820152611cba828a612d6f565b52611cc58189612d6f565b50611ccf906128f6565b94611af1565b50806000528289600180602052604060002001541614611aec565b602090604051611cff81611e33565b6000815260008382015260006040820152606080808301528060808301528060a08301528060c08301528060e083015280610100830152806101208301526101408201526000610160820152600061018082015260006101a082015282828b0101520161197c565b8483611d96575b611d81575b611d7c906128f6565b61194a565b95611d8e611d7c916128f6565b969050611d73565b50806000528188600180602052604060002001541614611d6e565b3461018e57600036600319011261018e576011546001600160a01b03168152602090f35b600435906001600160a01b038216820361018e57565b60005b838110611dfe5750506000910152565b8181015183820152602001611dee565b90602091611e2781518092818552858086019101611deb565b601f01601f1916010190565b6101c081019081106001600160401b03821117610c4b57604052565b6001600160401b038111610c4b57604052565b604081019081106001600160401b03821117610c4b57604052565b602081019081106001600160401b03821117610c4b57604052565b90601f801991011681019081106001600160401b03821117610c4b57604052565b6001600160401b038111610c4b57601f01601f191660200190565b81601f8201121561018e57803590611eeb82611eb9565b92611ef96040519485611e98565b8284526020838301011161018e57816000926020809301838601378301015290565b359063ffffffff8216820361018e57565b90600182811c92168015611f5c575b6020831014611f4657565b634e487b7160e01b600052602260045260246000fd5b91607f1691611f3b565b9060009160005490611f7782611f2c565b80825291600190818116908115611fed5750600114611f9557505050565b91929350600080527f290decd9548b62a8d60345a988386fc84ba6bc95484008f6362f93160ef3e563916000925b848410611fd557505060209250010190565b80546020858501810191909152909301928101611fc3565b915050602093945060ff929192191683830152151560051b010190565b6007546000929161201a82611f2c565b80825291600190818116908115611fed575060011461203857505050565b9192935060076000527fa66cc928b5edb82af9bd49922954155ab7b0942694bea4ce44661d9a8736c688916000925b84841061207957505060209250010190565b80546020858501810191909152909301928101612067565b600954600092916120a182611f2c565b80825291600190818116908115611fed57506001146120bf57505050565b9192935060096000527f6e1540171b6c0c960b71a7020d9f60077f6af931a8bbf590da0223dacf75c7af916000925b84841061210057505060209250010190565b805460208585018101919091529093019281016120ee565b600b546000929161212882611f2c565b80825291600190818116908115611fed575060011461214657505050565b91929350600b6000527f0175b7a638427703f0dbe7bb9bbf987a2551717b34e79f33b5b1008d1fa01db9916000925b84841061218757505060209250010190565b80546020858501810191909152909301928101612175565b600e54600092916121af82611f2c565b80825291600190818116908115611fed57506001146121cd57505050565b91929350600e6000527fbb7b4a454dc3493923482f07822329ed19e8244eff582cc204f8554c3620c3fd916000925b84841061220e57505060209250010190565b805460208585018101919091529093019281016121fc565b600f546000929161223682611f2c565b80825291600190818116908115611fed575060011461225457505050565b91929350600f6000527f8d1108e10bcb7c27dddfc02ed9d693a074039d026cf4ea4240b40f7d581ac802916000925b84841061229557505060209250010190565b80546020858501810191909152909301928101612283565b601054600092916122bd82611f2c565b80825291600190818116908115611fed57506001146122db57505050565b9192935060106000527f1b6847dc741a1b0cd08d278845f9d819d87b734759afb55fe2de5cb82a9ae672916000925b84841061231c57505060209250010190565b8054602085850181019190915290930192810161230a565b906000929180549161234583611f2c565b9182825260019384811690816000146123a75750600114612367575b50505050565b90919394506000526020928360002092846000945b838610612393575050505001019038808080612361565b80548587018301529401938590820161237c565b9294505050602093945060ff191683830152151560051b01019038808080612361565b602080820190808352835180925260408301928160408460051b8301019501936000915b8483106123fe5750505050505090565b909192939495848061241c600193603f198682030187528a51611e0e565b98019301930191949392906123ee565b60405190604082018281106001600160401b03821117610c4b5760405260606020838281520152565b80548210156124715760005260206000209060011b0190600090565b634e487b7160e01b600052603260045260246000fd5b805468010000000000000000811015610c4b576124ab906001928382018155612455565b6126d15782518051916001600160401b0392838111610c4b5784906124d08354611f2c565b93601f94858111612680575b506020908583116001146126175760209492916000918361260c575b5050600019600383901b1c191690831b1781555b019401518051928311610c4b576125238554611f2c565b8281116125c4575b50602091831160011461256457928293918392600094612559575b50501b916000199060031b1c1916179055565b015192503880612546565b90601f198316918560005283826000209360005b878282106125ab57505010612592575b505050811b019055565b015160001960f88460031b161c19169055388080612588565b8486015187559095019460209485019487935001612578565b8560005260206000208380860160051c82019260208710612603575b0160051c019085905b8281106125f757505061252b565b600081550185906125e9565b925081926125e0565b0151905038806124f8565b90601f1983169185600052816000209260005b8181106126685750918593918560209896941061264f575b505050811b01815561250c565b015160001960f88460031b161c19169055388080612642565b8284015185558a96909401936020938401930161262a565b909192506000848152602081208680860160051c820193602087106126c8575b908a9695949392910160051c01915b8281106126bd5750506124dc565b8181558995016126af565b935081936126a0565b634e487b7160e01b600052600060045260246000fd5b604051906126f482611e62565b60048252633ab9b2b960e11b6020830152565b9190825260206040818401526101a09283604082015260009160055461272c81611f2c565b90816101e085015260019081811690816000146128645750600114612807575b50506127f761280494956127e86127c66127ad6101c09560065460000b6060890152612784603f19998a8a82030160808b015261200a565b906008549063ffffffff821660a08b01521c60000b60c0890152888882030160e0890152612091565b600a546101008801528787820301610120880152612118565b600c54610140870152600d54610160870152868682030161018087015261219f565b90858583030190850152612226565b92828403019101526122ad565b90565b600560009081529294507f036b6384b5eca791c62761152d0c79bb0604c104a5fb6f4eb0703f3154bb3db05b82841061284f57505050810161020001916127f761280461274c565b80548585016102000152928501928101612833565b60ff19166102008681019190915292151560051b850190920194506127f79150612804905061274c565b1561289557565b60405162461bcd60e51b815260206004820152601460248201527343616c6c6572206973206e6f74206f7261636c6560601b6044820152606490fd5b604051906128de82611e62565b6009825268185cdcda5cdd185b9d60ba1b6020830152565b6000198114610ae45760010190565b9190916000928184526020936001855260409182822094612933845161292a81611e7d565b84815282612d83565b15612c845750858101612955815185519061294d82611e7d565b858252612d83565b15612a45575b5082810190612971825185519061294d82611e7d565b156129a55750505050509050600d600c82015491019081549060ff82161115612998575050565b61ff001916610100179055565b8293949550906129f0918793606060018060a01b0360045416935192015197612a028851998a9687958694634b04236b60e01b86526004860152606060248601526064850190611e0e565b83810360031901604485015290611e0e565b03925af1918215612a3b575050612a17575050565b813d8311612a34575b612a2a8183611e98565b8101031261018e57565b503d612a20565b51903d90823e3d90fd5b612a69612a5061242c565b825189820152612a5e6128d1565b8152600b8801612487565b600c8601612a7781546128f6565b9055612aa88151855190612a8a82611e62565b600d82526c2a32b1b420b3b2b73a1032379d60991b8a830152612dd8565b15612b315760018060a01b03601154169051813b15612b2d57612aea84928392875194858094819363941fac3760e01b83528b60048401526044830190611e0e565b8b602483015203925af18015612b2357908391612b0b575b50505b3861295b565b612b1490611e4f565b612b1f578138612b02565b5080fd5b84513d85823e3d90fd5b8380fd5b612b628151855190612b4282611e62565b600f82526e29b7b1b4b0b620b3b2b73a1032379d60891b8a830152612dd8565b15612bd75760018060a01b03601254169051813b15612b2d57612ba484928392875194858094819363941fac3760e01b83528b60048401526044830190611e0e565b8b602483015203925af18015612b2357908391612bc3575b5050612b05565b612bcc90611e4f565b612b1f578138612bbc565b612c098193929351855190612beb82611e62565b600d82526c2230ba30a0b3b2b73a1032379d60991b8a830152612dd8565b612c15575b5090612b05565b60018060a01b03601354169051813b15612c8057612c5283928392875194858094819363941fac3760e01b83528b60048401526044830190611e0e565b8b602483015203925af18015612c765715612c0e57612c7090611e4f565b38612c0e565b84513d84823e3d90fd5b8280fd5b915050612cb09250600d949150612c9961242c565b91612ca26128d1565b8352820152600b8301612487565b600c8101612cbe81546128f6565b905501805461ff001916610100179055565b15612cd757565b60405162461bcd60e51b815260206004820152600f60248201526e149d5b881a5cc8199a5b9a5cda1959608a1b6044820152606490fd5b6001600160401b038111610c4b5760051b60200190565b90612d2f82612d0e565b612d3c6040519182611e98565b8281528092612d4d601f1991612d0e565b019060005b828110612d5e57505050565b806060602080938501015201612d52565b80518210156124715760209160051b010190565b9060405191602092612db1848281612da48183019687815193849201611deb565b8101038084520182611e98565b51902091612dd1604051918281612da48183019687815193849201611deb565b5190201490565b908051612de481611eb9565b612df16040519182611e98565b818152612dfd82611eb9565b6020948286019391601f1901368537600090815b838110612e375750505050612db1846040518093612da483830196879251928391611deb565b612e62906001600160f81b0319612e4e8285612e67565b5116841a612e5c8288612e67565b536128f6565b612e11565b90815181101561247157016020019056fea26469706673582212209662697cf8dd48c16a5dd4e6339c992e78ff9ea0004c1a25e325e094905ec2af64736f6c63430008110033290decd9548b62a8d60345a988386fc84ba6bc95484008f6362f93160ef3e563a66cc928b5edb82af9bd49922954155ab7b0942694bea4ce44661d9a8736c6886e1540171b6c0c960b71a7020d9f60077f6af931a8bbf590da0223dacf75c7af8d1108e10bcb7c27dddfc02ed9d693a074039d026cf4ea4240b40f7d581ac802",
  "devdoc": {
    "kind": "dev",
    "methods": {},
    "version": 1
  },
  "userdoc": {
    "kind": "user",
    "methods": {},
    "version": 1
  },
  "storageLayout": {
    "storage": [
      {
        "astId": 643,
        "contract": "contracts/LeadAgent.sol:LeadAgent",
        "label": "prompt",
        "offset": 0,
        "slot": "0",
        "type": "t_string_storage"
      },
      {
        "astId": 715,
        "contract": "contracts/LeadAgent.sol:LeadAgent",
        "label": "agentRuns",
        "offset": 0,
        "slot": "1",
        "type": "t_mapping(t_uint256,t_struct(AgentRun)681_storage)"
      },
      {
        "astId": 717,
        "contract": "contracts/LeadAgent.sol:LeadAgent",
        "label": "agentRunCount",
        "offset": 0,
        "slot": "2",
        "type": "t_uint256"
      },
      {
        "astId": 725,
        "contract": "contracts/LeadAgent.sol:LeadAgent",
        "label": "owner",
        "offset": 0,
        "slot": "3",
        "type": "t_address"
      },
      {
        "astId": 727,
        "contract": "contracts/LeadAgent.sol:LeadAgent",
        "label": "oracleAddress",
        "offset": 0,
        "slot": "4",
        "type": "t_address"
      },
      {
        "astId": 734,
        "contract": "contracts/LeadAgent.sol:LeadAgent",
        "label": "config",
        "offset": 0,
        "slot": "5",
        "type": "t_struct(OpenAiRequest)1994_storage"
      },
      {
        "astId": 737,
        "contract": "contracts/LeadAgent.sol:LeadAgent",
        "label": "techAgent",
        "offset": 0,
        "slot": "17",
        "type": "t_contract(IOpenAiChatGpt)1953"
      },
      {
        "astId": 740,
        "contract": "contracts/LeadAgent.sol:LeadAgent",
        "label": "socialAgent",
        "offset": 0,
        "slot": "18",
        "type": "t_contract(IOpenAiChatGpt)1953"
      },
      {
        "astId": 743,
        "contract": "contracts/LeadAgent.sol:LeadAgent",
        "label": "dataAgent",
        "offset": 0,
        "slot": "19",
        "type": "t_contract(IOpenAiChatGpt)1953"
      }
    ],
    "types": {
      "t_address": {
        "encoding": "inplace",
        "label": "address",
        "numberOfBytes": "20"
      },
      "t_array(t_struct(Message)648_storage)dyn_storage": {
        "base": "t_struct(Message)648_storage",
        "encoding": "dynamic_array",
        "label": "struct LeadAgent.Message[]",
        "numberOfBytes": "32"
      },
      "t_bool": {
        "encoding": "inplace",
        "label": "bool",
        "numberOfBytes": "1"
      },
      "t_contract(IOpenAiChatGpt)1953": {
        "encoding": "inplace",
        "label": "contract IOpenAiChatGpt",
        "numberOfBytes": "20"
      },
      "t_int8": {
        "encoding": "inplace",
        "label": "int8",
        "numberOfBytes": "1"
      },
      "t_mapping(t_uint256,t_struct(AgentRun)681_storage)": {
        "encoding": "mapping",
        "key": "t_uint256",
        "label": "mapping(uint256 => struct LeadAgent.AgentRun)",
        "numberOfBytes": "32",
        "value": "t_struct(AgentRun)681_storage"
      },
      "t_string_storage": {
        "encoding": "bytes",
        "label": "string",
        "numberOfBytes": "32"
      },
      "t_struct(AgentRun)681_storage": {
        "encoding": "inplace",
        "label": "struct LeadAgent.AgentRun",
        "members": [
          {
            "astId": 650,
            "contract": "contracts/LeadAgent.sol:LeadAgent",
            "label": "owner",
            "offset": 0,
            "slot": "0",
            "type": "t_address"
          },
          {
            "astId": 652,
            "contract": "contracts/LeadAgent.sol:LeadAgent",
            "label": "creator",
            "offset": 0,
            "slot": "1",
            "type": "t_address"
          },
          {
            "astId": 654,
            "contract": "contracts/LeadAgent.sol:LeadAgent",
            "label": "target",
            "offset": 0,
            "slot": "2",
            "type": "t_address"
          },
          {
            "astId": 656,
            "contract": "contracts/LeadAgent.sol:LeadAgent",
            "label": "targetFirstName",
            "offset": 0,
            "slot": "3",
            "type": "t_string_storage"
          },
          {
            "astId": 658,
            "contract": "contracts/LeadAgent.sol:LeadAgent",
            "label": "targetFriend",
            "offset": 0,
            "slot": "4",
            "type": "t_string_storage"
          },
          {
            "astId": 660,
            "contract": "contracts/LeadAgent.sol:LeadAgent",
            "label": "situation",
            "offset": 0,
            "slot": "5",
            "type": "t_string_storage"
          },
          {
            "astId": 662,
            "contract": "contracts/LeadAgent.sol:LeadAgent",
            "label": "publicInfo",
            "offset": 0,
            "slot": "6",
            "type": "t_string_storage"
          },
          {
            "astId": 664,
            "contract": "contracts/LeadAgent.sol:LeadAgent",
            "label": "privateInfo",
            "offset": 0,
            "slot": "7",
            "type": "t_string_storage"
          },
          {
            "astId": 666,
            "contract": "contracts/LeadAgent.sol:LeadAgent",
            "label": "groupTitle",
            "offset": 0,
            "slot": "8",
            "type": "t_string_storage"
          },
          {
            "astId": 668,
            "contract": "contracts/LeadAgent.sol:LeadAgent",
            "label": "groupImage",
            "offset": 0,
            "slot": "9",
            "type": "t_string_storage"
          },
          {
            "astId": 670,
            "contract": "contracts/LeadAgent.sol:LeadAgent",
            "label": "groupId",
            "offset": 0,
            "slot": "10",
            "type": "t_string_storage"
          },
          {
            "astId": 674,
            "contract": "contracts/LeadAgent.sol:LeadAgent",
            "label": "commands",
            "offset": 0,
            "slot": "11",
            "type": "t_array(t_struct(Message)648_storage)dyn_storage"
          },
          {
            "astId": 676,
            "contract": "contracts/LeadAgent.sol:LeadAgent",
            "label": "responsesCount",
            "offset": 0,
            "slot": "12",
            "type": "t_uint256"
          },
          {
            "astId": 678,
            "contract": "contracts/LeadAgent.sol:LeadAgent",
            "label": "max_iterations",
            "offset": 0,
            "slot": "13",
            "type": "t_uint8"
          },
          {
            "astId": 680,
            "contract": "contracts/LeadAgent.sol:LeadAgent",
            "label": "is_finished",
            "offset": 1,
            "slot": "13",
            "type": "t_bool"
          }
        ],
        "numberOfBytes": "448"
      },
      "t_struct(Message)648_storage": {
        "encoding": "inplace",
        "label": "struct LeadAgent.Message",
        "members": [
          {
            "astId": 645,
            "contract": "contracts/LeadAgent.sol:LeadAgent",
            "label": "role",
            "offset": 0,
            "slot": "0",
            "type": "t_string_storage"
          },
          {
            "astId": 647,
            "contract": "contracts/LeadAgent.sol:LeadAgent",
            "label": "content",
            "offset": 0,
            "slot": "1",
            "type": "t_string_storage"
          }
        ],
        "numberOfBytes": "64"
      },
      "t_struct(OpenAiRequest)1994_storage": {
        "encoding": "inplace",
        "label": "struct IOracle.OpenAiRequest",
        "members": [
          {
            "astId": 1969,
            "contract": "contracts/LeadAgent.sol:LeadAgent",
            "label": "model",
            "offset": 0,
            "slot": "0",
            "type": "t_string_storage"
          },
          {
            "astId": 1971,
            "contract": "contracts/LeadAgent.sol:LeadAgent",
            "label": "frequencyPenalty",
            "offset": 0,
            "slot": "1",
            "type": "t_int8"
          },
          {
            "astId": 1973,
            "contract": "contracts/LeadAgent.sol:LeadAgent",
            "label": "logitBias",
            "offset": 0,
            "slot": "2",
            "type": "t_string_storage"
          },
          {
            "astId": 1975,
            "contract": "contracts/LeadAgent.sol:LeadAgent",
            "label": "maxTokens",
            "offset": 0,
            "slot": "3",
            "type": "t_uint32"
          },
          {
            "astId": 1977,
            "contract": "contracts/LeadAgent.sol:LeadAgent",
            "label": "presencePenalty",
            "offset": 4,
            "slot": "3",
            "type": "t_int8"
          },
          {
            "astId": 1979,
            "contract": "contracts/LeadAgent.sol:LeadAgent",
            "label": "responseFormat",
            "offset": 0,
            "slot": "4",
            "type": "t_string_storage"
          },
          {
            "astId": 1981,
            "contract": "contracts/LeadAgent.sol:LeadAgent",
            "label": "seed",
            "offset": 0,
            "slot": "5",
            "type": "t_uint256"
          },
          {
            "astId": 1983,
            "contract": "contracts/LeadAgent.sol:LeadAgent",
            "label": "stop",
            "offset": 0,
            "slot": "6",
            "type": "t_string_storage"
          },
          {
            "astId": 1985,
            "contract": "contracts/LeadAgent.sol:LeadAgent",
            "label": "temperature",
            "offset": 0,
            "slot": "7",
            "type": "t_uint256"
          },
          {
            "astId": 1987,
            "contract": "contracts/LeadAgent.sol:LeadAgent",
            "label": "topP",
            "offset": 0,
            "slot": "8",
            "type": "t_uint256"
          },
          {
            "astId": 1989,
            "contract": "contracts/LeadAgent.sol:LeadAgent",
            "label": "tools",
            "offset": 0,
            "slot": "9",
            "type": "t_string_storage"
          },
          {
            "astId": 1991,
            "contract": "contracts/LeadAgent.sol:LeadAgent",
            "label": "toolChoice",
            "offset": 0,
            "slot": "10",
            "type": "t_string_storage"
          },
          {
            "astId": 1993,
            "contract": "contracts/LeadAgent.sol:LeadAgent",
            "label": "user",
            "offset": 0,
            "slot": "11",
            "type": "t_string_storage"
          }
        ],
        "numberOfBytes": "384"
      },
      "t_uint256": {
        "encoding": "inplace",
        "label": "uint256",
        "numberOfBytes": "32"
      },
      "t_uint32": {
        "encoding": "inplace",
        "label": "uint32",
        "numberOfBytes": "4"
      },
      "t_uint8": {
        "encoding": "inplace",
        "label": "uint8",
        "numberOfBytes": "1"
      }
    }
  }
}