{
  "address": "0xD5Aebe088c5ba05D1094A3888D9b0474c087fD51",
  "abi": [
    {
      "inputs": [
        {
          "internalType": "address",
          "name": "initialOracleAddress",
          "type": "address"
        },
        {
          "internalType": "string",
          "name": "systemPrompt",
          "type": "string"
        },
        {
          "internalType": "address",
          "name": "techAgentFactoryAddress",
          "type": "address"
        },
        {
          "internalType": "address",
          "name": "socialAgentFactoryAddress",
          "type": "address"
        },
        {
          "internalType": "address",
          "name": "dataAgentFactoryAddress",
          "type": "address"
        }
      ],
      "stateMutability": "nonpayable",
      "type": "constructor"
    },
    {
      "anonymous": false,
      "inputs": [
        {
          "indexed": true,
          "internalType": "address",
          "name": "owner",
          "type": "address"
        },
        {
          "indexed": true,
          "internalType": "uint256",
          "name": "runId",
          "type": "uint256"
        }
      ],
      "name": "AgentRunCreated",
      "type": "event"
    },
    {
      "anonymous": false,
      "inputs": [
        {
          "indexed": true,
          "internalType": "address",
          "name": "newOracleAddress",
          "type": "address"
        }
      ],
      "name": "OracleAddressUpdated",
      "type": "event"
    },
    {
      "inputs": [
        {
          "internalType": "string",
          "name": "message",
          "type": "string"
        },
        {
          "internalType": "uint256",
          "name": "runId",
          "type": "uint256"
        }
      ],
      "name": "addMessage",
      "outputs": [],
      "stateMutability": "nonpayable",
      "type": "function"
    },
    {
      "inputs": [],
      "name": "agentRunCount",
      "outputs": [
        {
          "internalType": "uint256",
          "name": "",
          "type": "uint256"
        }
      ],
      "stateMutability": "view",
      "type": "function"
    },
    {
      "inputs": [
        {
          "internalType": "uint256",
          "name": "",
          "type": "uint256"
        }
      ],
      "name": "agentRuns",
      "outputs": [
        {
          "internalType": "address",
          "name": "owner",
          "type": "address"
        },
        {
          "internalType": "address",
          "name": "creator",
          "type": "address"
        },
        {
          "internalType": "address",
          "name": "target",
          "type": "address"
        },
        {
          "internalType": "string",
          "name": "targetFirstName",
          "type": "string"
        },
        {
          "internalType": "string",
          "name": "targetFriend",
          "type": "string"
        },
        {
          "internalType": "enum LeadAgent.Situation",
          "name": "situation",
          "type": "uint8"
        },
        {
          "internalType": "address",
          "name": "situationAddress",
          "type": "address"
        },
        {
          "internalType": "string",
          "name": "publicInfo",
          "type": "string"
        },
        {
          "internalType": "string",
          "name": "privateInfo",
          "type": "string"
        },
        {
          "internalType": "string",
          "name": "groupTitle",
          "type": "string"
        },
        {
          "internalType": "string",
          "name": "groupImage",
          "type": "string"
        },
        {
          "internalType": "string",
          "name": "groupId",
          "type": "string"
        },
        {
          "internalType": "uint256",
          "name": "responsesCount",
          "type": "uint256"
        },
        {
          "internalType": "uint8",
          "name": "max_iterations",
          "type": "uint8"
        },
        {
          "internalType": "bool",
          "name": "is_finished",
          "type": "bool"
        }
      ],
      "stateMutability": "view",
      "type": "function"
    },
    {
      "inputs": [],
      "name": "dataAgent",
      "outputs": [
        {
          "internalType": "contract IOpenAiChatGpt",
          "name": "",
          "type": "address"
        }
      ],
      "stateMutability": "view",
      "type": "function"
    },
    {
      "inputs": [
        {
          "internalType": "address",
          "name": "_creator",
          "type": "address"
        }
      ],
      "name": "getAgentRuns",
      "outputs": [
        {
          "components": [
            {
              "internalType": "address",
              "name": "owner",
              "type": "address"
            },
            {
              "internalType": "address",
              "name": "creator",
              "type": "address"
            },
            {
              "internalType": "address",
              "name": "target",
              "type": "address"
            },
            {
              "internalType": "string",
              "name": "targetFirstName",
              "type": "string"
            },
            {
              "internalType": "string",
              "name": "targetFriend",
              "type": "string"
            },
            {
              "internalType": "enum LeadAgent.Situation",
              "name": "situation",
              "type": "uint8"
            },
            {
              "internalType": "address",
              "name": "situationAddress",
              "type": "address"
            },
            {
              "internalType": "string",
              "name": "publicInfo",
              "type": "string"
            },
            {
              "internalType": "string",
              "name": "privateInfo",
              "type": "string"
            },
            {
              "internalType": "string",
              "name": "groupTitle",
              "type": "string"
            },
            {
              "internalType": "string",
              "name": "groupImage",
              "type": "string"
            },
            {
              "internalType": "string",
              "name": "groupId",
              "type": "string"
            },
            {
              "internalType": "uint256",
              "name": "responsesCount",
              "type": "uint256"
            },
            {
              "internalType": "uint8",
              "name": "max_iterations",
              "type": "uint8"
            },
            {
              "internalType": "bool",
              "name": "is_finished",
              "type": "bool"
            }
          ],
          "internalType": "struct LeadAgent.AgentRunInfo[]",
          "name": "",
          "type": "tuple[]"
        }
      ],
      "stateMutability": "view",
      "type": "function"
    },
    {
      "inputs": [
        {
          "internalType": "uint256",
          "name": "agentId",
          "type": "uint256"
        }
      ],
      "name": "getMessageHistoryContents",
      "outputs": [
        {
          "internalType": "string[]",
          "name": "",
          "type": "string[]"
        }
      ],
      "stateMutability": "view",
      "type": "function"
    },
    {
      "inputs": [
        {
          "internalType": "uint256",
          "name": "agentId",
          "type": "uint256"
        }
      ],
      "name": "getMessageHistoryRoles",
      "outputs": [
        {
          "internalType": "string[]",
          "name": "",
          "type": "string[]"
        }
      ],
      "stateMutability": "view",
      "type": "function"
    },
    {
      "inputs": [
        {
          "internalType": "uint256",
          "name": "runId",
          "type": "uint256"
        }
      ],
      "name": "isRunFinished",
      "outputs": [
        {
          "internalType": "bool",
          "name": "",
          "type": "bool"
        }
      ],
      "stateMutability": "view",
      "type": "function"
    },
    {
      "inputs": [
        {
          "internalType": "uint256",
          "name": "runId",
          "type": "uint256"
        },
        {
          "internalType": "string",
          "name": "response",
          "type": "string"
        },
        {
          "internalType": "string",
          "name": "errorMessage",
          "type": "string"
        }
      ],
      "name": "onOracleFunctionResponse",
      "outputs": [],
      "stateMutability": "nonpayable",
      "type": "function"
    },
    {
      "inputs": [
        {
          "internalType": "uint256",
          "name": "runId",
          "type": "uint256"
        },
        {
          "components": [
            {
              "internalType": "string",
              "name": "id",
              "type": "string"
            },
            {
              "internalType": "string",
              "name": "content",
              "type": "string"
            },
            {
              "internalType": "string",
              "name": "functionName",
              "type": "string"
            },
            {
              "internalType": "string",
              "name": "functionArguments",
              "type": "string"
            },
            {
              "internalType": "uint64",
              "name": "created",
              "type": "uint64"
            },
            {
              "internalType": "string",
              "name": "model",
              "type": "string"
            },
            {
              "internalType": "string",
              "name": "systemFingerprint",
              "type": "string"
            },
            {
              "internalType": "string",
              "name": "object",
              "type": "string"
            },
            {
              "internalType": "uint32",
              "name": "completionTokens",
              "type": "uint32"
            },
            {
              "internalType": "uint32",
              "name": "promptTokens",
              "type": "uint32"
            },
            {
              "internalType": "uint32",
              "name": "totalTokens",
              "type": "uint32"
            }
          ],
          "internalType": "struct IOracle.OpenAiResponse",
          "name": "response",
          "type": "tuple"
        },
        {
          "internalType": "string",
          "name": "errorMessage",
          "type": "string"
        }
      ],
      "name": "onOracleOpenAiLlmResponse",
      "outputs": [],
      "stateMutability": "nonpayable",
      "type": "function"
    },
    {
      "inputs": [],
      "name": "oracleAddress",
      "outputs": [
        {
          "internalType": "address",
          "name": "",
          "type": "address"
        }
      ],
      "stateMutability": "view",
      "type": "function"
    },
    {
      "inputs": [],
      "name": "prompt",
      "outputs": [
        {
          "internalType": "string",
          "name": "",
          "type": "string"
        }
      ],
      "stateMutability": "view",
      "type": "function"
    },
    {
      "inputs": [
        {
          "internalType": "string",
          "name": "query",
          "type": "string"
        },
        {
          "internalType": "uint8",
          "name": "max_iterations",
          "type": "uint8"
        },
        {
          "internalType": "string",
          "name": "techAgentPrompt",
          "type": "string"
        },
        {
          "internalType": "string",
          "name": "socialAgentPrompt",
          "type": "string"
        },
        {
          "internalType": "string",
          "name": "dataAgentPrompt",
          "type": "string"
        },
        {
          "internalType": "address",
          "name": "creator",
          "type": "address"
        },
        {
          "internalType": "address",
          "name": "target",
          "type": "address"
        },
        {
          "internalType": "string",
          "name": "targetFirstName",
          "type": "string"
        },
        {
          "internalType": "string",
          "name": "targetFriend",
          "type": "string"
        },
        {
          "internalType": "enum LeadAgent.Situation",
          "name": "situation",
          "type": "uint8"
        },
        {
          "internalType": "address",
          "name": "situationAddress",
          "type": "address"
        },
        {
          "internalType": "string",
          "name": "publicInfo",
          "type": "string"
        },
        {
          "internalType": "string",
          "name": "privateInfo",
          "type": "string"
        },
        {
          "internalType": "string",
          "name": "groupTitle",
          "type": "string"
        },
        {
          "internalType": "string",
          "name": "groupImage",
          "type": "string"
        },
        {
          "internalType": "string",
          "name": "groupId",
          "type": "string"
        }
      ],
      "name": "runAgent",
      "outputs": [
        {
          "internalType": "uint256",
          "name": "",
          "type": "uint256"
        }
      ],
      "stateMutability": "nonpayable",
      "type": "function"
    },
    {
      "inputs": [
        {
          "internalType": "address",
          "name": "newOracleAddress",
          "type": "address"
        }
      ],
      "name": "setOracleAddress",
      "outputs": [],
      "stateMutability": "nonpayable",
      "type": "function"
    },
    {
      "inputs": [],
      "name": "socialAgent",
      "outputs": [
        {
          "internalType": "contract IOpenAiChatGpt",
          "name": "",
          "type": "address"
        }
      ],
      "stateMutability": "view",
      "type": "function"
    },
    {
      "inputs": [],
      "name": "techAgent",
      "outputs": [
        {
          "internalType": "contract IOpenAiChatGpt",
          "name": "",
          "type": "address"
        }
      ],
      "stateMutability": "view",
      "type": "function"
    }
  ],
  "transactionHash": "0xaafbfbc3b15e74d8e3c6cf9104dbf0f56db66444ad54f0f05f1d22276727b56e",
  "args": [
    "0x68EC9556830AD097D661Df2557FBCeC166a0A075",
    "You are a helpful assistant",
    "0x06b49e0F8eB52Be2b45E46EBcfC149381BD9Bf59",
    "0x33735222498A0819Ec0c59522190B7FfED5A0f6C",
    "0x43597552e6b6cF4d6b8DE2ED0D0C7DCA4c986327"
  ],
  "numDeployments": 5,
  "solcInputHash": "144e2ca6d9346f43c64cf0cddec9898c",
  "bytecode": "0x6080806040523462001265576200442a8038038091620000208285620012a2565b833981019060a08183031262001265576200003b81620012c6565b60208201519092906001600160401b0381116200126557820181601f8201121562001265578051906001600160401b03821162000a9057604051926200008c601f8401601f191660200185620012a2565b82845260208383010111620012655760005b8281106200124f575050602060009183010152620000bf60408301620012c6565b90620000dc6080620000d460608601620012c6565b9401620012c6565b600380546001600160a01b03199081163317909155600480549091166001600160a01b03909616959095179094558051906001600160401b03821162000a9057600054600181811c9116801562001244575b602082101462000a6f57601f8111620011f0575b50602090601f83116001146200117257918060009492602094869262001166575b50508160011b9185199060031b1c19161783555b6004805460405163e2079a8360e01b81526001600160a01b039182169281019290925290938492602492849291165af1908115620010c5576000916200111d575b50601180546001600160a01b0319166001600160a01b0392831617905560048054604051630323981f60e11b8152908316918101919091529160209183916024918391600091165af1908115620010c557600091620010d1575b50601280546001600160a01b0319166001600160a01b0392831617905560048054604051636fe93b6560e11b8152908316918101919091529160209183916024918391600091165af1908115620010c55760009162001080575b50601380546001600160a01b0319166001600160a01b03929092169190911790556040516101a081016001600160401b0381118282101762000a905780604052620002b7816200126a565b601381527f6770742d342d747572626f2d70726576696577000000000000000000000000006101c0830152815260156020820152604051620002f98162001286565b6000815260408201526103e86060820152601560808201526040516200031f816200126a565b600f81526e7b2274797065223a2274657874227d60881b602082015260a0820152600060c0820152604051620003558162001286565b6000815260e0820152600a61010082015260656101208201526040516001600160401b0361020082019081119082111762000a905761020081016040526101d381527f5b7b2274797065223a2266756e6374696f6e222c2266756e6374696f6e223a7b60208201527f226e616d65223a227765625f736561726368222c226465736372697074696f6e60408201527f223a225365617263682074686520696e7465726e6574222c22706172616d657460608201527f657273223a7b2274797065223a226f626a656374222c2270726f70657274696560808201527f73223a7b227175657279223a7b2274797065223a22737472696e67222c22646560a08201527f736372697074696f6e223a22536561726368207175657279227d7d2c2272657160c08201527f7569726564223a5b227175657279225d7d7d7d2c7b2274797065223a2266756e60e08201527f6374696f6e222c2266756e6374696f6e223a7b226e616d65223a22696d6167656101008201527f5f67656e65726174696f6e222c226465736372697074696f6e223a2247656e656101208201527f726174657320616e20696d616765207573696e672044616c6c652d32222c22706101408201527f6172616d6574657273223a7b2274797065223a226f626a656374222c2270726f6101608201527f70657274696573223a7b2270726f6d7074223a7b2274797065223a22737472696101808201527f6e67222c226465736372697074696f6e223a2244616c6c652d322070726f6d706101a08201527f7420746f2067656e657261746520616e20696d616765227d7d2c2272657175696101c08201527f726564223a5b2270726f6d7074225d7d7d7d5d000000000000000000000000006101e0820152610140820152604051620005ed816200126a565b60048152636175746f60e01b6020820152610160820152604051620006128162001286565b6000815261018082015280518051906001600160401b03821162000a905760055490600182811c9216801562001075575b602083101462000a6f5781601f8493116200101f575b50602090601f831160011462000f905760009262000f84575b50508160011b916000199060031b1c1916176005555b602081015160ff19600654169060ff1617600655604081015180519060018060401b03821162000a905760075490600182811c9216801562000f79575b602083101462000a6f5781601f84931162000f18575b50602090601f831160011462000e9a5760009262000e8e575b50508160011b916000199060031b1c1916176007555b63ffffffff60608201511660085490608083015160201b64ff00000000169164ffffffffff1916171760085560a081015180519060018060401b03821162000a905760095490600182811c9216801562000e83575b602083101462000a6f5781601f84931162000e22575b50602090601f831160011462000da45760009262000d98575b50508160011b916000199060031b1c1916176009555b60c0810151600a5560e08101518051906001600160401b03821162000a9057600b5490600182811c9216801562000d8d575b602083101462000a6f5781601f84931162000d1b575b50602090601f831160011462000c8c5760009262000c80575b50508160011b916000199060031b1c191617600b555b610100810151600c55610120810151600d5561014081015180519091906001600160401b03811162000a9057600e54600181811c9116801562000c75575b602082101462000a6f57601f811162000c0b575b50602092601f821160011462000ba0579281929360009262000b94575b50508160011b916000199060031b1c191617600e555b610160810151805191906001600160401b03831162000a9057600f54600181811c9116801562000b89575b602082101462000a6f57601f811162000b30575b50602090601f841160011462000ab25761018093916000918362000aa6575b50508160011b916000199060031b1c191617600f555b015180516001600160401b03811162000a9057601054600181811c9116801562000a85575b602082101462000a6f57601f811162000a05575b50602091601f82116001146200099b579181926000926200098f575b50508160011b916000199060031b1c1916176010555b6040516130ce9081620012dc8239f35b01519050388062000969565b601f19821692601060005260206000209160005b858110620009ec57508360019510620009d2575b505050811b016010556200097f565b015160001960f88460031b161c19169055388080620009c3565b91926020600181928685015181550194019201620009af565b60106000527f1b6847dc741a1b0cd08d278845f9d819d87b734759afb55fe2de5cb82a9ae672601f830160051c8101916020841062000a64575b601f0160051c01905b81811062000a5757506200094d565b6000815560010162000a48565b909150819062000a3f565b634e487b7160e01b600052602260045260246000fd5b90607f169062000939565b634e487b7160e01b600052604160045260246000fd5b015190503880620008fe565b600f60009081526000805160206200440a833981519152929190601f198616905b81811062000b17575091600193918661018097941062000afd575b505050811b01600f5562000914565b015160001960f88460031b161c1916905538808062000aee565b9293602060018192878601518155019501930162000ad3565b600f6000526000805160206200440a833981519152601f850160051c8101916020861062000b7e575b601f0160051c01905b81811062000b715750620008df565b6000815560010162000b62565b909150819062000b59565b90607f1690620008cb565b0151905038806200088a565b601f19821693600e60005260206000209160005b86811062000bf2575083600195961062000bd8575b505050811b01600e55620008a0565b015160001960f88460031b161c1916905538808062000bc9565b9192602060018192868501518155019401920162000bb4565b600e6000527fbb7b4a454dc3493923482f07822329ed19e8244eff582cc204f8554c3620c3fd601f830160051c8101916020841062000c6a575b601f0160051c01905b81811062000c5d57506200086d565b6000815560010162000c4e565b909150819062000c45565b90607f169062000859565b01519050388062000805565b600b600090815293507f0175b7a638427703f0dbe7bb9bbf987a2551717b34e79f33b5b1008d1fa01db991905b601f198416851062000cff576001945083601f1981161062000ce5575b505050811b01600b556200081b565b015160001960f88460031b161c1916905538808062000cd6565b8181015183556020948501946001909301929091019062000cb9565b600b6000529091507f0175b7a638427703f0dbe7bb9bbf987a2551717b34e79f33b5b1008d1fa01db9601f840160051c81016020851062000d85575b90849392915b601f830160051c8201811062000d75575050620007ec565b6000815585945060010162000d5d565b508062000d57565b91607f1691620007d6565b0151905038806200078e565b600960009081529350600080516020620043ea83398151915291905b601f198416851062000e06576001945083601f1981161062000dec575b505050811b01600955620007a4565b015160001960f88460031b161c1916905538808062000ddd565b8181015183556020948501946001909301929091019062000dc0565b6009600052909150600080516020620043ea833981519152601f840160051c81016020851062000e7b575b90849392915b601f830160051c8201811062000e6b57505062000775565b6000815585945060010162000e53565b508062000e4d565b91607f16916200075f565b015190503880620006f4565b600760009081529350600080516020620043ca83398151915291905b601f198416851062000efc576001945083601f1981161062000ee2575b505050811b016007556200070a565b015160001960f88460031b161c1916905538808062000ed3565b8181015183556020948501946001909301929091019062000eb6565b6007600052909150600080516020620043ca833981519152601f840160051c81016020851062000f71575b90849392915b601f830160051c8201811062000f61575050620006db565b6000815585945060010162000f49565b508062000f43565b91607f1691620006c5565b01519050388062000672565b6005600090815293507f036b6384b5eca791c62761152d0c79bb0604c104a5fb6f4eb0703f3154bb3db091905b601f198416851062001003576001945083601f1981161062000fe9575b505050811b0160055562000688565b015160001960f88460031b161c1916905538808062000fda565b8181015183556020948501946001909301929091019062000fbd565b90915060056000526020600020601f840160051c8101602085106200106d575b90849392915b601f830160051c820181106200105d57505062000659565b6000815585945060010162001045565b50806200103f565b91607f169162000643565b6020813d602011620010bc575b816200109c60209383620012a2565b81010312620010b857620010b19150620012c6565b386200026c565b5080fd5b3d91506200108d565b6040513d6000823e3d90fd5b906020823d60201162001114575b81620010ee60209383620012a2565b8101031262001111575060009162001108602092620012c6565b91509162000212565b80fd5b3d9150620010df565b906020823d6020116200115d575b816200113a60209383620012a2565b8101031262001111575060009162001154602092620012c6565b915091620001b8565b3d91506200112b565b01519050388062000163565b6000808052600080516020620043aa8339815191529291905b601f1985168110620011d75750926000949260019260209583601f19811610620011be575b505050811b01835562000177565b0151861960f88460031b161c19169055388080620011b0565b919260206001819286850151815501940192016200118b565b60008052600080516020620043aa833981519152601f840160051c8101602085106200123c575b601f830160051c820181106200122f57505062000142565b6000815560010162001217565b508062001217565b90607f16906200012e565b806020809284010151828287010152016200009e565b600080fd5b604081019081106001600160401b0382111762000a9057604052565b602081019081106001600160401b0382111762000a9057604052565b601f909101601f19168101906001600160401b0382119082101762000a9057604052565b51906001600160a01b0382168203620012655756fe60e080604052600436101561001357600080fd5b60003560e01c90816304495a3b14611f7e575080630911674b14611ab45780630b841a8f146109b75780632eab9c81146109805780634c69c00f146108d65780634cecd88e146107245780635923400b146106fb5780637397454d146106105780637c65d711146105d8578063941fac371461048b578063a89ae4ba14610462578063b75f07e414610439578063c63b029514610248578063dade4cf91461022a578063eb17429a146101925763ed6e39e5146100cf57600080fd5b3461018d5760208060031936011261018d576004359081600052600190818152600b906101028260406000200154612f45565b936000845b61011e575b6040518061011a8882612388565b0390f35b81600052848352836040600020015481101561018857906101808261015e61016561015189979689604060002001612413565b50604051928380926122f2565b0382612072565b61016f828a612f8f565b5261017a8189612f8f565b50612b16565b909192610107565b61010c565b600080fd5b3461018d5760208060031936011261018d576004358060005260018281809452600b906101c58260406000200154612f45565b936000955b6101dd575b6040518061011a8782612388565b8060005283825282604060002001548610156102255761021e868561016561020d82999a88604060002001612413565b5061015e60405180948193016122f2565b95946101ca565b6101cf565b3461018d57600036600319011261018d576020600254604051908152f35b3461018d57602036600319011261018d57600435600090815260016020819052604091829020805491810154600282015493516001600160a01b039182169493821693909116908061029d81600386016122f2565b036102a89082612072565b604051806102b981600487016122f2565b036102c49082612072565b6005840154604051806102da81600689016122f2565b036102e59082612072565b60405190816102f78160078a016122f2565b036103029083612072565b60405192836103148160088b016122f2565b0361031f9085612072565b60405194856103318160098c016122f2565b0361033c9087612072565b604051968761034e81600a8d016122f2565b036103599089612072565b600c8a015499600d0154986040519c8d9c8d5260208d015260408c01526101e08060608d01528b0161038a91611fdb565b8a810360808c015261039b91611fdb565b906103ac60a08b0160ff8316612000565b60081c6001600160a01b031660c08a015288810360e08a01526103ce91611fdb565b8781036101008901526103e091611fdb565b8681036101208801526103f291611fdb565b85810361014087015261040491611fdb565b84810361016086015261041691611fdb565b9161018084015260ff81166101a084015260081c60ff1615156101c08301520390f35b3461018d57600036600319011261018d576012546040516001600160a01b039091168152602090f35b3461018d57600036600319011261018d576004546040516001600160a01b039091168152602090f35b3461018d57604036600319011261018d576004356001600160401b03811161018d576104bb9036906004016120ae565b602435806000526020916001835260406000206104e260ff600d83015460081c1615612ef0565b80546001600160a01b0392908316330361059357928492600c6105539361052560009761050d6123ea565b906105166126a5565b825288820152600b8301612445565b016105308154612b16565b90556004541690604051948580948193633c38a5f560e01b8352600483016126c5565b03925af180156105875761056357005b813d8311610580575b6105768183612072565b8101031261018d57005b503d61056c565b6040513d6000823e3d90fd5b60405162461bcd60e51b815260048101869052601f60248201527f4f6e6c792072756e206f776e65722063616e2061646420636f6d6d616e6473006044820152606490fd5b3461018d57600036600319011261018d5761011a6040516105fc8161015e81612140565b604051918291602083526020830190611fdb565b3461018d57606036600319011261018d576004356001600160401b0360243581811161018d576106449036906004016120ae565b9060443581811161018d5761065d9036906004016120ae565b6004546001600160a01b0394906106779086163314612aae565b806000526020946001865260406000209461069c60ff600d88015460081c1615612ef0565b936040519587870191878310908311176106e5576105258896610553966106ce60009a600c966040528b815282612fa3565b156106dd575b5061050d6123ea565b90508a6106d4565b634e487b7160e01b600052604160045260246000fd5b3461018d57600036600319011261018d576013546040516001600160a01b039091168152602090f35b3461018d5760031960603682011261018d576001600160401b039060243582811161018d576101608092823603011261018d57604051918201828110848211176106e557604052806004013583811161018d5761078790600436918401016120ae565b8252602481013583811161018d576107a590600436918401016120ae565b6020830152604481013583811161018d576107c690600436918401016120ae565b6040830152606481013583811161018d576107e790600436918401016120ae565b60608301526084810135838116810361018d57608083015260a481013583811161018d5761081b90600436918401016120ae565b60a083015260c481013583811161018d5761083c90600436918401016120ae565b60c083015260e481013583811161018d576108959161086461014492600436918401016120ae565b60e085015261087661010482016120f5565b61010085015261088961012482016120f5565b610120850152016120f5565b61014082015260443591821161018d576108b66108d49236906004016120ae565b906108cc60018060a01b03600454163314612aae565b600435612b25565b005b3461018d57602036600319011261018d576108ef611fa2565b6003546001600160a01b039190821633036109455716806bffffffffffffffffffffffff60a01b60045416176004557f107a9fafffb7ac890f780879e423760c9ffea8dcee8045681f40f542aede2cb8600080a2005b60405162461bcd60e51b815260206004820152601360248201527221b0b63632b91034b9903737ba1037bbb732b960691b6044820152606490fd5b3461018d57602036600319011261018d576004356000526001602052602060ff600d6040600020015460081c166040519015158152f35b3461018d5761020036600319011261018d576004356001600160401b03811161018d576109e89036906004016120ae565b60a05260243560ff8116810361018d576044356001600160401b03811161018d57610a179036906004016120ae565b6064356001600160401b03811161018d57610a369036906004016120ae565b906084356001600160401b03811161018d57610a569036906004016120ae565b9260a4356001600160a01b038116810361018d5760c435906001600160a01b038216820361018d5760e4356001600160401b03811161018d57610a9d9036906004016120ae565b610104356001600160401b03811161018d57610abd9036906004016120ae565b600261012435101561018d57610144356001600160a01b038116900361018d57610164356001600160401b03811161018d57610afd9036906004016120ae565b610184356001600160401b03811161018d57610b1d9036906004016120ae565b916101a4356001600160401b03811161018d57610b3e9036906004016120ae565b936101c4356001600160401b03811161018d57610b5f9036906004016120ae565b956101e4356001600160401b03811161018d57610b809036906004016120ae565b976002548060805260005260016020526040600020918260c0526bffffffffffffffffffffffff60a01b903382855416178455600184019060018060a01b031682825416179055600283019160018060a01b0316908254161790558151906001600160401b0382116106e5576003610bf9910154612106565b601f8111611a6b575b50602091601f82116001146119f9579181926000926119ee575b50508160011b916000199060031b1c191617600360c05101555b80516001600160401b0381116106e557610c55600460c0510154612106565b601f81116119a5575b50602091601f821160011461193357918192600092611928575b50508160011b916000199060031b1c191617600460c05101555b60c0516005810180546001600160a81b0319166101243560ff16176101443560081b610100600160a81b03161790558151906001600160401b0382116106e5576006610cdf910154612106565b601f81116118df575b50602091601f821160011461186d57918192600092611862575b50508160011b916000199060031b1c191617600660c05101555b80516001600160401b0381116106e557610d3b600760c0510154612106565b601f8111611819575b50602091601f82116001146117a75791819260009261179c575b50508160011b916000199060031b1c191617600760c05101555b80516001600160401b0381116106e557610d97600860c0510154612106565b601f8111611753575b50602091601f82116001146116e1579181926000926116d6575b50508160011b916000199060031b1c191617600860c05101555b80516001600160401b0381116106e557610df3600960c0510154612106565b601f811161168d575b50602091601f821160011461161b57918192600092611610575b50508160011b916000199060031b1c191617600960c05101555b8051906001600160401b0382116106e557610e50600a60c0510154612106565b601f81116115c7575b50602090601f831160011461154b579282610ee093600096936020968892611540575b50508160011b9187199060031b1c191617600a60c05101555b60c05160ff600d82019287600c8554940155169061ffff191617905560018060a01b0360115416906040519485809481936316846c1560e11b83528760048401526024830190611fdb565b03925af1801561058757611515575b506020610f2760009260018060a01b0360125416906040519485809481936316846c1560e11b83528760048401526024830190611fdb565b03925af18015610587576114ea575b506020610f6e60009260018060a01b0360135416906040519485809481936316846c1560e11b83528760048401526024830190611fdb565b03925af18015610587576114bf575b50610fef610f896123ea565b604051610f998161015e81612140565b6020820152604051610faa8161203c565b600681526573797374656d60d01b60208201528152610fcf600b60c051019182612445565b610fd76123ea565b9060a0516020830152610fe86126a5565b8252612445565b6002546001810181116114a95760010160025560018060a01b036004541660405190633c38a5f560e01b82526080516004830152604060248301526101a0604483015281600060055461104181612106565b90816101e48501526001811690816000146114835750600114611426575b506110836110ae9160065460000b60648501526043198482030160848501526121e4565b60085463ffffffff811660a485015260201c60000b60c48401528281036043190160e484015261226b565b600a5461010483015281810360431901610124830152600b546000916110d382612106565b808252916001811690811561140757506001146113a8575b5050600c54610144830152600d5461016483015281810360431901610184830152600e5460009161111b82612106565b8082529160018116908115611389575060011461132a575b5050818103604319016101a4830152600f5460009161115182612106565b808252916001811690811561130b57506001146112ac575b5050818103604319016101c483015260105460009161118782612106565b80825291600181169081156112875750600114611224575b5050918160008160209503925af18015610587576111f9575b60c0515460405160805160209281906001600160a01b03167f9697c88a6be3b3ed5062f2dcbd719a10914832320686f14e24f7756210a6685e600080a38152f35b602090813d831161121d575b61120f8183612072565b8101031261018d57806111b8565b503d611205565b93915060106000527f1b6847dc741a1b0cd08d278845f9d819d87b734759afb55fe2de5cb82a9ae672936000915b80831061126957509193500160200181600061119f565b93509193600181602092548385870101520191019093918593611252565b60ff191660208381019190915292151560051b9091019091019150829050600061119f565b600f6000908152919392507f8d1108e10bcb7c27dddfc02ed9d693a074039d026cf4ea4240b40f7d581ac8025b8483106112ef5750602092935001018480611169565b60209193508060019154838587010152019101909185926112d9565b90506020935060ff929192191683830152151560051b01018480611169565b600e6000908152919392507fbb7b4a454dc3493923482f07822329ed19e8244eff582cc204f8554c3620c3fd5b84831061136d5750602092935001018480611133565b6020919350806001915483858701015201910190918592611357565b90506020935060ff929192191683830152151560051b01018480611133565b600b6000908152919392507f0175b7a638427703f0dbe7bb9bbf987a2551717b34e79f33b5b1008d1fa01db95b8483106113eb57506020929350010184806110eb565b60209193508060019154838587010152019101909185926113d5565b90506020935060ff929192191683830152151560051b010184806110eb565b6005600090815291507f036b6384b5eca791c62761152d0c79bb0604c104a5fb6f4eb0703f3154bb3db05b81831061146857505081016102040161108361105f565b80546102048488010152859350602090920191600101611451565b90506110ae9250611083916102049160ff191682860152151560051b840101915061105f565b634e487b7160e01b600052601160045260246000fd5b602090813d83116114e3575b6114d58183612072565b8101031261018d5780610f7d565b503d6114cb565b602090813d831161150e575b6115008183612072565b8101031261018d5781610f36565b503d6114f6565b602090813d8311611539575b61152b8183612072565b8101031261018d5782610eef565b503d611521565b015190508980610e7c565b600a60c09392935101928360005260206000209160005b601f19851681106115af57508360209693610ee0969360019360009a97601f19811610611597575b505050811b019055610e95565b0151891960f88460031b161c191690558a808061158a565b91926020600181928685015181550194019201611562565b600a60c051016000526020600020601f840160051c810160208510611609575b601f830160051c820181106115fd575050610e59565b600081556001016115e7565b50806115e7565b015190508780610e16565b90600960c0510192836000526020600020906000935b601f1984168510611672576001945083601f19811610611659575b505050811b019055610e30565b015160001960f88460031b161c1916905588808061164c565b81810151835560209485019460019093019290910190611631565b600960c051016000526020600020601f830160051c8101602084106116cf575b601f830160051c820181106116c3575050610dfc565b600081556001016116ad565b50806116ad565b015190508880610dba565b90600860c0510192836000526020600020906000935b601f1984168510611738576001945083601f1981161061171f575b505050811b019055610dd4565b015160001960f88460031b161c19169055898080611712565b818101518355602094850194600190930192909101906116f7565b600860c051016000526020600020601f830160051c810160208410611795575b601f830160051c82018110611789575050610da0565b60008155600101611773565b5080611773565b015190508980610d5e565b90600760c0510192836000526020600020906000935b601f19841685106117fe576001945083601f198116106117e5575b505050811b019055610d78565b015160001960f88460031b161c191690558a80806117d8565b818101518355602094850194600190930192909101906117bd565b600760c051016000526020600020601f830160051c81016020841061185b575b601f830160051c8201811061184f575050610d44565b60008155600101611839565b5080611839565b015190508a80610d02565b90600660c0510192836000526020600020906000935b601f19841685106118c4576001945083601f198116106118ab575b505050811b019055610d1c565b015160001960f88460031b161c191690558b808061189e565b81810151835560209485019460019093019290910190611883565b600660c051016000526020600020601f830160051c810160208410611921575b601f830160051c82018110611915575050610ce8565b600081556001016118ff565b50806118ff565b015190508b80610c78565b90600460c0510192836000526020600020906000935b601f198416851061198a576001945083601f19811610611971575b505050811b019055610c92565b015160001960f88460031b161c191690558c8080611964565b81810151835560209485019460019093019290910190611949565b600460c051016000526020600020601f830160051c8101602084106119e7575b601f830160051c820181106119db575050610c5e565b600081556001016119c5565b50806119c5565b015190508c80610c1c565b90600360c0510192836000526020600020906000935b601f1984168510611a50576001945083601f19811610611a37575b505050811b019055610c36565b015160001960f88460031b161c191690558d8080611a2a565b81810151835560209485019460019093019290910190611a0f565b600360c051016000526020600020601f830160051c810160208410611aad575b601f830160051c82018110611aa1575050610c02565b60008155600101611a8b565b5080611a8b565b3461018d57602036600319011261018d57611acd611fa2565b600254600091825b828110611f1d5750611ae683612f2e565b92611af46040519485612072565b808452611b03601f1991612f2e565b0160005b818110611e9d57505060009060005b838110611c9357846040518091602082016020835281518091526040830190602060408260051b8601019301916000905b828210611b5657505050500390f35b919360019193955060208091603f19898203018552875190848060a01b038251168152848060a01b03838301511683820152848060a01b036040830151166040820152611c5d611c49611c35611c21611c0d611bd8611bc56060808a0151906101e080918b0152890190611fdb565b6080808a015190898303908a0152611fdb565b611bea60a0808a015190890190612000565b60c08b8060a01b03818a0151169088015260e088015187820360e0890152611fdb565b610100808801519087830390880152611fdb565b610120808701519086830390870152611fdb565b610140808601519085830390860152611fdb565b610160808501519084830390850152611fdb565b9161018080820151908301526101a060ff8183015116908301526101c08091015115159101529601920192018594939192611b47565b6001600160a01b038216801590611e76575b611cb8575b611cb390612b16565b611b16565b60008181526001602081905260409182902080549181015460028201546005830154600c840154600d850154965197996009860198600787019891979096600883811c60ff90811698948116979596600684019692840195600a8501959194928516936004840193600301926001600160a01b039182169282169116611d3d8e61200d565b8d5260208d015260408c0152604051611d578180936122f2565b03611d629082612072565b60608b0152604051611d758180936122f2565b03611d809082612072565b60808a01526002811015611e6057611cb39b61015e611e05611e2996611df0611e589f8e611df76101009261015e611ddf61015e9f61015e9d611e179d60a088015260018060a01b039060081c1660c0870152604051928380926122f2565b60e0840152604051948580926122f2565b0384612072565b0152604051928380926122f2565b6101208b0152604051928380926122f2565b610140880152604051928380926122f2565b6101608501526101808401526101a083015215156101c0820152611e4d8289612f8f565b5261017a8188612f8f565b929050611caa565b634e487b7160e01b600052602160045260246000fd5b50600081815260016020819052604090912001546001600160a01b03838116911614611ca5565b602090604051611eac8161200d565b600081526000838201526000604082015260608080830152806080830152600060a0830152600060c08301528060e0830152806101008301528061012083015280610140830152610160820152600061018082015260006101a082015260006101c082015282828801015201611b07565b6001600160a01b038216801590611f57575b611f42575b611f3d90612b16565b611ad5565b92611f4f611f3d91612b16565b939050611f34565b50600081815260016020819052604090912001546001600160a01b03838116911614611f2f565b3461018d57600036600319011261018d576011546001600160a01b03168152602090f35b600435906001600160a01b038216820361018d57565b60005b838110611fcb5750506000910152565b8181015183820152602001611fbb565b90602091611ff481518092818552858086019101611fb8565b601f01601f1916010190565b906002821015611e605752565b6101e081019081106001600160401b038211176106e557604052565b6001600160401b0381116106e557604052565b604081019081106001600160401b038211176106e557604052565b602081019081106001600160401b038211176106e557604052565b90601f801991011681019081106001600160401b038211176106e557604052565b6001600160401b0381116106e557601f01601f191660200190565b81601f8201121561018d578035906120c582612093565b926120d36040519485612072565b8284526020838301011161018d57816000926020809301838601378301015290565b359063ffffffff8216820361018d57565b90600182811c92168015612136575b602083101461212057565b634e487b7160e01b600052602260045260246000fd5b91607f1691612115565b906000916000549061215182612106565b808252916001908181169081156121c7575060011461216f57505050565b91929350600080527f290decd9548b62a8d60345a988386fc84ba6bc95484008f6362f93160ef3e563916000925b8484106121af57505060209250010190565b8054602085850181019190915290930192810161219d565b915050602093945060ff929192191683830152151560051b010190565b600754600092916121f482612106565b808252916001908181169081156121c7575060011461221257505050565b9192935060076000527fa66cc928b5edb82af9bd49922954155ab7b0942694bea4ce44661d9a8736c688916000925b84841061225357505060209250010190565b80546020858501810191909152909301928101612241565b6009546000929161227b82612106565b808252916001908181169081156121c7575060011461229957505050565b9192935060096000527f6e1540171b6c0c960b71a7020d9f60077f6af931a8bbf590da0223dacf75c7af916000925b8484106122da57505060209250010190565b805460208585018101919091529093019281016122c8565b906000929180549161230383612106565b9182825260019384811690816000146123655750600114612325575b50505050565b90919394506000526020928360002092846000945b83861061235157505050500101903880808061231f565b80548587018301529401938590820161233a565b9294505050602093945060ff191683830152151560051b0101903880808061231f565b602080820190808352835180925260408301928160408460051b8301019501936000915b8483106123bc5750505050505090565b90919293949584806123da600193603f198682030187528a51611fdb565b98019301930191949392906123ac565b60405190604082018281106001600160401b038211176106e55760405260606020838281520152565b805482101561242f5760005260206000209060011b0190600090565b634e487b7160e01b600052603260045260246000fd5b8054680100000000000000008110156106e557612469906001928382018155612413565b61268f5782518051916001600160401b03928381116106e557849061248e8354612106565b93601f9485811161263e575b506020908583116001146125d5576020949291600091836125ca575b5050600019600383901b1c191690831b1781555b0194015180519283116106e5576124e18554612106565b828111612582575b50602091831160011461252257928293918392600094612517575b50501b916000199060031b1c1916179055565b015192503880612504565b90601f198316918560005283826000209360005b8782821061256957505010612550575b505050811b019055565b015160001960f88460031b161c19169055388080612546565b8486015187559095019460209485019487935001612536565b8560005260206000208380860160051c820192602087106125c1575b0160051c019085905b8281106125b55750506124e9565b600081550185906125a7565b9250819261259e565b0151905038806124b6565b90601f1983169185600052816000209260005b8181106126265750918593918560209896941061260d575b505050811b0181556124ca565b015160001960f88460031b161c19169055388080612600565b8284015185558a9690940193602093840193016125e8565b909192506000848152602081208680860160051c82019360208710612686575b908a9695949392910160051c01915b82811061267b57505061249a565b81815589950161266d565b9350819361265e565b634e487b7160e01b600052600060045260246000fd5b604051906126b28261203c565b60048252633ab9b2b960e11b6020830152565b90815260206040818301526101a0918260408201526000926005918254946126ec86612106565b806101e08401526001968781169081600014612a925750600114612a37575b5060065460000b6060830152612758612730603f1992838582030160808601526121e4565b60085463ffffffff811660a0860152871c60000b60c0850152828482030160e085015261226b565b600a546101008401528281038201610120840152600b546000949161277c82612106565b91828252888a82169182600014612a195750506001146129bf575b5050600c54610140840152600d546101608401528284038201610180840152600e546000946127c582612106565b91828252888a821691826000146129a1575050600114612947575b5050828403820190830152600f546000936127fa82612106565b918282528789821691826000146129275750506001146128c9575b50506101c0908284030191015260009360105461283181612106565b808452938183169182156128aa575050600114612850575b5050505090565b9293509060106000527f1b6847dc741a1b0cd08d278845f9d819d87b734759afb55fe2de5cb82a9ae67292846000945b8386106128965750505050010138808080612849565b805485870183015294019385908201612880565b925093929495505060ff1916848401521515901b010138808080612849565b8691929450600f6000527f8d1108e10bcb7c27dddfc02ed9d693a074039d026cf4ea4240b40f7d581ac80290886000925b85841061291157505001019290506101c038612815565b80548385018601528994909301928a91016128fa565b60ff191683820152921515871b90910190910193506101c0905038612815565b87929550600e6000527fbb7b4a454dc3493923482f07822329ed19e8244eff582cc204f8554c3620c3fd91896000935b82851061298b5750505001019238806127e0565b80548585018701528a95909401938b9101612977565b60ff191683820152921515881b9091019091019450389050806127e0565b87929550600b6000527f0175b7a638427703f0dbe7bb9bbf987a2551717b34e79f33b5b1008d1fa01db991896000935b828510612a03575050500101923880612797565b80548585018701528a95909401938b91016129ef565b60ff191683820152921515881b909101909101945038905080612797565b9050836000527f036b6384b5eca791c62761152d0c79bb0604c104a5fb6f4eb0703f3154bb3db085876000925b848410612a7c5750505061020091508201013861270b565b8054610200858801015201910190878791612a64565b9250506102009160ff1916828401521515841b8201013861270b565b15612ab557565b60405162461bcd60e51b815260206004820152601460248201527343616c6c6572206973206e6f74206f7261636c6560601b6044820152606490fd5b60405190612afe8261203c565b6009825268185cdcda5cdd185b9d60ba1b6020830152565b60001981146114a95760010190565b9190916000928184526020936001855260409182822094612b538451612b4a81612057565b84815282612fa3565b15612ea45750858101612b758151855190612b6d82612057565b858252612fa3565b15612c65575b5082810190612b918251855190612b6d82612057565b15612bc55750505050509050600d600c82015491019081549060ff82161115612bb8575050565b61ff001916610100179055565b829394955090612c10918793606060018060a01b0360045416935192015197612c228851998a9687958694634b04236b60e01b86526004860152606060248601526064850190611fdb565b83810360031901604485015290611fdb565b03925af1918215612c5b575050612c37575050565b813d8311612c54575b612c4a8183612072565b8101031261018d57565b503d612c40565b51903d90823e3d90fd5b612c89612c706123ea565b825189820152612c7e612af1565b8152600b8801612445565b600c8601612c978154612b16565b9055612cc88151855190612caa8261203c565b600d82526c2a32b1b420b3b2b73a1032379d60991b8a830152612ff8565b15612d515760018060a01b03601154169051813b15612d4d57612d0a84928392875194858094819363941fac3760e01b83528b60048401526044830190611fdb565b8b602483015203925af18015612d4357908391612d2b575b50505b38612b7b565b612d3490612029565b612d3f578138612d22565b5080fd5b84513d85823e3d90fd5b8380fd5b612d828151855190612d628261203c565b600f82526e29b7b1b4b0b620b3b2b73a1032379d60891b8a830152612ff8565b15612df75760018060a01b03601254169051813b15612d4d57612dc484928392875194858094819363941fac3760e01b83528b60048401526044830190611fdb565b8b602483015203925af18015612d4357908391612de3575b5050612d25565b612dec90612029565b612d3f578138612ddc565b612e298193929351855190612e0b8261203c565b600d82526c2230ba30a0b3b2b73a1032379d60991b8a830152612ff8565b612e35575b5090612d25565b60018060a01b03601354169051813b15612ea057612e7283928392875194858094819363941fac3760e01b83528b60048401526044830190611fdb565b8b602483015203925af18015612e965715612e2e57612e9090612029565b38612e2e565b84513d84823e3d90fd5b8280fd5b915050612ed09250600d949150612eb96123ea565b91612ec2612af1565b8352820152600b8301612445565b600c8101612ede8154612b16565b905501805461ff001916610100179055565b15612ef757565b60405162461bcd60e51b815260206004820152600f60248201526e149d5b881a5cc8199a5b9a5cda1959608a1b6044820152606490fd5b6001600160401b0381116106e55760051b60200190565b90612f4f82612f2e565b612f5c6040519182612072565b8281528092612f6d601f1991612f2e565b019060005b828110612f7e57505050565b806060602080938501015201612f72565b805182101561242f5760209160051b010190565b9060405191602092612fd1848281612fc48183019687815193849201611fb8565b8101038084520182612072565b51902091612ff1604051918281612fc48183019687815193849201611fb8565b5190201490565b90805161300481612093565b6130116040519182612072565b81815261301d82612093565b6020948286019391601f1901368537600090815b8381106130575750505050612fd1846040518093612fc483830196879251928391611fb8565b613082906001600160f81b031961306e8285613087565b5116841a61307c8288613087565b53612b16565b613031565b90815181101561242f57016020019056fea2646970667358221220cc09c6d00084f95d75f3746c0252eca3f477fde0ff577f05e532806d766d560564736f6c63430008110033290decd9548b62a8d60345a988386fc84ba6bc95484008f6362f93160ef3e563a66cc928b5edb82af9bd49922954155ab7b0942694bea4ce44661d9a8736c6886e1540171b6c0c960b71a7020d9f60077f6af931a8bbf590da0223dacf75c7af8d1108e10bcb7c27dddfc02ed9d693a074039d026cf4ea4240b40f7d581ac802",
  "devdoc": {
    "kind": "dev",
    "methods": {},
    "version": 1
  },
  "userdoc": {
    "kind": "user",
    "methods": {},
    "version": 1
  },
  "storageLayout": {
    "storage": [
      {
        "astId": 643,
        "contract": "contracts/LeadAgent.sol:LeadAgent",
        "label": "prompt",
        "offset": 0,
        "slot": "0",
        "type": "t_string_storage"
      },
      {
        "astId": 724,
        "contract": "contracts/LeadAgent.sol:LeadAgent",
        "label": "agentRuns",
        "offset": 0,
        "slot": "1",
        "type": "t_mapping(t_uint256,t_struct(AgentRun)687_storage)"
      },
      {
        "astId": 726,
        "contract": "contracts/LeadAgent.sol:LeadAgent",
        "label": "agentRunCount",
        "offset": 0,
        "slot": "2",
        "type": "t_uint256"
      },
      {
        "astId": 734,
        "contract": "contracts/LeadAgent.sol:LeadAgent",
        "label": "owner",
        "offset": 0,
        "slot": "3",
        "type": "t_address"
      },
      {
        "astId": 736,
        "contract": "contracts/LeadAgent.sol:LeadAgent",
        "label": "oracleAddress",
        "offset": 0,
        "slot": "4",
        "type": "t_address"
      },
      {
        "astId": 743,
        "contract": "contracts/LeadAgent.sol:LeadAgent",
        "label": "config",
        "offset": 0,
        "slot": "5",
        "type": "t_struct(OpenAiRequest)2016_storage"
      },
      {
        "astId": 746,
        "contract": "contracts/LeadAgent.sol:LeadAgent",
        "label": "techAgent",
        "offset": 0,
        "slot": "17",
        "type": "t_contract(IOpenAiChatGpt)1975"
      },
      {
        "astId": 749,
        "contract": "contracts/LeadAgent.sol:LeadAgent",
        "label": "socialAgent",
        "offset": 0,
        "slot": "18",
        "type": "t_contract(IOpenAiChatGpt)1975"
      },
      {
        "astId": 752,
        "contract": "contracts/LeadAgent.sol:LeadAgent",
        "label": "dataAgent",
        "offset": 0,
        "slot": "19",
        "type": "t_contract(IOpenAiChatGpt)1975"
      }
    ],
    "types": {
      "t_address": {
        "encoding": "inplace",
        "label": "address",
        "numberOfBytes": "20"
      },
      "t_array(t_struct(Message)648_storage)dyn_storage": {
        "base": "t_struct(Message)648_storage",
        "encoding": "dynamic_array",
        "label": "struct LeadAgent.Message[]",
        "numberOfBytes": "32"
      },
      "t_bool": {
        "encoding": "inplace",
        "label": "bool",
        "numberOfBytes": "1"
      },
      "t_contract(IOpenAiChatGpt)1975": {
        "encoding": "inplace",
        "label": "contract IOpenAiChatGpt",
        "numberOfBytes": "20"
      },
      "t_enum(Situation)651": {
        "encoding": "inplace",
        "label": "enum LeadAgent.Situation",
        "numberOfBytes": "1"
      },
      "t_int8": {
        "encoding": "inplace",
        "label": "int8",
        "numberOfBytes": "1"
      },
      "t_mapping(t_uint256,t_struct(AgentRun)687_storage)": {
        "encoding": "mapping",
        "key": "t_uint256",
        "label": "mapping(uint256 => struct LeadAgent.AgentRun)",
        "numberOfBytes": "32",
        "value": "t_struct(AgentRun)687_storage"
      },
      "t_string_storage": {
        "encoding": "bytes",
        "label": "string",
        "numberOfBytes": "32"
      },
      "t_struct(AgentRun)687_storage": {
        "encoding": "inplace",
        "label": "struct LeadAgent.AgentRun",
        "members": [
          {
            "astId": 653,
            "contract": "contracts/LeadAgent.sol:LeadAgent",
            "label": "owner",
            "offset": 0,
            "slot": "0",
            "type": "t_address"
          },
          {
            "astId": 655,
            "contract": "contracts/LeadAgent.sol:LeadAgent",
            "label": "creator",
            "offset": 0,
            "slot": "1",
            "type": "t_address"
          },
          {
            "astId": 657,
            "contract": "contracts/LeadAgent.sol:LeadAgent",
            "label": "target",
            "offset": 0,
            "slot": "2",
            "type": "t_address"
          },
          {
            "astId": 659,
            "contract": "contracts/LeadAgent.sol:LeadAgent",
            "label": "targetFirstName",
            "offset": 0,
            "slot": "3",
            "type": "t_string_storage"
          },
          {
            "astId": 661,
            "contract": "contracts/LeadAgent.sol:LeadAgent",
            "label": "targetFriend",
            "offset": 0,
            "slot": "4",
            "type": "t_string_storage"
          },
          {
            "astId": 664,
            "contract": "contracts/LeadAgent.sol:LeadAgent",
            "label": "situation",
            "offset": 0,
            "slot": "5",
            "type": "t_enum(Situation)651"
          },
          {
            "astId": 666,
            "contract": "contracts/LeadAgent.sol:LeadAgent",
            "label": "situationAddress",
            "offset": 1,
            "slot": "5",
            "type": "t_address"
          },
          {
            "astId": 668,
            "contract": "contracts/LeadAgent.sol:LeadAgent",
            "label": "publicInfo",
            "offset": 0,
            "slot": "6",
            "type": "t_string_storage"
          },
          {
            "astId": 670,
            "contract": "contracts/LeadAgent.sol:LeadAgent",
            "label": "privateInfo",
            "offset": 0,
            "slot": "7",
            "type": "t_string_storage"
          },
          {
            "astId": 672,
            "contract": "contracts/LeadAgent.sol:LeadAgent",
            "label": "groupTitle",
            "offset": 0,
            "slot": "8",
            "type": "t_string_storage"
          },
          {
            "astId": 674,
            "contract": "contracts/LeadAgent.sol:LeadAgent",
            "label": "groupImage",
            "offset": 0,
            "slot": "9",
            "type": "t_string_storage"
          },
          {
            "astId": 676,
            "contract": "contracts/LeadAgent.sol:LeadAgent",
            "label": "groupId",
            "offset": 0,
            "slot": "10",
            "type": "t_string_storage"
          },
          {
            "astId": 680,
            "contract": "contracts/LeadAgent.sol:LeadAgent",
            "label": "commands",
            "offset": 0,
            "slot": "11",
            "type": "t_array(t_struct(Message)648_storage)dyn_storage"
          },
          {
            "astId": 682,
            "contract": "contracts/LeadAgent.sol:LeadAgent",
            "label": "responsesCount",
            "offset": 0,
            "slot": "12",
            "type": "t_uint256"
          },
          {
            "astId": 684,
            "contract": "contracts/LeadAgent.sol:LeadAgent",
            "label": "max_iterations",
            "offset": 0,
            "slot": "13",
            "type": "t_uint8"
          },
          {
            "astId": 686,
            "contract": "contracts/LeadAgent.sol:LeadAgent",
            "label": "is_finished",
            "offset": 1,
            "slot": "13",
            "type": "t_bool"
          }
        ],
        "numberOfBytes": "448"
      },
      "t_struct(Message)648_storage": {
        "encoding": "inplace",
        "label": "struct LeadAgent.Message",
        "members": [
          {
            "astId": 645,
            "contract": "contracts/LeadAgent.sol:LeadAgent",
            "label": "role",
            "offset": 0,
            "slot": "0",
            "type": "t_string_storage"
          },
          {
            "astId": 647,
            "contract": "contracts/LeadAgent.sol:LeadAgent",
            "label": "content",
            "offset": 0,
            "slot": "1",
            "type": "t_string_storage"
          }
        ],
        "numberOfBytes": "64"
      },
      "t_struct(OpenAiRequest)2016_storage": {
        "encoding": "inplace",
        "label": "struct IOracle.OpenAiRequest",
        "members": [
          {
            "astId": 1991,
            "contract": "contracts/LeadAgent.sol:LeadAgent",
            "label": "model",
            "offset": 0,
            "slot": "0",
            "type": "t_string_storage"
          },
          {
            "astId": 1993,
            "contract": "contracts/LeadAgent.sol:LeadAgent",
            "label": "frequencyPenalty",
            "offset": 0,
            "slot": "1",
            "type": "t_int8"
          },
          {
            "astId": 1995,
            "contract": "contracts/LeadAgent.sol:LeadAgent",
            "label": "logitBias",
            "offset": 0,
            "slot": "2",
            "type": "t_string_storage"
          },
          {
            "astId": 1997,
            "contract": "contracts/LeadAgent.sol:LeadAgent",
            "label": "maxTokens",
            "offset": 0,
            "slot": "3",
            "type": "t_uint32"
          },
          {
            "astId": 1999,
            "contract": "contracts/LeadAgent.sol:LeadAgent",
            "label": "presencePenalty",
            "offset": 4,
            "slot": "3",
            "type": "t_int8"
          },
          {
            "astId": 2001,
            "contract": "contracts/LeadAgent.sol:LeadAgent",
            "label": "responseFormat",
            "offset": 0,
            "slot": "4",
            "type": "t_string_storage"
          },
          {
            "astId": 2003,
            "contract": "contracts/LeadAgent.sol:LeadAgent",
            "label": "seed",
            "offset": 0,
            "slot": "5",
            "type": "t_uint256"
          },
          {
            "astId": 2005,
            "contract": "contracts/LeadAgent.sol:LeadAgent",
            "label": "stop",
            "offset": 0,
            "slot": "6",
            "type": "t_string_storage"
          },
          {
            "astId": 2007,
            "contract": "contracts/LeadAgent.sol:LeadAgent",
            "label": "temperature",
            "offset": 0,
            "slot": "7",
            "type": "t_uint256"
          },
          {
            "astId": 2009,
            "contract": "contracts/LeadAgent.sol:LeadAgent",
            "label": "topP",
            "offset": 0,
            "slot": "8",
            "type": "t_uint256"
          },
          {
            "astId": 2011,
            "contract": "contracts/LeadAgent.sol:LeadAgent",
            "label": "tools",
            "offset": 0,
            "slot": "9",
            "type": "t_string_storage"
          },
          {
            "astId": 2013,
            "contract": "contracts/LeadAgent.sol:LeadAgent",
            "label": "toolChoice",
            "offset": 0,
            "slot": "10",
            "type": "t_string_storage"
          },
          {
            "astId": 2015,
            "contract": "contracts/LeadAgent.sol:LeadAgent",
            "label": "user",
            "offset": 0,
            "slot": "11",
            "type": "t_string_storage"
          }
        ],
        "numberOfBytes": "384"
      },
      "t_uint256": {
        "encoding": "inplace",
        "label": "uint256",
        "numberOfBytes": "32"
      },
      "t_uint32": {
        "encoding": "inplace",
        "label": "uint32",
        "numberOfBytes": "4"
      },
      "t_uint8": {
        "encoding": "inplace",
        "label": "uint8",
        "numberOfBytes": "1"
      }
    }
  }
}