{
  "address": "0xAf4d6F7Fc3aF0C943736131330315F00793165Eb",
  "abi": [
    {
      "inputs": [
        {
          "internalType": "address",
          "name": "initialOracleAddress",
          "type": "address"
        },
        {
          "internalType": "string",
          "name": "systemPrompt",
          "type": "string"
        },
        {
          "internalType": "address",
          "name": "techAgentFactoryAddress",
          "type": "address"
        },
        {
          "internalType": "address",
          "name": "socialAgentFactoryAddress",
          "type": "address"
        },
        {
          "internalType": "address",
          "name": "dataAgentFactoryAddress",
          "type": "address"
        }
      ],
      "stateMutability": "nonpayable",
      "type": "constructor"
    },
    {
      "anonymous": false,
      "inputs": [
        {
          "indexed": true,
          "internalType": "address",
          "name": "owner",
          "type": "address"
        },
        {
          "indexed": true,
          "internalType": "uint256",
          "name": "runId",
          "type": "uint256"
        }
      ],
      "name": "AgentRunCreated",
      "type": "event"
    },
    {
      "anonymous": false,
      "inputs": [
        {
          "indexed": true,
          "internalType": "address",
          "name": "newOracleAddress",
          "type": "address"
        }
      ],
      "name": "OracleAddressUpdated",
      "type": "event"
    },
    {
      "inputs": [
        {
          "internalType": "string",
          "name": "message",
          "type": "string"
        },
        {
          "internalType": "uint256",
          "name": "runId",
          "type": "uint256"
        }
      ],
      "name": "addMessage",
      "outputs": [],
      "stateMutability": "nonpayable",
      "type": "function"
    },
    {
      "inputs": [],
      "name": "agentRunCount",
      "outputs": [
        {
          "internalType": "uint256",
          "name": "",
          "type": "uint256"
        }
      ],
      "stateMutability": "view",
      "type": "function"
    },
    {
      "inputs": [
        {
          "internalType": "uint256",
          "name": "",
          "type": "uint256"
        }
      ],
      "name": "agentRuns",
      "outputs": [
        {
          "internalType": "address",
          "name": "owner",
          "type": "address"
        },
        {
          "internalType": "uint256",
          "name": "responsesCount",
          "type": "uint256"
        },
        {
          "internalType": "uint8",
          "name": "max_iterations",
          "type": "uint8"
        },
        {
          "internalType": "bool",
          "name": "is_finished",
          "type": "bool"
        }
      ],
      "stateMutability": "view",
      "type": "function"
    },
    {
      "inputs": [],
      "name": "dataAgent",
      "outputs": [
        {
          "internalType": "contract IOpenAiChatGpt",
          "name": "",
          "type": "address"
        }
      ],
      "stateMutability": "view",
      "type": "function"
    },
    {
      "inputs": [
        {
          "internalType": "address",
          "name": "_owner",
          "type": "address"
        }
      ],
      "name": "getAgentRunsForOwner",
      "outputs": [
        {
          "components": [
            {
              "internalType": "address",
              "name": "owner",
              "type": "address"
            },
            {
              "components": [
                {
                  "internalType": "string",
                  "name": "role",
                  "type": "string"
                },
                {
                  "internalType": "string",
                  "name": "content",
                  "type": "string"
                }
              ],
              "internalType": "struct LeadAgent.Message[]",
              "name": "commands",
              "type": "tuple[]"
            },
            {
              "internalType": "uint256",
              "name": "responsesCount",
              "type": "uint256"
            },
            {
              "internalType": "uint8",
              "name": "max_iterations",
              "type": "uint8"
            },
            {
              "internalType": "bool",
              "name": "is_finished",
              "type": "bool"
            }
          ],
          "internalType": "struct LeadAgent.AgentRun[]",
          "name": "",
          "type": "tuple[]"
        }
      ],
      "stateMutability": "view",
      "type": "function"
    },
    {
      "inputs": [
        {
          "internalType": "uint256",
          "name": "agentId",
          "type": "uint256"
        }
      ],
      "name": "getMessageHistoryContents",
      "outputs": [
        {
          "internalType": "string[]",
          "name": "",
          "type": "string[]"
        }
      ],
      "stateMutability": "view",
      "type": "function"
    },
    {
      "inputs": [
        {
          "internalType": "uint256",
          "name": "agentId",
          "type": "uint256"
        }
      ],
      "name": "getMessageHistoryRoles",
      "outputs": [
        {
          "internalType": "string[]",
          "name": "",
          "type": "string[]"
        }
      ],
      "stateMutability": "view",
      "type": "function"
    },
    {
      "inputs": [
        {
          "internalType": "uint256",
          "name": "runId",
          "type": "uint256"
        }
      ],
      "name": "isRunFinished",
      "outputs": [
        {
          "internalType": "bool",
          "name": "",
          "type": "bool"
        }
      ],
      "stateMutability": "view",
      "type": "function"
    },
    {
      "inputs": [
        {
          "internalType": "uint256",
          "name": "runId",
          "type": "uint256"
        },
        {
          "internalType": "string",
          "name": "response",
          "type": "string"
        },
        {
          "internalType": "string",
          "name": "errorMessage",
          "type": "string"
        }
      ],
      "name": "onOracleFunctionResponse",
      "outputs": [],
      "stateMutability": "nonpayable",
      "type": "function"
    },
    {
      "inputs": [
        {
          "internalType": "uint256",
          "name": "runId",
          "type": "uint256"
        },
        {
          "components": [
            {
              "internalType": "string",
              "name": "id",
              "type": "string"
            },
            {
              "internalType": "string",
              "name": "content",
              "type": "string"
            },
            {
              "internalType": "string",
              "name": "functionName",
              "type": "string"
            },
            {
              "internalType": "string",
              "name": "functionArguments",
              "type": "string"
            },
            {
              "internalType": "uint64",
              "name": "created",
              "type": "uint64"
            },
            {
              "internalType": "string",
              "name": "model",
              "type": "string"
            },
            {
              "internalType": "string",
              "name": "systemFingerprint",
              "type": "string"
            },
            {
              "internalType": "string",
              "name": "object",
              "type": "string"
            },
            {
              "internalType": "uint32",
              "name": "completionTokens",
              "type": "uint32"
            },
            {
              "internalType": "uint32",
              "name": "promptTokens",
              "type": "uint32"
            },
            {
              "internalType": "uint32",
              "name": "totalTokens",
              "type": "uint32"
            }
          ],
          "internalType": "struct IOracle.OpenAiResponse",
          "name": "response",
          "type": "tuple"
        },
        {
          "internalType": "string",
          "name": "errorMessage",
          "type": "string"
        }
      ],
      "name": "onOracleOpenAiLlmResponse",
      "outputs": [],
      "stateMutability": "nonpayable",
      "type": "function"
    },
    {
      "inputs": [],
      "name": "oracleAddress",
      "outputs": [
        {
          "internalType": "address",
          "name": "",
          "type": "address"
        }
      ],
      "stateMutability": "view",
      "type": "function"
    },
    {
      "inputs": [],
      "name": "prompt",
      "outputs": [
        {
          "internalType": "string",
          "name": "",
          "type": "string"
        }
      ],
      "stateMutability": "view",
      "type": "function"
    },
    {
      "inputs": [
        {
          "internalType": "string",
          "name": "query",
          "type": "string"
        },
        {
          "internalType": "uint8",
          "name": "max_iterations",
          "type": "uint8"
        },
        {
          "internalType": "string",
          "name": "techAgentPrompt",
          "type": "string"
        },
        {
          "internalType": "string",
          "name": "socialAgentPrompt",
          "type": "string"
        },
        {
          "internalType": "string",
          "name": "dataAgentPrompt",
          "type": "string"
        }
      ],
      "name": "runAgent",
      "outputs": [
        {
          "internalType": "uint256",
          "name": "",
          "type": "uint256"
        }
      ],
      "stateMutability": "nonpayable",
      "type": "function"
    },
    {
      "inputs": [
        {
          "internalType": "address",
          "name": "newOracleAddress",
          "type": "address"
        }
      ],
      "name": "setOracleAddress",
      "outputs": [],
      "stateMutability": "nonpayable",
      "type": "function"
    },
    {
      "inputs": [],
      "name": "socialAgent",
      "outputs": [
        {
          "internalType": "contract IOpenAiChatGpt",
          "name": "",
          "type": "address"
        }
      ],
      "stateMutability": "view",
      "type": "function"
    },
    {
      "inputs": [],
      "name": "techAgent",
      "outputs": [
        {
          "internalType": "contract IOpenAiChatGpt",
          "name": "",
          "type": "address"
        }
      ],
      "stateMutability": "view",
      "type": "function"
    }
  ],
  "transactionHash": "0x544b628754a55a679411caf7eb8c804ea2300c84ffeb2fc9c1b1d63d36d0fcc6",
  "args": [
    "0x68EC9556830AD097D661Df2557FBCeC166a0A075",
    "You are a helpful assistant",
    "0x0CC13bdBfC9300A6b7cD1E71863922661e67300C",
    "0x4f282c28161f98b072e6d875fe80bE82e92510fb",
    "0xEE1800557937fA878c16a4376BCd5E0fa4B4D8E6"
  ],
  "numDeployments": 2,
  "solcInputHash": "2efe0d6e8324b7bd1fac843a139d7aed",
  "bytecode": "0x60806040523480156200001157600080fd5b5060405162002aeb38038062002aeb833981016040819052620000349162000475565b60038054336001600160a01b031991821617909155600480549091166001600160a01b03871617905560006200006b858262000625565b506004805460405163e2079a8360e01b81526001600160a01b039182169281019290925284169063e2079a83906024016020604051808303816000875af1158015620000bb573d6000803e3d6000fd5b505050506040513d601f19601f82011682018060405250810190620000e19190620006f1565b601180546001600160a01b0319166001600160a01b0392831617905560048054604051630323981f60e11b81529083169181019190915290831690630647303e906024016020604051808303816000875af115801562000145573d6000803e3d6000fd5b505050506040513d601f19601f820116820180604052508101906200016b9190620006f1565b601280546001600160a01b0319166001600160a01b0392831617905560048054604051636fe93b6560e11b8152908316918101919091529082169063dfd276ca906024016020604051808303816000875af1158015620001cf573d6000803e3d6000fd5b505050506040513d601f19601f82011682018060405250810190620001f59190620006f1565b601380546001600160a01b0319166001600160a01b0392909216919091178155604080516101e0810182526101a081019283527f6770742d342d747572626f2d70726576696577000000000000000000000000006101c082015291825260156020808401829052825180820184526000808252858501919091526103e86060860152608085019290925282518084018452600f81526e7b2274797065223a2274657874227d60881b8183015260a085015260c084018290528251808201845291825260e0840191909152600a6101008401526065610120840152815161020081019092526101d3808352610140840192916200291890830139815260408051808201825260048152636175746f60e01b6020828101919091528084019190915281519081018252600081529101528051600590819062000336908262000625565b50602082015160018201805460ff191660ff9092169190911790556040820151600282019062000367908262000625565b506060820151600382018054608085015160ff166401000000000264ffffffffff1990911663ffffffff9093169290921791909117905560a08201516004820190620003b4908262000625565b5060c0820151600582015560e08201516006820190620003d5908262000625565b5061010082015160078201556101208201516008820155610140820151600982019062000403908262000625565b50610160820151600a8201906200041b908262000625565b50610180820151600b82019062000433908262000625565b50905050505050505062000716565b80516001600160a01b03811681146200045a57600080fd5b919050565b634e487b7160e01b600052604160045260246000fd5b600080600080600060a086880312156200048e57600080fd5b620004998662000442565b602087810151919650906001600160401b0380821115620004b957600080fd5b818901915089601f830112620004ce57600080fd5b815181811115620004e357620004e36200045f565b604051601f8201601f19908116603f011681019083821181831017156200050e576200050e6200045f565b816040528281528c868487010111156200052757600080fd5b600093505b828410156200054b57848401860151818501870152928501926200052c565b60008684830101528099505050505050506200056a6040870162000442565b92506200057a6060870162000442565b91506200058a6080870162000442565b90509295509295909350565b600181811c90821680620005ab57607f821691505b602082108103620005cc57634e487b7160e01b600052602260045260246000fd5b50919050565b601f8211156200062057600081815260208120601f850160051c81016020861015620005fb5750805b601f850160051c820191505b818110156200061c5782815560010162000607565b5050505b505050565b81516001600160401b038111156200064157620006416200045f565b620006598162000652845462000596565b84620005d2565b602080601f831160018114620006915760008415620006785750858301515b600019600386901b1c1916600185901b1785556200061c565b600085815260208120601f198616915b82811015620006c257888601518255948401946001909101908401620006a1565b5085821015620006e15787850151600019600388901b60f8161c191681555b5050505050600190811b01905550565b6000602082840312156200070457600080fd5b6200070f8262000442565b9392505050565b6121f280620007266000396000f3fe608060405234801561001057600080fd5b50600436106101005760003560e01c80637c65d71111610097578063c63b029511610066578063c63b02951461024d578063dade4cf9146102c6578063eb17429a146102cf578063ed6e39e5146102ef57600080fd5b80637c65d711146101ff578063941fac3714610214578063a89ae4ba14610227578063b75f07e41461023a57600080fd5b806355670675116100d357806355670675146101985780635923400b146101b9578063597fba34146101cc5780637397454d146101ec57600080fd5b806304495a3b146101055780632eab9c81146101355780634c69c00f146101705780634cecd88e14610185575b600080fd5b601154610118906001600160a01b031681565b6040516001600160a01b0390911681526020015b60405180910390f35b6101606101433660046117af565b600090815260016020526040902060030154610100900460ff1690565b604051901515815260200161012c565b61018361017e3660046117c8565b610302565b005b6101836101933660046118f6565b6103fb565b6101ab6101a6366004611ab1565b61086c565b60405190815260200161012c565b601354610118906001600160a01b031681565b6101df6101da3660046117c8565b610c65565b60405161012c9190611bc9565b6101836101fa366004611cdf565b610f76565b610207611157565b60405161012c9190611d35565b610183610222366004611d48565b6111e5565b600454610118906001600160a01b031681565b601254610118906001600160a01b031681565b61029261025b3660046117af565b6001602052600090815260409020805460028201546003909201546001600160a01b03909116919060ff8082169161010090041684565b604080516001600160a01b039095168552602085019390935260ff909116918301919091521515606082015260800161012c565b6101ab60025481565b6102e26102dd3660046117af565b61135d565b60405161012c9190611d8d565b6102e26102fd3660046117af565b6114d3565b6003546001600160a01b031633146103575760405162461bcd60e51b815260206004820152601360248201527221b0b63632b91034b9903737ba1037bbb732b960691b60448201526064015b60405180910390fd5b6003546001600160a01b031633146103b15760405162461bcd60e51b815260206004820152601760248201527f43616c6c6572206973206e6f7420746865206f776e6572000000000000000000604482015260640161034e565b600480546001600160a01b0319166001600160a01b0383169081179091556040517f107a9fafffb7ac890f780879e423760c9ffea8dcee8045681f40f542aede2cb890600090a250565b6004546001600160a01b0316331461044c5760405162461bcd60e51b815260206004820152601460248201527343616c6c6572206973206e6f74206f7261636c6560601b604482015260640161034e565b60008381526001602090815260408083208151928301909152918152610473908390611642565b610525576040805180820182526060808252602080830191825283518085019094526009845268185cdcda5cdd185b9d60ba1b8482015292825284905260018381018054918201815560009081529290922081519192839260029091029091019081906104e09082611e77565b50602082015160018201906104f59082611e77565b50505060028201805490600061050a83611f4d565b909155505050600301805461ff001916610100179055505050565b610542836020015160405180602001604052806000815250611642565b61079557604080518082019091526060808252602082015260208085015182820152604080518082019091526009815268185cdcda5cdd185b9d60ba1b818301528252600180840180549182018155600090815291909120825183926002029091019081906105b19082611e77565b50602082015160018201906105c69082611e77565b5050506002820180549060006105db83611f4d565b919050555061061384602001516040518060400160405280600d81526020016c2a32b1b420b3b2b73a1032379d60991b81525061169c565b1561068457601154602085015160405163941fac3760e01b81526001600160a01b039092169163941fac379161064d918990600401611f66565b600060405180830381600087803b15801561066757600080fd5b505af115801561067b573d6000803e3d6000fd5b50505050610793565b6106b984602001516040518060400160405280600f81526020016e29b7b1b4b0b620b3b2b73a1032379d60891b81525061169c565b156106f357601254602085015160405163941fac3760e01b81526001600160a01b039092169163941fac379161064d918990600401611f66565b61072684602001516040518060400160405280600d81526020016c2230ba30a0b3b2b73a1032379d60991b81525061169c565b1561079357601354602085015160405163941fac3760e01b81526001600160a01b039092169163941fac3791610760918990600401611f66565b600060405180830381600087803b15801561077a57600080fd5b505af115801561078e573d6000803e3d6000fd5b505050505b505b6107b2836040015160405180602001604052806000815250611642565b61083c576004805460408086015160608701519151634b04236b60e01b81526001600160a01b0390931693634b04236b936107f2938a9392909101611f88565b6020604051808303816000875af1158015610811573d6000803e3d6000fd5b505050506040513d601f19601f820116820180604052508101906108359190611fbd565b5050505050565b6003810154600282015460ff9091161161086557600301805461ff001916610100179055505050565b505b505050565b600280546000818152600160205260408082208054336001600160a01b031990911617815560038101805495820184905561ffff1990951660ff8a161790945560115490516316846c1560e11b81529193916001600160a01b0390911690632d08d82a906108de908990600401611d35565b6020604051808303816000875af11580156108fd573d6000803e3d6000fd5b505050506040513d601f19601f820116820180604052508101906109219190611fbd565b506012546040516316846c1560e11b81526001600160a01b0390911690632d08d82a90610952908890600401611d35565b6020604051808303816000875af1158015610971573d6000803e3d6000fd5b505050506040513d601f19601f820116820180604052508101906109959190611fbd565b506013546040516316846c1560e11b81526001600160a01b0390911690632d08d82a906109c6908790600401611d35565b6020604051808303816000875af11580156109e5573d6000803e3d6000fd5b505050506040513d601f19601f82011682018060405250810190610a099190611fbd565b50604080518082019091526060808252602082015260008054610a2b90611def565b80601f0160208091040260200160405190810160405280929190818152602001828054610a5790611def565b8015610aa45780601f10610a7957610100808354040283529160200191610aa4565b820191906000526020600020905b815481529060010190602001808311610a8757829003601f168201915b505050506020808401929092525060408051808201909152600681526573797374656d60d01b81830152825260018084018054918201815560009081529190912082518392600202909101908190610afc9082611e77565b5060208201516001820190610b119082611e77565b505050610b31604051806040016040528060608152602001606081525090565b60208082018b90526040805180820190915260048152633ab9b2b960e11b81830152825260018085018054918201815560009081529190912082518392600202909101908190610b819082611e77565b5060208201516001820190610b969082611e77565b5050600254610ba791506001611fd6565b60025560048054604051633c38a5f560e01b81526001600160a01b0390911691633c38a5f591610bdc91889160059101612066565b6020604051808303816000875af1158015610bfb573d6000803e3d6000fd5b505050506040513d601f19601f82011682018060405250810190610c1f9190611fbd565b50825460405185916001600160a01b0316907f9697c88a6be3b3ed5062f2dcbd719a10914832320686f14e24f7756210a6685e90600090a3509198975050505050505050565b60606000805b600254811015610cb6576000818152600160205260409020546001600160a01b03808616911603610ca45781610ca081611f4d565b9250505b80610cae81611f4d565b915050610c6b565b5060008167ffffffffffffffff811115610cd257610cd26117f8565b604051908082528060200260200182016040528015610d2b57816020015b6040805160a081018252600080825260606020808401829052938301829052820181905260808201528252600019909201910181610cf05790505b5090506000805b600254811015610f6c576000818152600160205260409020546001600160a01b03808816911603610f5a576000818152600160208181526040808420815160a08101835281546001600160a01b03168152938101805483518186028101860190945280845294959194868501949192909184015b82821015610efc5783829060005260206000209060020201604051806040016040529081600082018054610dd990611def565b80601f0160208091040260200160405190810160405280929190818152602001828054610e0590611def565b8015610e525780601f10610e2757610100808354040283529160200191610e52565b820191906000526020600020905b815481529060010190602001808311610e3557829003601f168201915b50505050508152602001600182018054610e6b90611def565b80601f0160208091040260200160405190810160405280929190818152602001828054610e9790611def565b8015610ee45780601f10610eb957610100808354040283529160200191610ee4565b820191906000526020600020905b815481529060010190602001808311610ec757829003601f168201915b50505050508152505081526020019060010190610da6565b505050908252506002820154602082015260039091015460ff80821660408401526101009091041615156060909101528351849084908110610f4057610f40612177565b60200260200101819052508180610f5690611f4d565b9250505b80610f6481611f4d565b915050610d32565b5090949350505050565b6004546001600160a01b03163314610fc75760405162461bcd60e51b815260206004820152601460248201527343616c6c6572206973206e6f74206f7261636c6560601b604482015260640161034e565b60008381526001602052604090206003810154610100900460ff16156110215760405162461bcd60e51b815260206004820152600f60248201526e149d5b881a5cc8199a5b9a5cda1959608a1b604482015260640161034e565b600083905061103f8360405180602001604052806000815250611642565b6110465750815b60408051808201825260608082526020808301918252835180850190945260048452633ab9b2b960e11b8482015292825283905260018481018054918201815560009081529290922081519192839260029091029091019081906110aa9082611e77565b50602082015160018201906110bf9082611e77565b5050506002830180549060006110d483611f4d565b909155505060048054604051633c38a5f560e01b81526001600160a01b0390911691633c38a5f59161110b918a9160059101612066565b6020604051808303816000875af115801561112a573d6000803e3d6000fd5b505050506040513d601f19601f8201168201806040525081019061114e9190611fbd565b50505050505050565b6000805461116490611def565b80601f016020809104026020016040519081016040528092919081815260200182805461119090611def565b80156111dd5780601f106111b2576101008083540402835291602001916111dd565b820191906000526020600020905b8154815290600101906020018083116111c057829003601f168201915b505050505081565b60008181526001602052604090206003810154610100900460ff161561123f5760405162461bcd60e51b815260206004820152600f60248201526e149d5b881a5cc8199a5b9a5cda1959608a1b604482015260640161034e565b80546001600160a01b031633146112985760405162461bcd60e51b815260206004820152601f60248201527f4f6e6c792072756e206f776e65722063616e2061646420636f6d6d616e647300604482015260640161034e565b60408051808201825260608082526020808301918252835180850190945260048452633ab9b2b960e11b8482015292825285905260018381018054918201815560009081529290922081519192839260029091029091019081906112fc9082611e77565b50602082015160018201906113119082611e77565b50505060028201805490600061132683611f4d565b909155505060048054604051633c38a5f560e01b81526001600160a01b0390911691633c38a5f5916107f291879160059101612066565b6000818152600160208190526040822001546060919067ffffffffffffffff81111561138b5761138b6117f8565b6040519080825280602002602001820160405280156113be57816020015b60608152602001906001900390816113a95790505b50905060005b600084815260016020819052604090912001548110156114cc5760008481526001602081905260409091200180548290811061140257611402612177565b9060005260206000209060020201600101805461141e90611def565b80601f016020809104026020016040519081016040528092919081815260200182805461144a90611def565b80156114975780601f1061146c57610100808354040283529160200191611497565b820191906000526020600020905b81548152906001019060200180831161147a57829003601f168201915b50505050508282815181106114ae576114ae612177565b602002602001018190525080806114c490611f4d565b9150506113c4565b5092915050565b6000818152600160208190526040822001546060919067ffffffffffffffff811115611501576115016117f8565b60405190808252806020026020018201604052801561153457816020015b606081526020019060019003908161151f5790505b50905060005b600084815260016020819052604090912001548110156114cc5760008481526001602081905260409091200180548290811061157857611578612177565b9060005260206000209060020201600001805461159490611def565b80601f01602080910402602001604051908101604052809291908181526020018280546115c090611def565b801561160d5780601f106115e25761010080835404028352916020019161160d565b820191906000526020600020905b8154815290600101906020018083116115f057829003601f168201915b505050505082828151811061162457611624612177565b6020026020010181905250808061163a90611f4d565b91505061153a565b600081604051602001611655919061218d565b604051602081830303815290604052805190602001208360405160200161167c919061218d565b604051602081830303815290604052805190602001201490505b92915050565b6000816040516020016116af919061218d565b604051602081830303815290604052805190602001206116d284600085516116e2565b60405160200161167c919061218d565b60608360006116f185856121a9565b67ffffffffffffffff811115611709576117096117f8565b6040519080825280601f01601f191660200182016040528015611733576020820181803683370190505b509050845b848110156117a55782818151811061175257611752612177565b01602001516001600160f81b0319168261176c88846121a9565b8151811061177c5761177c612177565b60200101906001600160f81b031916908160001a9053508061179d81611f4d565b915050611738565b5095945050505050565b6000602082840312156117c157600080fd5b5035919050565b6000602082840312156117da57600080fd5b81356001600160a01b03811681146117f157600080fd5b9392505050565b634e487b7160e01b600052604160045260246000fd5b604051610160810167ffffffffffffffff81118282101715611832576118326117f8565b60405290565b600082601f83011261184957600080fd5b813567ffffffffffffffff80821115611864576118646117f8565b604051601f8301601f19908116603f0116810190828211818310171561188c5761188c6117f8565b816040528381528660208588010111156118a557600080fd5b836020870160208301376000602085830101528094505050505092915050565b803567ffffffffffffffff811681146118dd57600080fd5b919050565b803563ffffffff811681146118dd57600080fd5b60008060006060848603121561190b57600080fd5b83359250602084013567ffffffffffffffff8082111561192a57600080fd5b90850190610160828803121561193f57600080fd5b61194761180e565b82358281111561195657600080fd5b61196289828601611838565b82525060208301358281111561197757600080fd5b61198389828601611838565b60208301525060408301358281111561199b57600080fd5b6119a789828601611838565b6040830152506060830135828111156119bf57600080fd5b6119cb89828601611838565b6060830152506119dd608084016118c5565b608082015260a0830135828111156119f457600080fd5b611a0089828601611838565b60a08301525060c083013582811115611a1857600080fd5b611a2489828601611838565b60c08301525060e083013582811115611a3c57600080fd5b611a4889828601611838565b60e083015250610100611a5c8185016118e2565b90820152610120611a6e8482016118e2565b90820152610140611a808482016118e2565b9082015293506040860135915080821115611a9a57600080fd5b50611aa786828701611838565b9150509250925092565b600080600080600060a08688031215611ac957600080fd5b853567ffffffffffffffff80821115611ae157600080fd5b611aed89838a01611838565b96506020880135915060ff82168214611b0557600080fd5b90945060408701359080821115611b1b57600080fd5b611b2789838a01611838565b94506060880135915080821115611b3d57600080fd5b611b4989838a01611838565b93506080880135915080821115611b5f57600080fd5b50611b6c88828901611838565b9150509295509295909350565b60005b83811015611b94578181015183820152602001611b7c565b50506000910152565b60008151808452611bb5816020860160208601611b79565b601f01601f19169290920160200192915050565b60006020808301818452808551808352604092508286019150828160051b87010184880160005b83811015611cd157888303603f19018552815180516001600160a01b031684528781015160a0898601819052815190860181905260c080870192600583901b880190910191908b019060005b81811015611c8d5788840360bf19018552825180518d8652611c608e870182611b9d565b90508e82015191508581038f870152611c798183611b9d565b968f019695505050918c0191600101611c3c565b50505088830151898701526060915081830151611cae8388018260ff169052565b506080928301511515959092019490945294870194925090860190600101611bf0565b509098975050505050505050565b600080600060608486031215611cf457600080fd5b83359250602084013567ffffffffffffffff80821115611d1357600080fd5b611d1f87838801611838565b93506040860135915080821115611a9a57600080fd5b6020815260006117f16020830184611b9d565b60008060408385031215611d5b57600080fd5b823567ffffffffffffffff811115611d7257600080fd5b611d7e85828601611838565b95602094909401359450505050565b6000602080830181845280855180835260408601915060408160051b870101925083870160005b82811015611de257603f19888603018452611dd0858351611b9d565b94509285019290850190600101611db4565b5092979650505050505050565b600181811c90821680611e0357607f821691505b602082108103611e2357634e487b7160e01b600052602260045260246000fd5b50919050565b601f82111561086757600081815260208120601f850160051c81016020861015611e505750805b601f850160051c820191505b81811015611e6f57828155600101611e5c565b505050505050565b815167ffffffffffffffff811115611e9157611e916117f8565b611ea581611e9f8454611def565b84611e29565b602080601f831160018114611eda5760008415611ec25750858301515b600019600386901b1c1916600185901b178555611e6f565b600085815260208120601f198616915b82811015611f0957888601518255948401946001909101908401611eea565b5085821015611f275787850151600019600388901b60f8161c191681555b5050505050600190811b01905550565b634e487b7160e01b600052601160045260246000fd5b600060018201611f5f57611f5f611f37565b5060010190565b604081526000611f796040830185611b9d565b90508260208301529392505050565b838152606060208201526000611fa16060830185611b9d565b8281036040840152611fb38185611b9d565b9695505050505050565b600060208284031215611fcf57600080fd5b5051919050565b8082018082111561169657611696611f37565b60008154611ff681611def565b808552602060018381168015612013576001811461202d5761205b565b60ff1985168884015283151560051b88018301955061205b565b866000528260002060005b858110156120535781548a8201860152908301908401612038565b890184019650505b505050505092915050565b8281526040602082015260006101a08060408401526120896101e0840185611fe9565b600185015460000b6060850152603f19848203810160808601526120b08260028801611fe9565b600387015463ffffffff811660a088015260201c60000b60c0870152858103820160e087015291506120e58260048801611fe9565b91506005860154610100860152808583030161012086015261210a8260068801611fe9565b915060078601546101408601526008860154610160860152808583030161018086015261213a8260098801611fe9565b915080858303018386015261215282600a8801611fe9565b925080858403016101c0860152505061216e81600b8601611fe9565b95945050505050565b634e487b7160e01b600052603260045260246000fd5b6000825161219f818460208701611b79565b9190910192915050565b8181038181111561169657611696611f3756fea2646970667358221220882cdff8e5b828aefcfd0e027daf2b70199643fb01dff6c1db4633829ba5198a64736f6c634300081100335b7b2274797065223a2266756e6374696f6e222c2266756e6374696f6e223a7b226e616d65223a227765625f736561726368222c226465736372697074696f6e223a225365617263682074686520696e7465726e6574222c22706172616d6574657273223a7b2274797065223a226f626a656374222c2270726f70657274696573223a7b227175657279223a7b2274797065223a22737472696e67222c226465736372697074696f6e223a22536561726368207175657279227d7d2c227265717569726564223a5b227175657279225d7d7d7d2c7b2274797065223a2266756e6374696f6e222c2266756e6374696f6e223a7b226e616d65223a22696d6167655f67656e65726174696f6e222c226465736372697074696f6e223a2247656e65726174657320616e20696d616765207573696e672044616c6c652d32222c22706172616d6574657273223a7b2274797065223a226f626a656374222c2270726f70657274696573223a7b2270726f6d7074223a7b2274797065223a22737472696e67222c226465736372697074696f6e223a2244616c6c652d322070726f6d707420746f2067656e657261746520616e20696d616765227d7d2c227265717569726564223a5b2270726f6d7074225d7d7d7d5d",
  "devdoc": {
    "kind": "dev",
    "methods": {},
    "version": 1
  },
  "userdoc": {
    "kind": "user",
    "methods": {},
    "version": 1
  },
  "storageLayout": {
    "storage": [
      {
        "astId": 872,
        "contract": "contracts/LeadAgent.sol:LeadAgent",
        "label": "prompt",
        "offset": 0,
        "slot": "0",
        "type": "t_string_storage"
      },
      {
        "astId": 895,
        "contract": "contracts/LeadAgent.sol:LeadAgent",
        "label": "agentRuns",
        "offset": 0,
        "slot": "1",
        "type": "t_mapping(t_uint256,t_struct(AgentRun)890_storage)"
      },
      {
        "astId": 897,
        "contract": "contracts/LeadAgent.sol:LeadAgent",
        "label": "agentRunCount",
        "offset": 0,
        "slot": "2",
        "type": "t_uint256"
      },
      {
        "astId": 905,
        "contract": "contracts/LeadAgent.sol:LeadAgent",
        "label": "owner",
        "offset": 0,
        "slot": "3",
        "type": "t_address"
      },
      {
        "astId": 907,
        "contract": "contracts/LeadAgent.sol:LeadAgent",
        "label": "oracleAddress",
        "offset": 0,
        "slot": "4",
        "type": "t_address"
      },
      {
        "astId": 914,
        "contract": "contracts/LeadAgent.sol:LeadAgent",
        "label": "config",
        "offset": 0,
        "slot": "5",
        "type": "t_struct(OpenAiRequest)2025_storage"
      },
      {
        "astId": 917,
        "contract": "contracts/LeadAgent.sol:LeadAgent",
        "label": "techAgent",
        "offset": 0,
        "slot": "17",
        "type": "t_contract(IOpenAiChatGpt)1984"
      },
      {
        "astId": 920,
        "contract": "contracts/LeadAgent.sol:LeadAgent",
        "label": "socialAgent",
        "offset": 0,
        "slot": "18",
        "type": "t_contract(IOpenAiChatGpt)1984"
      },
      {
        "astId": 923,
        "contract": "contracts/LeadAgent.sol:LeadAgent",
        "label": "dataAgent",
        "offset": 0,
        "slot": "19",
        "type": "t_contract(IOpenAiChatGpt)1984"
      }
    ],
    "types": {
      "t_address": {
        "encoding": "inplace",
        "label": "address",
        "numberOfBytes": "20"
      },
      "t_array(t_struct(Message)877_storage)dyn_storage": {
        "base": "t_struct(Message)877_storage",
        "encoding": "dynamic_array",
        "label": "struct LeadAgent.Message[]",
        "numberOfBytes": "32"
      },
      "t_bool": {
        "encoding": "inplace",
        "label": "bool",
        "numberOfBytes": "1"
      },
      "t_contract(IOpenAiChatGpt)1984": {
        "encoding": "inplace",
        "label": "contract IOpenAiChatGpt",
        "numberOfBytes": "20"
      },
      "t_int8": {
        "encoding": "inplace",
        "label": "int8",
        "numberOfBytes": "1"
      },
      "t_mapping(t_uint256,t_struct(AgentRun)890_storage)": {
        "encoding": "mapping",
        "key": "t_uint256",
        "label": "mapping(uint256 => struct LeadAgent.AgentRun)",
        "numberOfBytes": "32",
        "value": "t_struct(AgentRun)890_storage"
      },
      "t_string_storage": {
        "encoding": "bytes",
        "label": "string",
        "numberOfBytes": "32"
      },
      "t_struct(AgentRun)890_storage": {
        "encoding": "inplace",
        "label": "struct LeadAgent.AgentRun",
        "members": [
          {
            "astId": 879,
            "contract": "contracts/LeadAgent.sol:LeadAgent",
            "label": "owner",
            "offset": 0,
            "slot": "0",
            "type": "t_address"
          },
          {
            "astId": 883,
            "contract": "contracts/LeadAgent.sol:LeadAgent",
            "label": "commands",
            "offset": 0,
            "slot": "1",
            "type": "t_array(t_struct(Message)877_storage)dyn_storage"
          },
          {
            "astId": 885,
            "contract": "contracts/LeadAgent.sol:LeadAgent",
            "label": "responsesCount",
            "offset": 0,
            "slot": "2",
            "type": "t_uint256"
          },
          {
            "astId": 887,
            "contract": "contracts/LeadAgent.sol:LeadAgent",
            "label": "max_iterations",
            "offset": 0,
            "slot": "3",
            "type": "t_uint8"
          },
          {
            "astId": 889,
            "contract": "contracts/LeadAgent.sol:LeadAgent",
            "label": "is_finished",
            "offset": 1,
            "slot": "3",
            "type": "t_bool"
          }
        ],
        "numberOfBytes": "128"
      },
      "t_struct(Message)877_storage": {
        "encoding": "inplace",
        "label": "struct LeadAgent.Message",
        "members": [
          {
            "astId": 874,
            "contract": "contracts/LeadAgent.sol:LeadAgent",
            "label": "role",
            "offset": 0,
            "slot": "0",
            "type": "t_string_storage"
          },
          {
            "astId": 876,
            "contract": "contracts/LeadAgent.sol:LeadAgent",
            "label": "content",
            "offset": 0,
            "slot": "1",
            "type": "t_string_storage"
          }
        ],
        "numberOfBytes": "64"
      },
      "t_struct(OpenAiRequest)2025_storage": {
        "encoding": "inplace",
        "label": "struct IOracle.OpenAiRequest",
        "members": [
          {
            "astId": 2000,
            "contract": "contracts/LeadAgent.sol:LeadAgent",
            "label": "model",
            "offset": 0,
            "slot": "0",
            "type": "t_string_storage"
          },
          {
            "astId": 2002,
            "contract": "contracts/LeadAgent.sol:LeadAgent",
            "label": "frequencyPenalty",
            "offset": 0,
            "slot": "1",
            "type": "t_int8"
          },
          {
            "astId": 2004,
            "contract": "contracts/LeadAgent.sol:LeadAgent",
            "label": "logitBias",
            "offset": 0,
            "slot": "2",
            "type": "t_string_storage"
          },
          {
            "astId": 2006,
            "contract": "contracts/LeadAgent.sol:LeadAgent",
            "label": "maxTokens",
            "offset": 0,
            "slot": "3",
            "type": "t_uint32"
          },
          {
            "astId": 2008,
            "contract": "contracts/LeadAgent.sol:LeadAgent",
            "label": "presencePenalty",
            "offset": 4,
            "slot": "3",
            "type": "t_int8"
          },
          {
            "astId": 2010,
            "contract": "contracts/LeadAgent.sol:LeadAgent",
            "label": "responseFormat",
            "offset": 0,
            "slot": "4",
            "type": "t_string_storage"
          },
          {
            "astId": 2012,
            "contract": "contracts/LeadAgent.sol:LeadAgent",
            "label": "seed",
            "offset": 0,
            "slot": "5",
            "type": "t_uint256"
          },
          {
            "astId": 2014,
            "contract": "contracts/LeadAgent.sol:LeadAgent",
            "label": "stop",
            "offset": 0,
            "slot": "6",
            "type": "t_string_storage"
          },
          {
            "astId": 2016,
            "contract": "contracts/LeadAgent.sol:LeadAgent",
            "label": "temperature",
            "offset": 0,
            "slot": "7",
            "type": "t_uint256"
          },
          {
            "astId": 2018,
            "contract": "contracts/LeadAgent.sol:LeadAgent",
            "label": "topP",
            "offset": 0,
            "slot": "8",
            "type": "t_uint256"
          },
          {
            "astId": 2020,
            "contract": "contracts/LeadAgent.sol:LeadAgent",
            "label": "tools",
            "offset": 0,
            "slot": "9",
            "type": "t_string_storage"
          },
          {
            "astId": 2022,
            "contract": "contracts/LeadAgent.sol:LeadAgent",
            "label": "toolChoice",
            "offset": 0,
            "slot": "10",
            "type": "t_string_storage"
          },
          {
            "astId": 2024,
            "contract": "contracts/LeadAgent.sol:LeadAgent",
            "label": "user",
            "offset": 0,
            "slot": "11",
            "type": "t_string_storage"
          }
        ],
        "numberOfBytes": "384"
      },
      "t_uint256": {
        "encoding": "inplace",
        "label": "uint256",
        "numberOfBytes": "32"
      },
      "t_uint32": {
        "encoding": "inplace",
        "label": "uint32",
        "numberOfBytes": "4"
      },
      "t_uint8": {
        "encoding": "inplace",
        "label": "uint8",
        "numberOfBytes": "1"
      }
    }
  }
}