{
  "address": "0x757316e28782Dd74414FE0affF55c80177aD3B61",
  "abi": [
    {
      "inputs": [
        {
          "internalType": "address",
          "name": "initialOracleAddress",
          "type": "address"
        },
        {
          "internalType": "string",
          "name": "systemPrompt",
          "type": "string"
        },
        {
          "internalType": "address",
          "name": "techAgentFactoryAddress",
          "type": "address"
        },
        {
          "internalType": "address",
          "name": "socialAgentFactoryAddress",
          "type": "address"
        },
        {
          "internalType": "address",
          "name": "dataAgentFactoryAddress",
          "type": "address"
        }
      ],
      "stateMutability": "nonpayable",
      "type": "constructor"
    },
    {
      "anonymous": false,
      "inputs": [
        {
          "indexed": true,
          "internalType": "address",
          "name": "owner",
          "type": "address"
        },
        {
          "indexed": true,
          "internalType": "uint256",
          "name": "runId",
          "type": "uint256"
        }
      ],
      "name": "AgentRunCreated",
      "type": "event"
    },
    {
      "anonymous": false,
      "inputs": [
        {
          "indexed": true,
          "internalType": "address",
          "name": "newOracleAddress",
          "type": "address"
        }
      ],
      "name": "OracleAddressUpdated",
      "type": "event"
    },
    {
      "inputs": [
        {
          "internalType": "string",
          "name": "message",
          "type": "string"
        },
        {
          "internalType": "uint256",
          "name": "runId",
          "type": "uint256"
        }
      ],
      "name": "addMessage",
      "outputs": [],
      "stateMutability": "nonpayable",
      "type": "function"
    },
    {
      "inputs": [],
      "name": "agentRunCount",
      "outputs": [
        {
          "internalType": "uint256",
          "name": "",
          "type": "uint256"
        }
      ],
      "stateMutability": "view",
      "type": "function"
    },
    {
      "inputs": [
        {
          "internalType": "uint256",
          "name": "",
          "type": "uint256"
        }
      ],
      "name": "agentRuns",
      "outputs": [
        {
          "internalType": "address",
          "name": "owner",
          "type": "address"
        },
        {
          "internalType": "address",
          "name": "creator",
          "type": "address"
        },
        {
          "internalType": "address",
          "name": "target",
          "type": "address"
        },
        {
          "internalType": "string",
          "name": "targetFirstName",
          "type": "string"
        },
        {
          "internalType": "string",
          "name": "targetFriend",
          "type": "string"
        },
        {
          "internalType": "enum LeadAgent.Situation",
          "name": "situation",
          "type": "uint8"
        },
        {
          "internalType": "string",
          "name": "publicInfo",
          "type": "string"
        },
        {
          "internalType": "string",
          "name": "privateInfo",
          "type": "string"
        },
        {
          "internalType": "string",
          "name": "groupTitle",
          "type": "string"
        },
        {
          "internalType": "string",
          "name": "groupImage",
          "type": "string"
        },
        {
          "internalType": "string",
          "name": "groupId",
          "type": "string"
        },
        {
          "internalType": "uint256",
          "name": "responsesCount",
          "type": "uint256"
        },
        {
          "internalType": "uint8",
          "name": "max_iterations",
          "type": "uint8"
        },
        {
          "internalType": "bool",
          "name": "is_finished",
          "type": "bool"
        }
      ],
      "stateMutability": "view",
      "type": "function"
    },
    {
      "inputs": [],
      "name": "dataAgent",
      "outputs": [
        {
          "internalType": "contract IOpenAiChatGpt",
          "name": "",
          "type": "address"
        }
      ],
      "stateMutability": "view",
      "type": "function"
    },
    {
      "inputs": [
        {
          "internalType": "address",
          "name": "_creator",
          "type": "address"
        }
      ],
      "name": "getAgentRuns",
      "outputs": [
        {
          "components": [
            {
              "internalType": "address",
              "name": "owner",
              "type": "address"
            },
            {
              "internalType": "address",
              "name": "creator",
              "type": "address"
            },
            {
              "internalType": "address",
              "name": "target",
              "type": "address"
            },
            {
              "internalType": "string",
              "name": "targetFirstName",
              "type": "string"
            },
            {
              "internalType": "string",
              "name": "targetFriend",
              "type": "string"
            },
            {
              "internalType": "enum LeadAgent.Situation",
              "name": "situation",
              "type": "uint8"
            },
            {
              "internalType": "string",
              "name": "publicInfo",
              "type": "string"
            },
            {
              "internalType": "string",
              "name": "privateInfo",
              "type": "string"
            },
            {
              "internalType": "string",
              "name": "groupTitle",
              "type": "string"
            },
            {
              "internalType": "string",
              "name": "groupImage",
              "type": "string"
            },
            {
              "internalType": "string",
              "name": "groupId",
              "type": "string"
            },
            {
              "internalType": "uint256",
              "name": "responsesCount",
              "type": "uint256"
            },
            {
              "internalType": "uint8",
              "name": "max_iterations",
              "type": "uint8"
            },
            {
              "internalType": "bool",
              "name": "is_finished",
              "type": "bool"
            }
          ],
          "internalType": "struct LeadAgent.AgentRunInfo[]",
          "name": "",
          "type": "tuple[]"
        }
      ],
      "stateMutability": "view",
      "type": "function"
    },
    {
      "inputs": [
        {
          "internalType": "uint256",
          "name": "agentId",
          "type": "uint256"
        }
      ],
      "name": "getMessageHistoryContents",
      "outputs": [
        {
          "internalType": "string[]",
          "name": "",
          "type": "string[]"
        }
      ],
      "stateMutability": "view",
      "type": "function"
    },
    {
      "inputs": [
        {
          "internalType": "uint256",
          "name": "agentId",
          "type": "uint256"
        }
      ],
      "name": "getMessageHistoryRoles",
      "outputs": [
        {
          "internalType": "string[]",
          "name": "",
          "type": "string[]"
        }
      ],
      "stateMutability": "view",
      "type": "function"
    },
    {
      "inputs": [
        {
          "internalType": "uint256",
          "name": "runId",
          "type": "uint256"
        }
      ],
      "name": "isRunFinished",
      "outputs": [
        {
          "internalType": "bool",
          "name": "",
          "type": "bool"
        }
      ],
      "stateMutability": "view",
      "type": "function"
    },
    {
      "inputs": [
        {
          "internalType": "uint256",
          "name": "runId",
          "type": "uint256"
        },
        {
          "internalType": "string",
          "name": "response",
          "type": "string"
        },
        {
          "internalType": "string",
          "name": "errorMessage",
          "type": "string"
        }
      ],
      "name": "onOracleFunctionResponse",
      "outputs": [],
      "stateMutability": "nonpayable",
      "type": "function"
    },
    {
      "inputs": [
        {
          "internalType": "uint256",
          "name": "runId",
          "type": "uint256"
        },
        {
          "components": [
            {
              "internalType": "string",
              "name": "id",
              "type": "string"
            },
            {
              "internalType": "string",
              "name": "content",
              "type": "string"
            },
            {
              "internalType": "string",
              "name": "functionName",
              "type": "string"
            },
            {
              "internalType": "string",
              "name": "functionArguments",
              "type": "string"
            },
            {
              "internalType": "uint64",
              "name": "created",
              "type": "uint64"
            },
            {
              "internalType": "string",
              "name": "model",
              "type": "string"
            },
            {
              "internalType": "string",
              "name": "systemFingerprint",
              "type": "string"
            },
            {
              "internalType": "string",
              "name": "object",
              "type": "string"
            },
            {
              "internalType": "uint32",
              "name": "completionTokens",
              "type": "uint32"
            },
            {
              "internalType": "uint32",
              "name": "promptTokens",
              "type": "uint32"
            },
            {
              "internalType": "uint32",
              "name": "totalTokens",
              "type": "uint32"
            }
          ],
          "internalType": "struct IOracle.OpenAiResponse",
          "name": "response",
          "type": "tuple"
        },
        {
          "internalType": "string",
          "name": "errorMessage",
          "type": "string"
        }
      ],
      "name": "onOracleOpenAiLlmResponse",
      "outputs": [],
      "stateMutability": "nonpayable",
      "type": "function"
    },
    {
      "inputs": [],
      "name": "oracleAddress",
      "outputs": [
        {
          "internalType": "address",
          "name": "",
          "type": "address"
        }
      ],
      "stateMutability": "view",
      "type": "function"
    },
    {
      "inputs": [],
      "name": "prompt",
      "outputs": [
        {
          "internalType": "string",
          "name": "",
          "type": "string"
        }
      ],
      "stateMutability": "view",
      "type": "function"
    },
    {
      "inputs": [
        {
          "internalType": "string",
          "name": "query",
          "type": "string"
        },
        {
          "internalType": "uint8",
          "name": "max_iterations",
          "type": "uint8"
        },
        {
          "internalType": "string",
          "name": "techAgentPrompt",
          "type": "string"
        },
        {
          "internalType": "string",
          "name": "socialAgentPrompt",
          "type": "string"
        },
        {
          "internalType": "string",
          "name": "dataAgentPrompt",
          "type": "string"
        },
        {
          "internalType": "address",
          "name": "creator",
          "type": "address"
        },
        {
          "internalType": "address",
          "name": "target",
          "type": "address"
        },
        {
          "internalType": "string",
          "name": "targetFirstName",
          "type": "string"
        },
        {
          "internalType": "string",
          "name": "targetFriend",
          "type": "string"
        },
        {
          "internalType": "enum LeadAgent.Situation",
          "name": "situation",
          "type": "uint8"
        },
        {
          "internalType": "string",
          "name": "publicInfo",
          "type": "string"
        },
        {
          "internalType": "string",
          "name": "privateInfo",
          "type": "string"
        },
        {
          "internalType": "string",
          "name": "groupTitle",
          "type": "string"
        },
        {
          "internalType": "string",
          "name": "groupImage",
          "type": "string"
        },
        {
          "internalType": "string",
          "name": "groupId",
          "type": "string"
        }
      ],
      "name": "runAgent",
      "outputs": [
        {
          "internalType": "uint256",
          "name": "",
          "type": "uint256"
        }
      ],
      "stateMutability": "nonpayable",
      "type": "function"
    },
    {
      "inputs": [
        {
          "internalType": "address",
          "name": "newOracleAddress",
          "type": "address"
        }
      ],
      "name": "setOracleAddress",
      "outputs": [],
      "stateMutability": "nonpayable",
      "type": "function"
    },
    {
      "inputs": [],
      "name": "socialAgent",
      "outputs": [
        {
          "internalType": "contract IOpenAiChatGpt",
          "name": "",
          "type": "address"
        }
      ],
      "stateMutability": "view",
      "type": "function"
    },
    {
      "inputs": [],
      "name": "techAgent",
      "outputs": [
        {
          "internalType": "contract IOpenAiChatGpt",
          "name": "",
          "type": "address"
        }
      ],
      "stateMutability": "view",
      "type": "function"
    }
  ],
  "transactionHash": "0x50b7541e26b18e3b9fc2e0b87cb775ff3bea74bd35554817fc2e2cd76464ca3d",
  "args": [
    "0x68EC9556830AD097D661Df2557FBCeC166a0A075",
    "You are a helpful assistant",
    "0x06b49e0F8eB52Be2b45E46EBcfC149381BD9Bf59",
    "0x33735222498A0819Ec0c59522190B7FfED5A0f6C",
    "0x43597552e6b6cF4d6b8DE2ED0D0C7DCA4c986327"
  ],
  "numDeployments": 4,
  "solcInputHash": "2345706cf35802fc7b3e16659b81f63d",
  "bytecode": "0x608080604052346200126557620040d98038038091620000208285620012a2565b833981019060a08183031262001265576200003b81620012c6565b60208201519092906001600160401b0381116200126557820181601f8201121562001265578051906001600160401b03821162000a9057604051926200008c601f8401601f191660200185620012a2565b82845260208383010111620012655760005b8281106200124f575050602060009183010152620000bf60408301620012c6565b90620000dc6080620000d460608601620012c6565b9401620012c6565b600380546001600160a01b03199081163317909155600480549091166001600160a01b03909616959095179094558051906001600160401b03821162000a9057600054600181811c9116801562001244575b602082101462000a6f57601f8111620011f0575b50602090601f83116001146200117257918060009492602094869262001166575b50508160011b9185199060031b1c19161783555b6004805460405163e2079a8360e01b81526001600160a01b039182169281019290925290938492602492849291165af1908115620010c5576000916200111d575b50601180546001600160a01b0319166001600160a01b0392831617905560048054604051630323981f60e11b8152908316918101919091529160209183916024918391600091165af1908115620010c557600091620010d1575b50601280546001600160a01b0319166001600160a01b0392831617905560048054604051636fe93b6560e11b8152908316918101919091529160209183916024918391600091165af1908115620010c55760009162001080575b50601380546001600160a01b0319166001600160a01b03929092169190911790556040516101a081016001600160401b0381118282101762000a905780604052620002b7816200126a565b601381527f6770742d342d747572626f2d70726576696577000000000000000000000000006101c0830152815260156020820152604051620002f98162001286565b6000815260408201526103e86060820152601560808201526040516200031f816200126a565b600f81526e7b2274797065223a2274657874227d60881b602082015260a0820152600060c0820152604051620003558162001286565b6000815260e0820152600a61010082015260656101208201526040516001600160401b0361020082019081119082111762000a905761020081016040526101d381527f5b7b2274797065223a2266756e6374696f6e222c2266756e6374696f6e223a7b60208201527f226e616d65223a227765625f736561726368222c226465736372697074696f6e60408201527f223a225365617263682074686520696e7465726e6574222c22706172616d657460608201527f657273223a7b2274797065223a226f626a656374222c2270726f70657274696560808201527f73223a7b227175657279223a7b2274797065223a22737472696e67222c22646560a08201527f736372697074696f6e223a22536561726368207175657279227d7d2c2272657160c08201527f7569726564223a5b227175657279225d7d7d7d2c7b2274797065223a2266756e60e08201527f6374696f6e222c2266756e6374696f6e223a7b226e616d65223a22696d6167656101008201527f5f67656e65726174696f6e222c226465736372697074696f6e223a2247656e656101208201527f726174657320616e20696d616765207573696e672044616c6c652d32222c22706101408201527f6172616d6574657273223a7b2274797065223a226f626a656374222c2270726f6101608201527f70657274696573223a7b2270726f6d7074223a7b2274797065223a22737472696101808201527f6e67222c226465736372697074696f6e223a2244616c6c652d322070726f6d706101a08201527f7420746f2067656e657261746520616e20696d616765227d7d2c2272657175696101c08201527f726564223a5b2270726f6d7074225d7d7d7d5d000000000000000000000000006101e0820152610140820152604051620005ed816200126a565b60048152636175746f60e01b6020820152610160820152604051620006128162001286565b6000815261018082015280518051906001600160401b03821162000a905760055490600182811c9216801562001075575b602083101462000a6f5781601f8493116200101f575b50602090601f831160011462000f905760009262000f84575b50508160011b916000199060031b1c1916176005555b602081015160ff19600654169060ff1617600655604081015180519060018060401b03821162000a905760075490600182811c9216801562000f79575b602083101462000a6f5781601f84931162000f18575b50602090601f831160011462000e9a5760009262000e8e575b50508160011b916000199060031b1c1916176007555b63ffffffff60608201511660085490608083015160201b64ff00000000169164ffffffffff1916171760085560a081015180519060018060401b03821162000a905760095490600182811c9216801562000e83575b602083101462000a6f5781601f84931162000e22575b50602090601f831160011462000da45760009262000d98575b50508160011b916000199060031b1c1916176009555b60c0810151600a5560e08101518051906001600160401b03821162000a9057600b5490600182811c9216801562000d8d575b602083101462000a6f5781601f84931162000d1b575b50602090601f831160011462000c8c5760009262000c80575b50508160011b916000199060031b1c191617600b555b610100810151600c55610120810151600d5561014081015180519091906001600160401b03811162000a9057600e54600181811c9116801562000c75575b602082101462000a6f57601f811162000c0b575b50602092601f821160011462000ba0579281929360009262000b94575b50508160011b916000199060031b1c191617600e555b610160810151805191906001600160401b03831162000a9057600f54600181811c9116801562000b89575b602082101462000a6f57601f811162000b30575b50602090601f841160011462000ab25761018093916000918362000aa6575b50508160011b916000199060031b1c191617600f555b015180516001600160401b03811162000a9057601054600181811c9116801562000a85575b602082101462000a6f57601f811162000a05575b50602091601f82116001146200099b579181926000926200098f575b50508160011b916000199060031b1c1916176010555b604051612d7d9081620012dc8239f35b01519050388062000969565b601f19821692601060005260206000209160005b858110620009ec57508360019510620009d2575b505050811b016010556200097f565b015160001960f88460031b161c19169055388080620009c3565b91926020600181928685015181550194019201620009af565b60106000527f1b6847dc741a1b0cd08d278845f9d819d87b734759afb55fe2de5cb82a9ae672601f830160051c8101916020841062000a64575b601f0160051c01905b81811062000a5757506200094d565b6000815560010162000a48565b909150819062000a3f565b634e487b7160e01b600052602260045260246000fd5b90607f169062000939565b634e487b7160e01b600052604160045260246000fd5b015190503880620008fe565b600f6000908152600080516020620040b9833981519152929190601f198616905b81811062000b17575091600193918661018097941062000afd575b505050811b01600f5562000914565b015160001960f88460031b161c1916905538808062000aee565b9293602060018192878601518155019501930162000ad3565b600f600052600080516020620040b9833981519152601f850160051c8101916020861062000b7e575b601f0160051c01905b81811062000b715750620008df565b6000815560010162000b62565b909150819062000b59565b90607f1690620008cb565b0151905038806200088a565b601f19821693600e60005260206000209160005b86811062000bf2575083600195961062000bd8575b505050811b01600e55620008a0565b015160001960f88460031b161c1916905538808062000bc9565b9192602060018192868501518155019401920162000bb4565b600e6000527fbb7b4a454dc3493923482f07822329ed19e8244eff582cc204f8554c3620c3fd601f830160051c8101916020841062000c6a575b601f0160051c01905b81811062000c5d57506200086d565b6000815560010162000c4e565b909150819062000c45565b90607f169062000859565b01519050388062000805565b600b600090815293507f0175b7a638427703f0dbe7bb9bbf987a2551717b34e79f33b5b1008d1fa01db991905b601f198416851062000cff576001945083601f1981161062000ce5575b505050811b01600b556200081b565b015160001960f88460031b161c1916905538808062000cd6565b8181015183556020948501946001909301929091019062000cb9565b600b6000529091507f0175b7a638427703f0dbe7bb9bbf987a2551717b34e79f33b5b1008d1fa01db9601f840160051c81016020851062000d85575b90849392915b601f830160051c8201811062000d75575050620007ec565b6000815585945060010162000d5d565b508062000d57565b91607f1691620007d6565b0151905038806200078e565b6009600090815293506000805160206200409983398151915291905b601f198416851062000e06576001945083601f1981161062000dec575b505050811b01600955620007a4565b015160001960f88460031b161c1916905538808062000ddd565b8181015183556020948501946001909301929091019062000dc0565b600960005290915060008051602062004099833981519152601f840160051c81016020851062000e7b575b90849392915b601f830160051c8201811062000e6b57505062000775565b6000815585945060010162000e53565b508062000e4d565b91607f16916200075f565b015190503880620006f4565b6007600090815293506000805160206200407983398151915291905b601f198416851062000efc576001945083601f1981161062000ee2575b505050811b016007556200070a565b015160001960f88460031b161c1916905538808062000ed3565b8181015183556020948501946001909301929091019062000eb6565b600760005290915060008051602062004079833981519152601f840160051c81016020851062000f71575b90849392915b601f830160051c8201811062000f61575050620006db565b6000815585945060010162000f49565b508062000f43565b91607f1691620006c5565b01519050388062000672565b6005600090815293507f036b6384b5eca791c62761152d0c79bb0604c104a5fb6f4eb0703f3154bb3db091905b601f198416851062001003576001945083601f1981161062000fe9575b505050811b0160055562000688565b015160001960f88460031b161c1916905538808062000fda565b8181015183556020948501946001909301929091019062000fbd565b90915060056000526020600020601f840160051c8101602085106200106d575b90849392915b601f830160051c820181106200105d57505062000659565b6000815585945060010162001045565b50806200103f565b91607f169162000643565b6020813d602011620010bc575b816200109c60209383620012a2565b81010312620010b857620010b19150620012c6565b386200026c565b5080fd5b3d91506200108d565b6040513d6000823e3d90fd5b906020823d60201162001114575b81620010ee60209383620012a2565b8101031262001111575060009162001108602092620012c6565b91509162000212565b80fd5b3d9150620010df565b906020823d6020116200115d575b816200113a60209383620012a2565b8101031262001111575060009162001154602092620012c6565b915091620001b8565b3d91506200112b565b01519050388062000163565b6000808052600080516020620040598339815191529291905b601f1985168110620011d75750926000949260019260209583601f19811610620011be575b505050811b01835562000177565b0151861960f88460031b161c19169055388080620011b0565b919260206001819286850151815501940192016200118b565b6000805260008051602062004059833981519152601f840160051c8101602085106200123c575b601f830160051c820181106200122f57505062000142565b6000815560010162001217565b508062001217565b90607f16906200012e565b806020809284010151828287010152016200009e565b600080fd5b604081019081106001600160401b0382111762000a9057604052565b602081019081106001600160401b0382111762000a9057604052565b601f909101601f19168101906001600160401b0382119082101762000a9057604052565b51906001600160a01b0382168203620012655756fe60e080604052600436101561001357600080fd5b60003560e01c90816304495a3b14611c73575080630911674b146117df5780632eab9c81146117a85780634c69c00f146116fe5780634cecd88e1461154c5780635923400b146115235780637397454d1461144e5780637c65d71114611416578063941fac37146112d5578063a89ae4ba146112ac578063b75f07e414611283578063c63b0295146110a6578063ccaeb47114610248578063dade4cf91461022a578063eb17429a146101925763ed6e39e5146100cf57600080fd5b3461018d5760208060031936011261018d576004359081600052600190818152600b906101028260406000200154612bf4565b936000845b61011e575b6040518061011a8882612299565b0390f35b81600052848352836040600020015481101561018857906101808261015e61016561015189979689604060002001612324565b5060405192838092612203565b0382611d67565b61016f828a612c3e565b5261017a8189612c3e565b506127c5565b909192610107565b61010c565b600080fd5b3461018d5760208060031936011261018d576004358060005260018281809452600b906101c58260406000200154612bf4565b936000955b6101dd575b6040518061011a8782612299565b8060005283825282604060002001548610156102255761021e868561016561020d82999a88604060002001612324565b5061015e6040518094819301612203565b95946101ca565b6101cf565b3461018d57600036600319011261018d576020600254604051908152f35b3461018d576101e036600319011261018d576004356001600160401b03811161018d57610279903690600401611da3565b60c05260243560ff8116810361018d576044356001600160401b03811161018d576102a8903690600401611da3565b6064356001600160401b03811161018d576102c7903690600401611da3565b906084356001600160401b03811161018d576102e7903690600401611da3565b9260a4356001600160a01b038116810361018d5760c435906001600160a01b038216820361018d5760e4356001600160401b03811161018d5761032e903690600401611da3565b610104356001600160401b03811161018d5761034e903690600401611da3565b600261012435101561018d57610144356001600160401b03811161018d5761037a903690600401611da3565b610164356001600160401b03811161018d5761039a903690600401611da3565b91610184356001600160401b03811161018d576103bb903690600401611da3565b936101a4356001600160401b03811161018d576103dc903690600401611da3565b956101c4356001600160401b03811161018d576103fd903690600401611da3565b976002548060a0526000526001602052604060002091826080526bffffffffffffffffffffffff60a01b903382855416178455600184019060018060a01b031682825416179055600283019160018060a01b0316908254161790558151906001600160401b038211610bec576003610476910154611dfb565b601f811161105d575b50602091601f8211600114610feb57918192600092610fe0575b50508160011b916000199060031b1c191617600360805101555b80516001600160401b038111610bec576104d260046080510154611dfb565b601f8111610f97575b50602091601f8211600114610f2557918192600092610f1a575b50508160011b916000199060031b1c191617600460805101555b60805160ff1960058201541660ff61012435161760058201558151906001600160401b038211610bec576006610546910154611dfb565b601f8111610ed1575b50602091601f8211600114610e5f57918192600092610e54575b50508160011b916000199060031b1c191617600660805101555b80516001600160401b038111610bec576105a260076080510154611dfb565b601f8111610e0b575b50602091601f8211600114610d9957918192600092610d8e575b50508160011b916000199060031b1c191617600760805101555b80516001600160401b038111610bec576105fe60086080510154611dfb565b601f8111610d45575b50602091601f8211600114610cd357918192600092610cc8575b50508160011b916000199060031b1c191617600860805101555b80516001600160401b038111610bec5761065a60096080510154611dfb565b601f8111610c7f575b50602091601f8211600114610c0d57918192600092610c02575b50508160011b916000199060031b1c191617600960805101555b8051906001600160401b038211610bec576106b7600a6080510154611dfb565b601f8111610ba3575b50602090601f8311600114610b2757928261074793600096936020968892610b1c575b50508160011b9187199060031b1c191617600a60805101555b60805160ff600d82019287600c8554940155169061ffff191617905560018060a01b0360115416906040519485809481936316846c1560e11b83528760048401526024830190611cd0565b03925af180156109fb57610af1575b50602061078e60009260018060a01b0360125416906040519485809481936316846c1560e11b83528760048401526024830190611cd0565b03925af180156109fb57610ac6575b5060206107d560009260018060a01b0360135416906040519485809481936316846c1560e11b83528760048401526024830190611cd0565b03925af180156109fb57610a9b575b506108566107f06122fb565b6040516108008161015e81611e35565b602082015260405161081181611d31565b600681526573797374656d60d01b60208201528152610836600b608051019182612356565b61083e6122fb565b9060c051602083015261084f6125b6565b8252612356565b600254600181018111610a855760010160025560018060a01b036004541660405190633c38a5f560e01b825260a0516004830152604060248301526101a060448301528160006005546108a881611dfb565b90816101e4850152600181169081600014610a625750600114610a07575b509181600081610980602096600654840b606484015261097061096061093e6109256108fe60431995868982030160848a0152611ed9565b60085463ffffffff811660a48a01528d1c890b60c4890152858882030160e4890152611f60565b600a546101048801528487820301610124880152611fe7565b600c54610144870152600d54610164870152838682030161018487015261206e565b82858203016101a48601526120f5565b90838203016101c484015261217c565b03925af180156109fb576109d0575b6080515460405160a05160209281906001600160a01b03167f9697c88a6be3b3ed5062f2dcbd719a10914832320686f14e24f7756210a6685e600080a38152f35b602090813d83116109f4575b6109e68183611d67565b8101031261018d578061098f565b503d6109dc565b6040513d6000823e3d90fd5b6005600090815291507f036b6384b5eca791c62761152d0c79bb0604c104a5fb6f4eb0703f3154bb3db05b818310610a47575050810161020401816108c6565b80546102048488010152859350602090920191600101610a32565b60ff19166102048086019190915291151560051b840190910191508290506108c6565b634e487b7160e01b600052601160045260246000fd5b602090813d8311610abf575b610ab18183611d67565b8101031261018d57806107e4565b503d610aa7565b602090813d8311610aea575b610adc8183611d67565b8101031261018d578161079d565b503d610ad2565b602090813d8311610b15575b610b078183611d67565b8101031261018d5782610756565b503d610afd565b0151905089806106e3565b600a60809392935101928360005260206000209160005b601f1985168110610b8b57508360209693610747969360019360009a97601f19811610610b73575b505050811b0190556106fc565b0151891960f88460031b161c191690558a8080610b66565b91926020600181928685015181550194019201610b3e565b600a608051016000526020600020601f840160051c810160208510610be5575b601f830160051c82018110610bd95750506106c0565b60008155600101610bc3565b5080610bc3565b634e487b7160e01b600052604160045260246000fd5b01519050878061067d565b9060096080510192836000526020600020906000935b601f1984168510610c64576001945083601f19811610610c4b575b505050811b019055610697565b015160001960f88460031b161c19169055888080610c3e565b81810151835560209485019460019093019290910190610c23565b6009608051016000526020600020601f830160051c810160208410610cc1575b601f830160051c82018110610cb5575050610663565b60008155600101610c9f565b5080610c9f565b015190508880610621565b9060086080510192836000526020600020906000935b601f1984168510610d2a576001945083601f19811610610d11575b505050811b01905561063b565b015160001960f88460031b161c19169055898080610d04565b81810151835560209485019460019093019290910190610ce9565b6008608051016000526020600020601f830160051c810160208410610d87575b601f830160051c82018110610d7b575050610607565b60008155600101610d65565b5080610d65565b0151905089806105c5565b9060076080510192836000526020600020906000935b601f1984168510610df0576001945083601f19811610610dd7575b505050811b0190556105df565b015160001960f88460031b161c191690558a8080610dca565b81810151835560209485019460019093019290910190610daf565b6007608051016000526020600020601f830160051c810160208410610e4d575b601f830160051c82018110610e415750506105ab565b60008155600101610e2b565b5080610e2b565b015190508a80610569565b9060066080510192836000526020600020906000935b601f1984168510610eb6576001945083601f19811610610e9d575b505050811b019055610583565b015160001960f88460031b161c191690558b8080610e90565b81810151835560209485019460019093019290910190610e75565b6006608051016000526020600020601f830160051c810160208410610f13575b601f830160051c82018110610f0757505061054f565b60008155600101610ef1565b5080610ef1565b015190508b806104f5565b9060046080510192836000526020600020906000935b601f1984168510610f7c576001945083601f19811610610f63575b505050811b01905561050f565b015160001960f88460031b161c191690558c8080610f56565b81810151835560209485019460019093019290910190610f3b565b6004608051016000526020600020601f830160051c810160208410610fd9575b601f830160051c82018110610fcd5750506104db565b60008155600101610fb7565b5080610fb7565b015190508c80610499565b9060036080510192836000526020600020906000935b601f1984168510611042576001945083601f19811610611029575b505050811b0190556104b3565b015160001960f88460031b161c191690558d808061101c565b81810151835560209485019460019093019290910190611001565b6003608051016000526020600020601f830160051c81016020841061109f575b601f830160051c8201811061109357505061047f565b6000815560010161107d565b508061107d565b3461018d57602036600319011261018d5760043560005260016020526040600020600160a01b600190039081815416908260018201541692600282015416604051808060038501906110f791612203565b036111029082611d67565b604051806111138160048701612203565b0361111e9082611d67565b600584015460ff166040518080600688019061113991612203565b036111449082611d67565b60405190816111568160078a01612203565b036111619083611d67565b60405192836111738160088b01612203565b0361117e9085611d67565b60405194856111908160098c01612203565b0361119b9087611d67565b60405196876111ad81600a8d01612203565b036111b89089611d67565b600c8a015499600d0154986040519c8d9c8d5260208d015260408c01526101c08060608d01528b016111e991611cd0565b8a810360808c01526111fa91611cd0565b9060a08a0161120891611cf5565b88810360c08a015261121991611cd0565b87810360e089015261122a91611cd0565b86810361010088015261123c91611cd0565b85810361012087015261124e91611cd0565b84810361014086015261126091611cd0565b9161016084015260ff811661018084015260081c60ff1615156101a08301520390f35b3461018d57600036600319011261018d576012546040516001600160a01b039091168152602090f35b3461018d57600036600319011261018d576004546040516001600160a01b039091168152602090f35b3461018d57604036600319011261018d576004356001600160401b03811161018d57611305903690600401611da3565b6024358060005260209160018352604060002061132c60ff600d83015460081c1615612b9f565b80546001600160a01b039290831633036113d157928492600c61139d9361136f6000976113576122fb565b906113606125b6565b825288820152600b8301612356565b0161137a81546127c5565b90556004541690604051948580948193633c38a5f560e01b8352600483016125d6565b03925af180156109fb576113ad57005b813d83116113ca575b6113c08183611d67565b8101031261018d57005b503d6113b6565b60405162461bcd60e51b815260048101869052601f60248201527f4f6e6c792072756e206f776e65722063616e2061646420636f6d6d616e6473006044820152606490fd5b3461018d57600036600319011261018d5761011a60405161143a8161015e81611e35565b604051918291602083526020830190611cd0565b3461018d57606036600319011261018d576004356001600160401b0360243581811161018d57611482903690600401611da3565b9060443581811161018d5761149b903690600401611da3565b6004546001600160a01b0394906114b5908616331461275d565b80600052602094600186526040600020946114da60ff600d88015460081c1615612b9f565b93604051958787019187831090831117610bec5761136f889661139d9661150c60009a600c966040528b815282612c52565b1561151b575b506113576122fb565b90508a611512565b3461018d57600036600319011261018d576013546040516001600160a01b039091168152602090f35b3461018d5760031960603682011261018d576001600160401b039060243582811161018d576101608092823603011261018d5760405191820182811084821117610bec57604052806004013583811161018d576115af9060043691840101611da3565b8252602481013583811161018d576115cd9060043691840101611da3565b6020830152604481013583811161018d576115ee9060043691840101611da3565b6040830152606481013583811161018d5761160f9060043691840101611da3565b60608301526084810135838116810361018d57608083015260a481013583811161018d576116439060043691840101611da3565b60a083015260c481013583811161018d576116649060043691840101611da3565b60c083015260e481013583811161018d576116bd9161168c6101449260043691840101611da3565b60e085015261169e6101048201611dea565b6101008501526116b16101248201611dea565b61012085015201611dea565b61014082015260443591821161018d576116de6116fc923690600401611da3565b906116f460018060a01b0360045416331461275d565b6004356127d4565b005b3461018d57602036600319011261018d57611717611c97565b6003546001600160a01b0391908216330361176d5716806bffffffffffffffffffffffff60a01b60045416176004557f107a9fafffb7ac890f780879e423760c9ffea8dcee8045681f40f542aede2cb8600080a2005b60405162461bcd60e51b815260206004820152601360248201527221b0b63632b91034b9903737ba1037bbb732b960691b6044820152606490fd5b3461018d57602036600319011261018d576004356000526001602052602060ff600d6040600020015460081c166040519015158152f35b3461018d57602036600319011261018d576117f8611c97565b6002546001600160a01b0391600090815b838110611c22575061181a82612bdd565b916118286040519384611d67565b808352611837601f1991612bdd565b0160005b818110611baa57505060009060005b8481106119a057858460405190602082016020835281518091526040830190602060408260051b8601019301916000905b8282106118885785850386f35b90919293602080600192603f198982030185528751908a82511681528a8383015116838201528a604083015116604082015261196c61195861194461193061191e6118f96118e66060808a0151906101c080918b0152890190611cd0565b6080808a015190898303908a0152611cd0565b61190b60a0808a015190890190611cf5565b60c0808901519088830390890152611cd0565b60e087015186820360e0880152611cd0565b610100808701519086830390870152611cd0565b610120808601519085830390860152611cd0565b610140808501519084830390850152611cd0565b91610160808201519083015261018060ff8183015116908301526101a080910151151591015296019201920190929161187b565b818616801590611b8c575b6119be575b6119b9906127c5565b61184a565b91826000526001806020528680604060002054169160406000200154169187604060002060020154169160406000206003019360406000206004019360406000206005015460ff1695604060002060060160406000206007016040600020600801976040600020600901986040600020600a01916040600020600c0154956040600020600d015460ff16976040600020600d015460081c60ff16996040519b611a668d611d02565b8c5260208c015260408b0152604051611a80818093612203565b03611a8b9082611d67565b60608a0152604051611a9e818093612203565b03611aa99082611d67565b608089015260028b1015611b7657611b2d611b6e9a61015e611b1b61015e946119b99f60e08e611b0d611b3f9b61015e611af561015e9f611b069760a087015260405192838092612203565b60c084015260405194858092612203565b0384611d67565b015260405192838092612203565b6101008b015260405192838092612203565b61012088015260405192838092612203565b61014085015261016084015261018083015215156101a0820152611b638288612c3e565b5261017a8187612c3e565b9290506119b0565b634e487b7160e01b600052602160045260246000fd5b508060005260018060205286808416916040600020015416146119ab565b602090604051611bb981611d02565b600081526000838201526000604082015260608080830152806080830152600060a08301528060c08301528060e083015280610100830152806101208301526101408201526000610160820152600061018082015260006101a08201528282870101520161183b565b818516801590611c55575b611c40575b611c3b906127c5565b611809565b91611c4d611c3b916127c5565b929050611c32565b50806000526001806020528580841691604060002001541614611c2d565b3461018d57600036600319011261018d576011546001600160a01b03168152602090f35b600435906001600160a01b038216820361018d57565b60005b838110611cc05750506000910152565b8181015183820152602001611cb0565b90602091611ce981518092818552858086019101611cad565b601f01601f1916010190565b906002821015611b765752565b6101c081019081106001600160401b03821117610bec57604052565b6001600160401b038111610bec57604052565b604081019081106001600160401b03821117610bec57604052565b602081019081106001600160401b03821117610bec57604052565b90601f801991011681019081106001600160401b03821117610bec57604052565b6001600160401b038111610bec57601f01601f191660200190565b81601f8201121561018d57803590611dba82611d88565b92611dc86040519485611d67565b8284526020838301011161018d57816000926020809301838601378301015290565b359063ffffffff8216820361018d57565b90600182811c92168015611e2b575b6020831014611e1557565b634e487b7160e01b600052602260045260246000fd5b91607f1691611e0a565b9060009160005490611e4682611dfb565b80825291600190818116908115611ebc5750600114611e6457505050565b91929350600080527f290decd9548b62a8d60345a988386fc84ba6bc95484008f6362f93160ef3e563916000925b848410611ea457505060209250010190565b80546020858501810191909152909301928101611e92565b915050602093945060ff929192191683830152151560051b010190565b60075460009291611ee982611dfb565b80825291600190818116908115611ebc5750600114611f0757505050565b9192935060076000527fa66cc928b5edb82af9bd49922954155ab7b0942694bea4ce44661d9a8736c688916000925b848410611f4857505060209250010190565b80546020858501810191909152909301928101611f36565b60095460009291611f7082611dfb565b80825291600190818116908115611ebc5750600114611f8e57505050565b9192935060096000527f6e1540171b6c0c960b71a7020d9f60077f6af931a8bbf590da0223dacf75c7af916000925b848410611fcf57505060209250010190565b80546020858501810191909152909301928101611fbd565b600b5460009291611ff782611dfb565b80825291600190818116908115611ebc575060011461201557505050565b91929350600b6000527f0175b7a638427703f0dbe7bb9bbf987a2551717b34e79f33b5b1008d1fa01db9916000925b84841061205657505060209250010190565b80546020858501810191909152909301928101612044565b600e546000929161207e82611dfb565b80825291600190818116908115611ebc575060011461209c57505050565b91929350600e6000527fbb7b4a454dc3493923482f07822329ed19e8244eff582cc204f8554c3620c3fd916000925b8484106120dd57505060209250010190565b805460208585018101919091529093019281016120cb565b600f546000929161210582611dfb565b80825291600190818116908115611ebc575060011461212357505050565b91929350600f6000527f8d1108e10bcb7c27dddfc02ed9d693a074039d026cf4ea4240b40f7d581ac802916000925b84841061216457505060209250010190565b80546020858501810191909152909301928101612152565b6010546000929161218c82611dfb565b80825291600190818116908115611ebc57506001146121aa57505050565b9192935060106000527f1b6847dc741a1b0cd08d278845f9d819d87b734759afb55fe2de5cb82a9ae672916000925b8484106121eb57505060209250010190565b805460208585018101919091529093019281016121d9565b906000929180549161221483611dfb565b9182825260019384811690816000146122765750600114612236575b50505050565b90919394506000526020928360002092846000945b838610612262575050505001019038808080612230565b80548587018301529401938590820161224b565b9294505050602093945060ff191683830152151560051b01019038808080612230565b602080820190808352835180925260408301928160408460051b8301019501936000915b8483106122cd5750505050505090565b90919293949584806122eb600193603f198682030187528a51611cd0565b98019301930191949392906122bd565b60405190604082018281106001600160401b03821117610bec5760405260606020838281520152565b80548210156123405760005260206000209060011b0190600090565b634e487b7160e01b600052603260045260246000fd5b805468010000000000000000811015610bec5761237a906001928382018155612324565b6125a05782518051916001600160401b0392838111610bec57849061239f8354611dfb565b93601f9485811161254f575b506020908583116001146124e6576020949291600091836124db575b5050600019600383901b1c191690831b1781555b019401518051928311610bec576123f28554611dfb565b828111612493575b50602091831160011461243357928293918392600094612428575b50501b916000199060031b1c1916179055565b015192503880612415565b90601f198316918560005283826000209360005b8782821061247a57505010612461575b505050811b019055565b015160001960f88460031b161c19169055388080612457565b8486015187559095019460209485019487935001612447565b8560005260206000208380860160051c820192602087106124d2575b0160051c019085905b8281106124c65750506123fa565b600081550185906124b8565b925081926124af565b0151905038806123c7565b90601f1983169185600052816000209260005b8181106125375750918593918560209896941061251e575b505050811b0181556123db565b015160001960f88460031b161c19169055388080612511565b8284015185558a9690940193602093840193016124f9565b909192506000848152602081208680860160051c82019360208710612597575b908a9695949392910160051c01915b82811061258c5750506123ab565b81815589950161257e565b9350819361256f565b634e487b7160e01b600052600060045260246000fd5b604051906125c382611d31565b60048252633ab9b2b960e11b6020830152565b9190825260206040818401526101a0928360408201526000916005546125fb81611dfb565b90816101e0850152600190818116908160001461273357506001146126d6575b50506126c66126d394956126b761269561267c6101c09560065460000b6060890152612653603f19998a8a82030160808b0152611ed9565b906008549063ffffffff821660a08b01521c60000b60c0890152888882030160e0890152611f60565b600a546101008801528787820301610120880152611fe7565b600c54610140870152600d54610160870152868682030161018087015261206e565b908585830301908501526120f5565b928284030191015261217c565b90565b600560009081529294507f036b6384b5eca791c62761152d0c79bb0604c104a5fb6f4eb0703f3154bb3db05b82841061271e57505050810161020001916126c66126d361261b565b80548585016102000152928501928101612702565b60ff19166102008681019190915292151560051b850190920194506126c691506126d3905061261b565b1561276457565b60405162461bcd60e51b815260206004820152601460248201527343616c6c6572206973206e6f74206f7261636c6560601b6044820152606490fd5b604051906127ad82611d31565b6009825268185cdcda5cdd185b9d60ba1b6020830152565b6000198114610a855760010190565b919091600092818452602093600185526040918282209461280284516127f981611d4c565b84815282612c52565b15612b535750858101612824815185519061281c82611d4c565b858252612c52565b15612914575b5082810190612840825185519061281c82611d4c565b156128745750505050509050600d600c82015491019081549060ff82161115612867575050565b61ff001916610100179055565b8293949550906128bf918793606060018060a01b03600454169351920151976128d18851998a9687958694634b04236b60e01b86526004860152606060248601526064850190611cd0565b83810360031901604485015290611cd0565b03925af191821561290a5750506128e6575050565b813d8311612903575b6128f98183611d67565b8101031261018d57565b503d6128ef565b51903d90823e3d90fd5b61293861291f6122fb565b82518982015261292d6127a0565b8152600b8801612356565b600c860161294681546127c5565b9055612977815185519061295982611d31565b600d82526c2a32b1b420b3b2b73a1032379d60991b8a830152612ca7565b15612a005760018060a01b03601154169051813b156129fc576129b984928392875194858094819363941fac3760e01b83528b60048401526044830190611cd0565b8b602483015203925af180156129f2579083916129da575b50505b3861282a565b6129e390611d1e565b6129ee5781386129d1565b5080fd5b84513d85823e3d90fd5b8380fd5b612a318151855190612a1182611d31565b600f82526e29b7b1b4b0b620b3b2b73a1032379d60891b8a830152612ca7565b15612aa65760018060a01b03601254169051813b156129fc57612a7384928392875194858094819363941fac3760e01b83528b60048401526044830190611cd0565b8b602483015203925af180156129f257908391612a92575b50506129d4565b612a9b90611d1e565b6129ee578138612a8b565b612ad88193929351855190612aba82611d31565b600d82526c2230ba30a0b3b2b73a1032379d60991b8a830152612ca7565b612ae4575b50906129d4565b60018060a01b03601354169051813b15612b4f57612b2183928392875194858094819363941fac3760e01b83528b60048401526044830190611cd0565b8b602483015203925af18015612b455715612add57612b3f90611d1e565b38612add565b84513d84823e3d90fd5b8280fd5b915050612b7f9250600d949150612b686122fb565b91612b716127a0565b8352820152600b8301612356565b600c8101612b8d81546127c5565b905501805461ff001916610100179055565b15612ba657565b60405162461bcd60e51b815260206004820152600f60248201526e149d5b881a5cc8199a5b9a5cda1959608a1b6044820152606490fd5b6001600160401b038111610bec5760051b60200190565b90612bfe82612bdd565b612c0b6040519182611d67565b8281528092612c1c601f1991612bdd565b019060005b828110612c2d57505050565b806060602080938501015201612c21565b80518210156123405760209160051b010190565b9060405191602092612c80848281612c738183019687815193849201611cad565b8101038084520182611d67565b51902091612ca0604051918281612c738183019687815193849201611cad565b5190201490565b908051612cb381611d88565b612cc06040519182611d67565b818152612ccc82611d88565b6020948286019391601f1901368537600090815b838110612d065750505050612c80846040518093612c7383830196879251928391611cad565b612d31906001600160f81b0319612d1d8285612d36565b5116841a612d2b8288612d36565b536127c5565b612ce0565b90815181101561234057016020019056fea2646970667358221220a0cc8b1d9901c8e1f5915deef9ad2c9d73270afb648abae07d5561409f2ba52c64736f6c63430008110033290decd9548b62a8d60345a988386fc84ba6bc95484008f6362f93160ef3e563a66cc928b5edb82af9bd49922954155ab7b0942694bea4ce44661d9a8736c6886e1540171b6c0c960b71a7020d9f60077f6af931a8bbf590da0223dacf75c7af8d1108e10bcb7c27dddfc02ed9d693a074039d026cf4ea4240b40f7d581ac802",
  "devdoc": {
    "kind": "dev",
    "methods": {},
    "version": 1
  },
  "userdoc": {
    "kind": "user",
    "methods": {},
    "version": 1
  },
  "storageLayout": {
    "storage": [
      {
        "astId": 643,
        "contract": "contracts/LeadAgent.sol:LeadAgent",
        "label": "prompt",
        "offset": 0,
        "slot": "0",
        "type": "t_string_storage"
      },
      {
        "astId": 720,
        "contract": "contracts/LeadAgent.sol:LeadAgent",
        "label": "agentRuns",
        "offset": 0,
        "slot": "1",
        "type": "t_mapping(t_uint256,t_struct(AgentRun)685_storage)"
      },
      {
        "astId": 722,
        "contract": "contracts/LeadAgent.sol:LeadAgent",
        "label": "agentRunCount",
        "offset": 0,
        "slot": "2",
        "type": "t_uint256"
      },
      {
        "astId": 730,
        "contract": "contracts/LeadAgent.sol:LeadAgent",
        "label": "owner",
        "offset": 0,
        "slot": "3",
        "type": "t_address"
      },
      {
        "astId": 732,
        "contract": "contracts/LeadAgent.sol:LeadAgent",
        "label": "oracleAddress",
        "offset": 0,
        "slot": "4",
        "type": "t_address"
      },
      {
        "astId": 739,
        "contract": "contracts/LeadAgent.sol:LeadAgent",
        "label": "config",
        "offset": 0,
        "slot": "5",
        "type": "t_struct(OpenAiRequest)2000_storage"
      },
      {
        "astId": 742,
        "contract": "contracts/LeadAgent.sol:LeadAgent",
        "label": "techAgent",
        "offset": 0,
        "slot": "17",
        "type": "t_contract(IOpenAiChatGpt)1959"
      },
      {
        "astId": 745,
        "contract": "contracts/LeadAgent.sol:LeadAgent",
        "label": "socialAgent",
        "offset": 0,
        "slot": "18",
        "type": "t_contract(IOpenAiChatGpt)1959"
      },
      {
        "astId": 748,
        "contract": "contracts/LeadAgent.sol:LeadAgent",
        "label": "dataAgent",
        "offset": 0,
        "slot": "19",
        "type": "t_contract(IOpenAiChatGpt)1959"
      }
    ],
    "types": {
      "t_address": {
        "encoding": "inplace",
        "label": "address",
        "numberOfBytes": "20"
      },
      "t_array(t_struct(Message)648_storage)dyn_storage": {
        "base": "t_struct(Message)648_storage",
        "encoding": "dynamic_array",
        "label": "struct LeadAgent.Message[]",
        "numberOfBytes": "32"
      },
      "t_bool": {
        "encoding": "inplace",
        "label": "bool",
        "numberOfBytes": "1"
      },
      "t_contract(IOpenAiChatGpt)1959": {
        "encoding": "inplace",
        "label": "contract IOpenAiChatGpt",
        "numberOfBytes": "20"
      },
      "t_enum(Situation)651": {
        "encoding": "inplace",
        "label": "enum LeadAgent.Situation",
        "numberOfBytes": "1"
      },
      "t_int8": {
        "encoding": "inplace",
        "label": "int8",
        "numberOfBytes": "1"
      },
      "t_mapping(t_uint256,t_struct(AgentRun)685_storage)": {
        "encoding": "mapping",
        "key": "t_uint256",
        "label": "mapping(uint256 => struct LeadAgent.AgentRun)",
        "numberOfBytes": "32",
        "value": "t_struct(AgentRun)685_storage"
      },
      "t_string_storage": {
        "encoding": "bytes",
        "label": "string",
        "numberOfBytes": "32"
      },
      "t_struct(AgentRun)685_storage": {
        "encoding": "inplace",
        "label": "struct LeadAgent.AgentRun",
        "members": [
          {
            "astId": 653,
            "contract": "contracts/LeadAgent.sol:LeadAgent",
            "label": "owner",
            "offset": 0,
            "slot": "0",
            "type": "t_address"
          },
          {
            "astId": 655,
            "contract": "contracts/LeadAgent.sol:LeadAgent",
            "label": "creator",
            "offset": 0,
            "slot": "1",
            "type": "t_address"
          },
          {
            "astId": 657,
            "contract": "contracts/LeadAgent.sol:LeadAgent",
            "label": "target",
            "offset": 0,
            "slot": "2",
            "type": "t_address"
          },
          {
            "astId": 659,
            "contract": "contracts/LeadAgent.sol:LeadAgent",
            "label": "targetFirstName",
            "offset": 0,
            "slot": "3",
            "type": "t_string_storage"
          },
          {
            "astId": 661,
            "contract": "contracts/LeadAgent.sol:LeadAgent",
            "label": "targetFriend",
            "offset": 0,
            "slot": "4",
            "type": "t_string_storage"
          },
          {
            "astId": 664,
            "contract": "contracts/LeadAgent.sol:LeadAgent",
            "label": "situation",
            "offset": 0,
            "slot": "5",
            "type": "t_enum(Situation)651"
          },
          {
            "astId": 666,
            "contract": "contracts/LeadAgent.sol:LeadAgent",
            "label": "publicInfo",
            "offset": 0,
            "slot": "6",
            "type": "t_string_storage"
          },
          {
            "astId": 668,
            "contract": "contracts/LeadAgent.sol:LeadAgent",
            "label": "privateInfo",
            "offset": 0,
            "slot": "7",
            "type": "t_string_storage"
          },
          {
            "astId": 670,
            "contract": "contracts/LeadAgent.sol:LeadAgent",
            "label": "groupTitle",
            "offset": 0,
            "slot": "8",
            "type": "t_string_storage"
          },
          {
            "astId": 672,
            "contract": "contracts/LeadAgent.sol:LeadAgent",
            "label": "groupImage",
            "offset": 0,
            "slot": "9",
            "type": "t_string_storage"
          },
          {
            "astId": 674,
            "contract": "contracts/LeadAgent.sol:LeadAgent",
            "label": "groupId",
            "offset": 0,
            "slot": "10",
            "type": "t_string_storage"
          },
          {
            "astId": 678,
            "contract": "contracts/LeadAgent.sol:LeadAgent",
            "label": "commands",
            "offset": 0,
            "slot": "11",
            "type": "t_array(t_struct(Message)648_storage)dyn_storage"
          },
          {
            "astId": 680,
            "contract": "contracts/LeadAgent.sol:LeadAgent",
            "label": "responsesCount",
            "offset": 0,
            "slot": "12",
            "type": "t_uint256"
          },
          {
            "astId": 682,
            "contract": "contracts/LeadAgent.sol:LeadAgent",
            "label": "max_iterations",
            "offset": 0,
            "slot": "13",
            "type": "t_uint8"
          },
          {
            "astId": 684,
            "contract": "contracts/LeadAgent.sol:LeadAgent",
            "label": "is_finished",
            "offset": 1,
            "slot": "13",
            "type": "t_bool"
          }
        ],
        "numberOfBytes": "448"
      },
      "t_struct(Message)648_storage": {
        "encoding": "inplace",
        "label": "struct LeadAgent.Message",
        "members": [
          {
            "astId": 645,
            "contract": "contracts/LeadAgent.sol:LeadAgent",
            "label": "role",
            "offset": 0,
            "slot": "0",
            "type": "t_string_storage"
          },
          {
            "astId": 647,
            "contract": "contracts/LeadAgent.sol:LeadAgent",
            "label": "content",
            "offset": 0,
            "slot": "1",
            "type": "t_string_storage"
          }
        ],
        "numberOfBytes": "64"
      },
      "t_struct(OpenAiRequest)2000_storage": {
        "encoding": "inplace",
        "label": "struct IOracle.OpenAiRequest",
        "members": [
          {
            "astId": 1975,
            "contract": "contracts/LeadAgent.sol:LeadAgent",
            "label": "model",
            "offset": 0,
            "slot": "0",
            "type": "t_string_storage"
          },
          {
            "astId": 1977,
            "contract": "contracts/LeadAgent.sol:LeadAgent",
            "label": "frequencyPenalty",
            "offset": 0,
            "slot": "1",
            "type": "t_int8"
          },
          {
            "astId": 1979,
            "contract": "contracts/LeadAgent.sol:LeadAgent",
            "label": "logitBias",
            "offset": 0,
            "slot": "2",
            "type": "t_string_storage"
          },
          {
            "astId": 1981,
            "contract": "contracts/LeadAgent.sol:LeadAgent",
            "label": "maxTokens",
            "offset": 0,
            "slot": "3",
            "type": "t_uint32"
          },
          {
            "astId": 1983,
            "contract": "contracts/LeadAgent.sol:LeadAgent",
            "label": "presencePenalty",
            "offset": 4,
            "slot": "3",
            "type": "t_int8"
          },
          {
            "astId": 1985,
            "contract": "contracts/LeadAgent.sol:LeadAgent",
            "label": "responseFormat",
            "offset": 0,
            "slot": "4",
            "type": "t_string_storage"
          },
          {
            "astId": 1987,
            "contract": "contracts/LeadAgent.sol:LeadAgent",
            "label": "seed",
            "offset": 0,
            "slot": "5",
            "type": "t_uint256"
          },
          {
            "astId": 1989,
            "contract": "contracts/LeadAgent.sol:LeadAgent",
            "label": "stop",
            "offset": 0,
            "slot": "6",
            "type": "t_string_storage"
          },
          {
            "astId": 1991,
            "contract": "contracts/LeadAgent.sol:LeadAgent",
            "label": "temperature",
            "offset": 0,
            "slot": "7",
            "type": "t_uint256"
          },
          {
            "astId": 1993,
            "contract": "contracts/LeadAgent.sol:LeadAgent",
            "label": "topP",
            "offset": 0,
            "slot": "8",
            "type": "t_uint256"
          },
          {
            "astId": 1995,
            "contract": "contracts/LeadAgent.sol:LeadAgent",
            "label": "tools",
            "offset": 0,
            "slot": "9",
            "type": "t_string_storage"
          },
          {
            "astId": 1997,
            "contract": "contracts/LeadAgent.sol:LeadAgent",
            "label": "toolChoice",
            "offset": 0,
            "slot": "10",
            "type": "t_string_storage"
          },
          {
            "astId": 1999,
            "contract": "contracts/LeadAgent.sol:LeadAgent",
            "label": "user",
            "offset": 0,
            "slot": "11",
            "type": "t_string_storage"
          }
        ],
        "numberOfBytes": "384"
      },
      "t_uint256": {
        "encoding": "inplace",
        "label": "uint256",
        "numberOfBytes": "32"
      },
      "t_uint32": {
        "encoding": "inplace",
        "label": "uint32",
        "numberOfBytes": "4"
      },
      "t_uint8": {
        "encoding": "inplace",
        "label": "uint8",
        "numberOfBytes": "1"
      }
    }
  }
}