{
  "address": "0x5F5837B1419F81c537479C985887eeEB5A99D0D6",
  "abi": [
    {
      "inputs": [
        {
          "internalType": "address",
          "name": "oracleAddress",
          "type": "address"
        }
      ],
      "name": "createSocialAgent",
      "outputs": [
        {
          "internalType": "address",
          "name": "",
          "type": "address"
        }
      ],
      "stateMutability": "nonpayable",
      "type": "function"
    }
  ],
  "transactionHash": "0xfb5093ed0481dca5a78868f7fff681be0ad20b4c1b6e18dc180ebafe1090b203",
  "args": [],
  "numDeployments": 2,
  "solcInputHash": "ceb6c6d22ea9bff8ba240d1c6de1a6fd",
  "bytecode": "0x6080806040523461001657613416908161001c8239f35b600080fdfe6080604090808252600436101561001557600080fd5b600091823560e01c630647303e1461002c57600080fd5b3461011b57602036600319011261011b576001600160a01b036004358181169390849003610117576132c1938482019067ffffffffffffffff958383108784111761010357918391602093620001208439815203019085f080156100f9571691823b156100f557815163e43252d760e01b815233600482015290848260248183885af180156100eb576100c4575b6020848451908152f35b81116100d75760209350815238806100ba565b634e487b7160e01b84526041600452602484fd5b83513d87823e3d90fd5b8380fd5b82513d86823e3d90fd5b634e487b7160e01b88526041600452602488fd5b8480fd5b8280fdfe6080346200112657601f620032c138819003918201601f19168301916001600160401b0383118484101762000b2f578084926020946040528339810103126200112657516001600160a01b03811690819003620011265760018060a01b031933816002541617600255600354161760035560006001556040516101a0810181811060018060401b0382111762000b2f576040526200009c6200112b565b601a81527f636c617564652d332d352d736f6e6e65742d32303234303632300000000000006020820152815260156020820152620000d96200114b565b6000815260408201526103e8606082015260156080820152620000fb6200112b565b600f81526e7b2274797065223a2274657874227d60881b602082015260a0820152600060c08201526200012d6200114b565b6000815260e0820152600a61010082015260656101208201526040516001600160401b0361046082019081119082111762000b2f57610460810160405261042a81527f5b7b2274797065223a2266756e6374696f6e222c2266756e6374696f6e223a7b60208201527f226e616d65223a227765625f736561726368222c226465736372697074696f6e60408201527f223a225365617263682074686520696e7465726e6574222c22706172616d657460608201527f657273223a7b2274797065223a226f626a656374222c2270726f70657274696560808201527f73223a7b227175657279223a7b2274797065223a22737472696e67222c22646560a08201527f736372697074696f6e223a22536561726368207175657279227d7d2c2272657160c08201527f7569726564223a5b227175657279225d7d7d7d2c7b2274797065223a2266756e60e08201527f6374696f6e222c2266756e6374696f6e223a7b226e616d65223a22636f64655f6101008201527f696e746572707265746572222c226465736372697074696f6e223a224576616c6101208201527f756174657320707974686f6e20636f646520696e20612073616e64626f7820656101408201527f6e7669726f6e6d656e742e2054686520656e7669726f6e6d656e7420726573656101608201527f7473206f6e20657665727920657865637574696f6e2e20596f75206d757374206101808201527f73656e64207468652077686f6c65207363726970742065766572792074696d656101a08201527f20616e64207072696e7420796f7572206f7574707574732e20536372697074206101c08201527f73686f756c64206265207075726520707974686f6e20636f64652074686174206101e08201527f63616e206265206576616c75617465642e2049742073686f756c6420626520696102008201527f6e20707974686f6e20666f726d6174204e4f54206d61726b646f776e2e2054686102208201527f6520636f64652073686f756c64204e4f54206265207772617070656420696e206102408201527f6261636b7469636b732e20416c6c20707974686f6e207061636b6167657320696102608201527f6e636c7564696e672072657175657374732c206d6174706c6f746c69622c20736102808201527f636970792c206e756d70792c2070616e6461732c2065746320617265206176616102a08201527f696c61626c652e204f75747075742063616e206f6e6c792062652072656164206102c08201527f66726f6d207374646f75742c20616e6420737464696e2e20446f206e6f7420756102e08201527f7365207468696e6773206c696b6520706c6f742e73686f7728292061732069746103008201527f2077696c6c206e6f7420776f726b2e207072696e74282920616e79206f7574706103208201527f757420616e6420726573756c747320736f20796f752063616e206361707475726103408201527f6520746865206f75747075742e222c22706172616d6574657273223a7b2274796103608201527f7065223a226f626a656374222c2270726f70657274696573223a7b22636f64656103808201527f223a7b2274797065223a22737472696e67222c226465736372697074696f6e226103a08201527f3a22546865207075726520707974686f6e2073637269707420746f20626520656103c08201527f76616c75617465642e2054686520636f6e74656e74732077696c6c20626520696103e08201527f6e206d61696e2e70792e2049742073686f756c64206e6f7420626520696e206d6104008201527f61726b646f776e20666f726d61742e227d7d2c227265717569726564223a5b2261042082015269636f6465225d7d7d7d5d60b01b610440820152610140820152620006936200112b565b60048152636175746f60e01b6020820152610160820152620006b46200114b565b6000815261018082015280518051906001600160401b03821162000b2f5760045490600182811c921680156200111b575b602083101462000b0e5781601f849311620010a9575b50602090601f83116001146200101a576000926200100e575b50508160011b916000199060031b1c1916176004555b602081015160ff19600554169060ff1617600555604081015180519060018060401b03821162000b2f5760065490600182811c9216801562001003575b602083101462000b0e5781601f84931162000fa2575b50602090601f831160011462000f245760009262000f18575b50508160011b916000199060031b1c1916176006555b63ffffffff60608201511660075490608083015160201b64ff00000000169164ffffffffff1916171760075560a081015180519060018060401b03821162000b2f5760085490600182811c9216801562000f0d575b602083101462000b0e5781601f84931162000eac575b50602090601f831160011462000e2e5760009262000e22575b50508160011b916000199060031b1c1916176008555b60c081015160095560e08101518051906001600160401b03821162000b2f57600a5490600182811c9216801562000e17575b602083101462000b0e5781601f84931162000db6575b50602090601f831160011462000d385760009262000d2c575b50508160011b916000199060031b1c191617600a555b610100810151600b55610120810151600c556101408101518051906001600160401b03821162000b2f57600d5490600182811c9216801562000d21575b602083101462000b0e5781601f84931162000cbd575b50602090601f831160011462000c3f5760009262000c33575b50508160011b916000199060031b1c191617600d555b610160810151805191906001600160401b03831162000b2f57600e54600181811c9116801562000c28575b602082101462000b0e57601f811162000bcf575b50602090601f841160011462000b515761018093916000918362000b45575b50508160011b916000199060031b1c191617600e555b015180516001600160401b03811162000b2f57600f54600181811c9116801562000b24575b602082101462000b0e57601f811162000aa4575b50602091601f821160011462000a3a5791819260009262000a2e575b50508160011b916000199060031b1c191617600f555b6040516120b590816200116c8239f35b01519050388062000a08565b601f19821692600f60005260206000209160005b85811062000a8b5750836001951062000a71575b505050811b01600f5562000a1e565b015160001960f88460031b161c1916905538808062000a62565b9192602060018192868501518155019401920162000a4e565b600f6000527f8d1108e10bcb7c27dddfc02ed9d693a074039d026cf4ea4240b40f7d581ac802601f830160051c8101916020841062000b03575b601f0160051c01905b81811062000af65750620009ec565b6000815560010162000ae7565b909150819062000ade565b634e487b7160e01b600052602260045260246000fd5b90607f1690620009d8565b634e487b7160e01b600052604160045260246000fd5b0151905038806200099d565b600e600090815260008051602062003221833981519152929190601f198616905b81811062000bb6575091600193918661018097941062000b9c575b505050811b01600e55620009b3565b015160001960f88460031b161c1916905538808062000b8d565b9293602060018192878601518155019501930162000b72565b600e60005260008051602062003221833981519152601f850160051c8101916020861062000c1d575b601f0160051c01905b81811062000c1057506200097e565b6000815560010162000c01565b909150819062000bf8565b90607f16906200096a565b01519050388062000929565b600d600090815293506000805160206200326183398151915291905b601f198416851062000ca1576001945083601f1981161062000c87575b505050811b01600d556200093f565b015160001960f88460031b161c1916905538808062000c78565b8181015183556020948501946001909301929091019062000c5b565b600d60005290915060008051602062003261833981519152601f840160051c8101916020851062000d16575b90601f859493920160051c01905b81811062000d06575062000910565b6000815584935060010162000cf7565b909150819062000ce9565b91607f1691620008fa565b015190503880620008a7565b600a600090815293506000805160206200324183398151915291905b601f198416851062000d9a576001945083601f1981161062000d80575b505050811b01600a55620008bd565b015160001960f88460031b161c1916905538808062000d71565b8181015183556020948501946001909301929091019062000d54565b600a60005290915060008051602062003241833981519152601f840160051c81016020851062000e0f575b90849392915b601f830160051c8201811062000dff5750506200088e565b6000815585945060010162000de7565b508062000de1565b91607f169162000878565b01519050388062000830565b6008600090815293506000805160206200328183398151915291905b601f198416851062000e90576001945083601f1981161062000e76575b505050811b0160085562000846565b015160001960f88460031b161c1916905538808062000e67565b8181015183556020948501946001909301929091019062000e4a565b600860005290915060008051602062003281833981519152601f840160051c81016020851062000f05575b90849392915b601f830160051c8201811062000ef557505062000817565b6000815585945060010162000edd565b508062000ed7565b91607f169162000801565b01519050388062000796565b600660009081529350600080516020620032a183398151915291905b601f198416851062000f86576001945083601f1981161062000f6c575b505050811b01600655620007ac565b015160001960f88460031b161c1916905538808062000f5d565b8181015183556020948501946001909301929091019062000f40565b6006600052909150600080516020620032a1833981519152601f840160051c81016020851062000ffb575b90849392915b601f830160051c8201811062000feb5750506200077d565b6000815585945060010162000fd3565b508062000fcd565b91607f169162000767565b01519050388062000714565b6004600090815293507f8a35acfbc15ff81a39ae7d344fd709f28e8600b4aa8c65c6b64bfe7fe36bd19b91905b601f19841685106200108d576001945083601f1981161062001073575b505050811b016004556200072a565b015160001960f88460031b161c1916905538808062001064565b8181015183556020948501946001909301929091019062001047565b60046000529091507f8a35acfbc15ff81a39ae7d344fd709f28e8600b4aa8c65c6b64bfe7fe36bd19b601f840160051c81016020851062001113575b90849392915b601f830160051c8201811062001103575050620006fb565b60008155859450600101620010eb565b5080620010e5565b91607f1691620006e5565b600080fd5b60408051919082016001600160401b0381118382101762000b2f57604052565b60405190602082016001600160401b0381118382101762000b2f5760405256fe608080604052600436101561001357600080fd5b60003560e01c90816306c933d8146114b3575080632843d1351461112d5780632d08d82a14610fff5780633af32abf14610fbc5780634c69c00f14610f4d578063632cc98b14610f1057806363c770d814610eb55780636d02802714610ded5780637397454d14610c855780638ab1d68114610b83578063941fac37146108ba57806395e6fad714610884578063a89ae4ba1461085b578063e43252d7146107b4578063e5fcc7bf146102ed578063eb17429a14610263578063ed6e39e5146101d05763f997cc25146100e557600080fd5b346101cb5760003660031901126101cb57604051600060105461010781611609565b808452906001908181169081156101a45750600114610149575b610145846101318186038261152b565b6040519182916020835260208301906116fc565b0390f35b6010600090815292507f1b6847dc741a1b0cd08d278845f9d819d87b734759afb55fe2de5cb82a9ae6725b82841061018c57505050810160200161013182610121565b80546020858701810191909152909301928101610174565b60ff191660208087019190915292151560051b850190920192506101319150839050610121565b600080fd5b346101cb5760203660031901126101cb576004356000526000602052604060002060028101546101ff81611fe0565b9160010160005b82811061021b57604051806101458682611732565b8061023c61024361022f61025e9486611805565b5060405192838092611643565b038261152b565b61024d8287611fcc565b526102588186611fcc565b506117d6565b610206565b346101cb5760203660031901126101cb5760043560005260006020526040600020600281015461029281611fe0565b91600190810160005b8381106102b057604051806101458782611732565b80836102d36102c26102e89486611805565b5061023c6040518094819301611643565b6102dd8288611fcc565b526102588187611fcc565b61029b565b346101cb5760603660031901126101cb5767ffffffffffffffff6024358181116101cb57610160908160031982360301126101cb57604051918201828110848211176106f25760405280600401358381116101cb576103529060043691840101611565565b825260248101358381116101cb576103709060043691840101611565565b602083015260448101358381116101cb576103919060043691840101611565565b604083015260648101358381116101cb576103b29060043691840101611565565b6060830152608481013583811681036101cb57608083015260a48101358381116101cb576103e69060043691840101611565565b60a083015260c48101358381116101cb576104079060043691840101611565565b60c083015260e48101358381116101cb576104609161042f6101449260043691840101611565565b60e08501526104416101048201611721565b6101008501526104546101248201611721565b61012085015201611721565b6101408201526044358281116101cb5761047e903690600401611565565b61049360018060a01b03600354163314611f64565b60043560005260006020526040600020916002830154600019810190811161079e5761023c6104cb61022f6104d99360018801611805565b6104d36117e5565b9061202a565b15610759576104f76040516104ed8161150f565b600081528361202a565b61053a57506105279192506040519061050f826114f3565b610517611fa7565b825260208201526001830161187f565b6002610535818301546117d6565b910155005b905061055a6040820151604051906105518261150f565b6000825261202a565b61070857604081015192600435600052601160205260406000209084519081116106f2576105928161058c8454611609565b84611838565b6020601f821160011461068957819293949560009261067e575b50508160011b916000199060031b1c19161790555b610621602060018060a01b036003541660408401519061060f600060608701519360405196879586948593634b04236b60e01b855260043560048601526060602486015260648501906116fc565b838103600319016044850152906116fc565b03925af1801561067257610647575b506020610527915b01516040519061050f826114f3565b602090813d831161066b575b61065d818361152b565b810103126101cb5782610630565b503d610653565b6040513d6000823e3d90fd5b0151905085806105ac565b8260005260206000209060005b601f19841681106106da575060019394959683601f198116106106c1575b505050811b0190556105c1565b015160001960f88460031b161c191690558580806106b4565b9091602060018192858b015181550193019101610696565b634e487b7160e01b600052604160045260246000fd5b6105279192506020906004356000526011825260006040812061072b8154611609565b601f811161073b575b5055610638565b81835284832061075391601f0160051c810190611821565b86610734565b60405162461bcd60e51b815260206004820152601860248201527f4e6f206d65737361676520746f20726573706f6e6420746f00000000000000006044820152606490fd5b634e487b7160e01b600052601160045260246000fd5b346101cb5760203660031901126101cb576004356001600160a01b03808216908183036101cb576107ea90600254163314611794565b600052601260205260ff604060002054161561080257005b6040600020805460ff1916600117905560135490600160401b8210156106f25761083582600161085994016013556115bc565b90919082549060031b9160018060a01b039283811b93849216901b16911916179055565b005b346101cb5760003660031901126101cb576003546040516001600160a01b039091168152602090f35b346101cb5760203660031901126101cb57600435600052601160205261014561023c610131604060002060405192838092611643565b346101cb576003196040368201126101cb5760043567ffffffffffffffff81116101cb576108ec903690600401611565565b90602435908160005260209160008352604060002093600180860195600281018054600019810190811161079e5761023c61092d61022f610935938c611805565b6104d3611fa7565b15610b3e5790546001600160a01b03919082163303610afb57610977879860409897985190610963826114f3565b61096b6117e5565b8252868983015261187f565b61098181546117d6565b905561098e601054611609565b15610abe57600354169160405195869463a252a95160e01b8652600486015260806024860152600092601054906109c482611609565b91826084890152878282169182600014610a97575050600114610a38575b50506109fd83600093879593868095030160448501526116fc565b6003606483015203925af1801561067257610a1457005b813d8311610a31575b610a27818361152b565b810103126101cb57005b503d610a1d565b60106000908152929450877f1b6847dc741a1b0cd08d278845f9d819d87b734759afb55fe2de5cb82a9ae6725b838510610a7f5750505050840160a401916109fd856109e2565b80548b860160a401528a985093019288908201610a65565b60ff191660a48083019190915293151560051b810190930195506109fd9291506109e29050565b60035460405163cbbfd0b760e01b815296508694911692508391506000908290610aeb9060048301611a3e565b03925af1801561067257610a1457005b6064876040519062461bcd60e51b825280600483015260248201527f4f6e6c792063686174206f776e65722063616e20616464206d657373616765736044820152fd5b60405162461bcd60e51b815260048101889052601f60248201527f4e6f20726573706f6e736520746f2070726576696f7573206d657373616765006044820152606490fd5b346101cb5760203660031901126101cb576001600160a01b03600435818116908190036101cb57610bb982600254163314611794565b80600052601260205260ff60406000205416610bd157005b604060002060ff1981541690556000905b6013918254928382101561085957849383610bfc846115bc565b979054600398891b1c1614610c1f575050610c19919293506117d6565b90610be2565b909392506000199182820191821161079e5761083584610c41610c4e946115bc565b905490891b1c16916115bc565b82548015610c6f570192610c61846115bc565b81939154921b1b1916905555005b634e487b7160e01b600052603160045260246000fd5b346101cb5760603660031901126101cb5760043567ffffffffffffffff6024358181116101cb57610cba903690600401611565565b906044359081116101cb57610cd3903690600401611565565b6003546001600160a01b03929190610cee9084163314611f64565b8360005260209360118552610d2061023c610d13604060002060405192838092611643565b604051906105518261150f565b610da8578060005260008552610d42604060002092604051906105518261150f565b610d4857005b6000936002610aeb93610d7a889660405190610d63826114f3565b610d6b6117e5565b8252888201526001830161187f565b01610d8581546117d6565b9055600354169060405194858094819363cbbfd0b760e01b835260048301611a3e565b60405162461bcd60e51b815260048101869052601960248201527f4e6f2066756e6374696f6e20746f20726573706f6e6420746f000000000000006044820152606490fd5b346101cb5760003660031901126101cb57604051806013548083526020809301809160136000527f66de8ffda797e3de9c05e8fc57b3bf0ec28a930d40b0d285d93c06501cf6a0909060005b86828210610e98578686610e4f8288038361152b565b604051928392818401908285525180915260408401929160005b828110610e7857505050500390f35b83516001600160a01b031685528695509381019392810192600101610e69565b83546001600160a01b031685529093019260019283019201610e39565b346101cb5760203660031901126101cb576004356013548110156101cb5760136000527f66de8ffda797e3de9c05e8fc57b3bf0ec28a930d40b0d285d93c06501cf6a09001546040516001600160a01b039091168152602090f35b346101cb5760203660031901126101cb576004356000526000602052604080600020600260018060a01b0382541691015482519182526020820152f35b346101cb5760203660031901126101cb576004356001600160a01b03818116918290036101cb57610f8390600254163314611794565b600380546001600160a01b031916821790557f107a9fafffb7ac890f780879e423760c9ffea8dcee8045681f40f542aede2cb8600080a2005b346101cb5760203660031901126101cb576004356001600160a01b038116908190036101cb576000526012602052602060ff604060002054166040519015158152f35b346101cb576020806003193601126101cb5760043567ffffffffffffffff81116101cb5760026110356001923690600401611565565b825460005260008452611081604060002091336bffffffffffffffffffffffff60a01b8454161783556040519061106b826114f3565b6110736117e5565b82528682015284830161187f565b015560015461108f816117d6565b60015560035460405163cbbfd0b760e01b815290839082906001600160a01b0316816000816110c18860048301611a3e565b03925af1908115610672578391611104575b50506040519080337fd1de2c4de50323207202f3df0bb1dec1a42e233aec245f25519d674c10bd72ca600080a38152f35b813d8311611126575b611117818361152b565b810103126101cb5781836110d3565b503d61110d565b346101cb5760603660031901126101cb576024803560043567ffffffffffffffff8083116101cb57366023840112156101cb5782600401359261116f8461154d565b9061117d604051928361152b565b848252602094868684019160051b830101913683116101cb57878101915b83831061148d57505050506044358281116101cb576111be903690600401611565565b506003546001600160a01b0392906111d99084163314611f64565b8360005260008552604060002060016002818301920154600019928382019182116114785761121161023c6104cb61022f8585611805565b1561143457829161122191611805565b500193816040519161123e83611237818a611643565b038461152b565b898382516113dd575b509082916000935b61135c575b5050505080519384116113475787985061127b84611275879a999a54611609565b87611838565b8690601f85116001146112d85792848093610aeb98969360009b98968c956112cd575b50501b9260031b1c19161790555b600354169060405194858094819363cbbfd0b760e01b835260048301611a3e565b015193508c8061129e565b91939290601f1984169286600052886000209360005b81811061133257509185939160009b9896610aeb9a9896941061131a575b50505050811b0190556112ac565b01519060f88460031b161c191690558980808061130c565b82840151865594870194928a01928a016112ee565b88634e487b7160e01b60005260416004526000fd5b9091929382518510156113d257906113c360216113c99361137d8887611fcc565b5193604051948261139787945180928580880191016116d9565b83016113ab825180938580850191016116d9565b600560f91b910191820152038681018452018261152b565b936117d6565b91908a8261124f565b935082915080611254565b6113ff92945061142c91603491604051948592825192818492860191016116d9565b81018d7305052932b632bb30b73a1031b7b73a32bc3a1d0560611b9082015203601481018452018261152b565b91898c611247565b60405162461bcd60e51b8152600481018a9052601c818c01527f4e6f206d65737361676520746f2061646420636f6e7465787420746f000000006044820152606490fd5b89634e487b7160e01b60005260116004526000fd5b82358681116101cb5788916114a883928c3691870101611565565b81520192019161119b565b346101cb5760203660031901126101cb576004356001600160a01b03811691908290036101cb576020916000526012825260ff6040600020541615158152f35b6040810190811067ffffffffffffffff8211176106f257604052565b6020810190811067ffffffffffffffff8211176106f257604052565b90601f8019910116810190811067ffffffffffffffff8211176106f257604052565b67ffffffffffffffff81116106f25760051b60200190565b81601f820112156101cb5780359067ffffffffffffffff82116106f2576040519261159a601f8401601f19166020018561152b565b828452602083830101116101cb57816000926020809301838601378301015290565b6013548110156115f35760136000527f66de8ffda797e3de9c05e8fc57b3bf0ec28a930d40b0d285d93c06501cf6a0900190600090565b634e487b7160e01b600052603260045260246000fd5b90600182811c92168015611639575b602083101461162357565b634e487b7160e01b600052602260045260246000fd5b91607f1691611618565b906000929180549161165483611609565b9182825260019384811690816000146116b65750600114611676575b50505050565b90919394506000526020928360002092846000945b8386106116a2575050505001019038808080611670565b80548587018301529401938590820161168b565b9294505050602093945060ff191683830152151560051b01019038808080611670565b60005b8381106116ec5750506000910152565b81810151838201526020016116dc565b90602091611715815180928185528580860191016116d9565b601f01601f1916010190565b359063ffffffff821682036101cb57565b602080820190808352835180925260408301928160408460051b8301019501936000915b8483106117665750505050505090565b9091929394958480611784600193603f198682030187528a516116fc565b9801930193019194939290611756565b1561179b57565b60405162461bcd60e51b815260206004820152601360248201527221b0b63632b91034b9903737ba1037bbb732b960691b6044820152606490fd5b600019811461079e5760010190565b604051906117f2826114f3565b60048252633ab9b2b960e11b6020830152565b80548210156115f35760005260206000209060011b0190600090565b81811061182c575050565b60008155600101611821565b9190601f811161184757505050565b611873926000526020600020906020601f840160051c83019310611875575b601f0160051c0190611821565b565b9091508190611866565b8054600160401b8110156106f25761189e906001928382018155611805565b611a285782519081519167ffffffffffffffff928381116106f25784916118cf826118c98654611609565b86611838565b602090601f83116001146119bf576020949291600091836119b4575b5050600019600383901b1c191690831b1781555b0193015180519182116106f25761191a826118c98654611609565b602090601f831160011461195457928293918392600094611949575b50501b916000199060031b1c1916179055565b015192503880611936565b90601f198316918560005283826000209360005b8782821061199b57505010611982575b505050811b019055565b015160001960f88460031b161c19169055388080611978565b8486015187559095019460209485019487935001611968565b0151905038806118eb565b90601f1983169185600052816000209260005b818110611a10575091859391856020989694106119f7575b505050811b0181556118ff565b015160001960f88460031b161c191690553880806119ea565b828401518555899690940193602093840193016119d2565b634e487b7160e01b600052600060045260246000fd5b90815260206040818301526101a0806040840152600060045493611a6185611609565b806101e08301526001958681169081600014611f455750600114611ee7575b50600592835460000b6060830152603f19908183850301608084015260009360065490611aac82611609565b91828252888a82169182600014611ec9575050600114611e6f575b505060075463ffffffff811660a0850152861c60000b60c0840152818385030160e084015260009360085490611afc82611609565b91828252888a82169182600014611e51575050600114611df7575b50506009546101008401528284038201610120840152600a54600094611b3c82611609565b91828252888a82169182600014611dd9575050600114611d7f575b5050600b54610140840152600c546101608401528284038201610180840152600d54600094611b8582611609565b91828252888a82169182600014611d61575050600114611d07575b5050828403820190830152600e54600093611bba82611609565b91828252878982169182600014611ce7575050600114611c89575b50506101c09082840301910152600093600f54611bf181611609565b80845293818316918215611c6a575050600114611c10575b5050505090565b92935090600f6000527f8d1108e10bcb7c27dddfc02ed9d693a074039d026cf4ea4240b40f7d581ac80292846000945b838610611c565750505050010138808080611c09565b805485870183015294019385908201611c40565b925093929495505060ff1916848401521515901b010138808080611c09565b8691929450600e6000527fbb7b4a454dc3493923482f07822329ed19e8244eff582cc204f8554c3620c3fd90886000925b858410611cd157505001019290506101c038611bd5565b80548385018601528994909301928a9101611cba565b60ff191683820152921515871b90910190910193506101c0905038611bd5565b87929550600d6000527fd7b6990105719101dabeb77144f2a3385c8033acd3af97e9423a695e81ad1eb591896000935b828510611d4b575050500101923880611ba0565b80548585018701528a95909401938b9101611d37565b60ff191683820152921515881b909101909101945038905080611ba0565b87929550600a6000527fc65a7bb8d6351c1cf70c95a316cc6a92839c986682d98bc35f958f4883f9d2a891896000935b828510611dc3575050500101923880611b57565b80548585018701528a95909401938b9101611daf565b60ff191683820152921515881b909101909101945038905080611b57565b8792955060086000527ff3f7a9fe364faab93b216da50a3214154f22a0a2b415b23a84c8169e8b636ee391896000935b828510611e3b575050500101923880611b17565b80548585018701528a95909401938b9101611e27565b60ff191683820152921515881b909101909101945038905080611b17565b8792955060066000527ff652222313e28459528d920b65115c16c04f3efc82aaedc97be59f3f377c0d3f91896000935b828510611eb3575050500101923880611ac7565b80548585018701528a95909401938b9101611e9f565b60ff191683820152921515881b909101909101945038905080611ac7565b90915060046000527f8a35acfbc15ff81a39ae7d344fd709f28e8600b4aa8c65c6b64bfe7fe36bd19b84866000925b848410611f2f5750505061020091508201019038611a80565b8054610200858801015201910190868691611f16565b929350506102009160ff191682840152151560051b8201019038611a80565b15611f6b57565b60405162461bcd60e51b815260206004820152601460248201527343616c6c6572206973206e6f74206f7261636c6560601b6044820152606490fd5b60405190611fb4826114f3565b6009825268185cdcda5cdd185b9d60ba1b6020830152565b80518210156115f35760209160051b010190565b90611fea8261154d565b611ff7604051918261152b565b8281528092612008601f199161154d565b019060005b82811061201957505050565b80606060208093850101520161200d565b906040519160209261205884828161204b81830196878151938492016116d9565b810103808452018261152b565b5190209161207860405191828161204b81830196878151938492016116d9565b519020149056fea264697066735822122037083bcb9b60415df14475b1a874d0cfb71f30d9e5dec8b4cfcdf6684519da7364736f6c63430008110033bb7b4a454dc3493923482f07822329ed19e8244eff582cc204f8554c3620c3fdc65a7bb8d6351c1cf70c95a316cc6a92839c986682d98bc35f958f4883f9d2a8d7b6990105719101dabeb77144f2a3385c8033acd3af97e9423a695e81ad1eb5f3f7a9fe364faab93b216da50a3214154f22a0a2b415b23a84c8169e8b636ee3f652222313e28459528d920b65115c16c04f3efc82aaedc97be59f3f377c0d3fa2646970667358221220f7f2974e643a8bf950674efec6c4b2ce5e4ec0a7046af08b9e9e4bd4eef6a94d64736f6c63430008110033",
  "devdoc": {
    "kind": "dev",
    "methods": {},
    "version": 1
  },
  "userdoc": {
    "kind": "user",
    "methods": {},
    "version": 1
  },
  "storageLayout": {
    "storage": [],
    "types": null
  }
}