{
  "address": "0xA4aB4e7b30d5EE4650f02c11A0c9BFFA6def032b",
  "abi": [
    {
      "inputs": [
        {
          "internalType": "address",
          "name": "oracleAddress",
          "type": "address"
        }
      ],
      "name": "createTechAgent",
      "outputs": [
        {
          "internalType": "address",
          "name": "",
          "type": "address"
        }
      ],
      "stateMutability": "nonpayable",
      "type": "function"
    }
  ],
  "transactionHash": "0x02bc6435f5c3371f3773e09e7d1942e735e40ef733ead00c20c22d549407e5ea",
  "args": [],
  "numDeployments": 1,
  "solcInputHash": "7951b17f03e190c57ab6f1c3a94c86da",
  "bytecode": "0x6080806040523461001657612ae3908161001c8239f35b600080fdfe6080604090808252600436101561001557600080fd5b600091823560e01c63e2079a831461002c57600080fd5b3461011b57602036600319011261011b576001600160a01b0360043581811693908490036101175761298e938482019067ffffffffffffffff958383108784111761010357918391602093620001208439815203019085f080156100f9571691823b156100f557815163e43252d760e01b815233600482015290848260248183885af180156100eb576100c4575b6020848451908152f35b81116100d75760209350815238806100ba565b634e487b7160e01b84526041600452602484fd5b83513d87823e3d90fd5b8380fd5b82513d86823e3d90fd5b634e487b7160e01b88526041600452602488fd5b8480fd5b8280fdfe6080346200113357601f6200298e38819003918201601f19168301916001600160401b0383118484101762000b2f578084926020946040528339810103126200113357516001600160a01b03811690819003620011335760018060a01b031933816002541617600255600354161760035560006001556040516101a0810181811060018060401b0382111762000b2f576040526200009c62001138565b601381527f6770742d342d747572626f2d70726576696577000000000000000000000000006020820152815260156020820152620000d962001158565b6000815260408201526103e8606082015260156080820152620000fb62001138565b600f81526e7b2274797065223a2274657874227d60881b602082015260a0820152600060c08201526200012d62001158565b6000815260e0820152600a61010082015260656101208201526040516001600160401b0361046082019081119082111762000b2f57610460810160405261042a81527f5b7b2274797065223a2266756e6374696f6e222c2266756e6374696f6e223a7b60208201527f226e616d65223a227765625f736561726368222c226465736372697074696f6e60408201527f223a225365617263682074686520696e7465726e6574222c22706172616d657460608201527f657273223a7b2274797065223a226f626a656374222c2270726f70657274696560808201527f73223a7b227175657279223a7b2274797065223a22737472696e67222c22646560a08201527f736372697074696f6e223a22536561726368207175657279227d7d2c2272657160c08201527f7569726564223a5b227175657279225d7d7d7d2c7b2274797065223a2266756e60e08201527f6374696f6e222c2266756e6374696f6e223a7b226e616d65223a22636f64655f6101008201527f696e746572707265746572222c226465736372697074696f6e223a224576616c6101208201527f756174657320707974686f6e20636f646520696e20612073616e64626f7820656101408201527f6e7669726f6e6d656e742e2054686520656e7669726f6e6d656e7420726573656101608201527f7473206f6e20657665727920657865637574696f6e2e20596f75206d757374206101808201527f73656e64207468652077686f6c65207363726970742065766572792074696d656101a08201527f20616e64207072696e7420796f7572206f7574707574732e20536372697074206101c08201527f73686f756c64206265207075726520707974686f6e20636f64652074686174206101e08201527f63616e206265206576616c75617465642e2049742073686f756c6420626520696102008201527f6e20707974686f6e20666f726d6174204e4f54206d61726b646f776e2e2054686102208201527f6520636f64652073686f756c64204e4f54206265207772617070656420696e206102408201527f6261636b7469636b732e20416c6c20707974686f6e207061636b6167657320696102608201527f6e636c7564696e672072657175657374732c206d6174706c6f746c69622c20736102808201527f636970792c206e756d70792c2070616e6461732c2065746320617265206176616102a08201527f696c61626c652e204f75747075742063616e206f6e6c792062652072656164206102c08201527f66726f6d207374646f75742c20616e6420737464696e2e20446f206e6f7420756102e08201527f7365207468696e6773206c696b6520706c6f742e73686f7728292061732069746103008201527f2077696c6c206e6f7420776f726b2e207072696e74282920616e79206f7574706103208201527f757420616e6420726573756c747320736f20796f752063616e206361707475726103408201527f6520746865206f75747075742e222c22706172616d6574657273223a7b2274796103608201527f7065223a226f626a656374222c2270726f70657274696573223a7b22636f64656103808201527f223a7b2274797065223a22737472696e67222c226465736372697074696f6e226103a08201527f3a22546865207075726520707974686f6e2073637269707420746f20626520656103c08201527f76616c75617465642e2054686520636f6e74656e74732077696c6c20626520696103e08201527f6e206d61696e2e70792e2049742073686f756c64206e6f7420626520696e206d6104008201527f61726b646f776e20666f726d61742e227d7d2c227265717569726564223a5b2261042082015269636f6465225d7d7d7d5d60b01b6104408201526101408201526200069362001138565b60048152636175746f60e01b6020820152610160820152620006b462001158565b6000815261018082015280518051906001600160401b03821162000b2f5760055490600182811c9216801562001128575b602083101462000b0e5781601f849311620010d2575b50602090601f8311600114620010435760009262001037575b50508160011b916000199060031b1c1916176005555b602081015160ff19600654169060ff1617600655604081015180519060018060401b03821162000b2f5760075490600182811c921680156200102c575b602083101462000b0e5781601f84931162000fcb575b50602090601f831160011462000f4d5760009262000f41575b50508160011b916000199060031b1c1916176007555b63ffffffff60608201511660085490608083015160201b64ff00000000169164ffffffffff1916171760085560a081015180519060018060401b03821162000b2f5760095490600182811c9216801562000f36575b602083101462000b0e5781601f84931162000ed5575b50602090601f831160011462000e575760009262000e4b575b50508160011b916000199060031b1c1916176009555b60c0810151600a5560e08101518051906001600160401b03821162000b2f57600b5490600182811c9216801562000e40575b602083101462000b0e5781601f84931162000dce575b50602090601f831160011462000d3f5760009262000d33575b50508160011b916000199060031b1c191617600b555b610100810151600c55610120810151600d556101408101518051906001600160401b03821162000b2f57600e5490600182811c9216801562000d28575b602083101462000b0e5781601f84931162000cc4575b50602090601f831160011462000c465760009262000c3a575b50508160011b916000199060031b1c191617600e555b610160810151805191906001600160401b03831162000b2f57600f54600181811c9116801562000c2f575b602082101462000b0e57601f811162000bc5575b50602090601f841160011462000b515761018093916000918362000b45575b50508160011b916000199060031b1c191617600f555b015180516001600160401b03811162000b2f57601054600181811c9116801562000b24575b602082101462000b0e57601f811162000aa4575b50602091601f821160011462000a3a5791819260009262000a2e575b50508160011b916000199060031b1c1916176010555b6040516117b59081620011798239f35b01519050388062000a08565b601f19821692601060005260206000209160005b85811062000a8b5750836001951062000a71575b505050811b0160105562000a1e565b015160001960f88460031b161c1916905538808062000a62565b9192602060018192868501518155019401920162000a4e565b60106000527f1b6847dc741a1b0cd08d278845f9d819d87b734759afb55fe2de5cb82a9ae672601f830160051c8101916020841062000b03575b601f0160051c01905b81811062000af65750620009ec565b6000815560010162000ae7565b909150819062000ade565b634e487b7160e01b600052602260045260246000fd5b90607f1690620009d8565b634e487b7160e01b600052604160045260246000fd5b0151905038806200099d565b90600f60005260206000209160005b601f198616811062000bac575091849160019361018096601f1981161062000b92575b505050811b01600f55620009b3565b015160001960f88460031b161c1916905538808062000b83565b9192602060018192868501518155019401920162000b60565b600f6000527f8d1108e10bcb7c27dddfc02ed9d693a074039d026cf4ea4240b40f7d581ac802601f850160051c8101916020861062000c24575b601f0160051c01905b81811062000c1757506200097e565b6000815560010162000c08565b909150819062000bff565b90607f16906200096a565b01519050388062000929565b600e600090815293506000805160206200292e83398151915291905b601f198416851062000ca8576001945083601f1981161062000c8e575b505050811b01600e556200093f565b015160001960f88460031b161c1916905538808062000c7f565b8181015183556020948501946001909301929091019062000c62565b600e6000529091506000805160206200292e833981519152601f840160051c8101916020851062000d1d575b90601f859493920160051c01905b81811062000d0d575062000910565b6000815584935060010162000cfe565b909150819062000cf0565b91607f1691620008fa565b015190503880620008a7565b600b600090815293507f0175b7a638427703f0dbe7bb9bbf987a2551717b34e79f33b5b1008d1fa01db991905b601f198416851062000db2576001945083601f1981161062000d98575b505050811b01600b55620008bd565b015160001960f88460031b161c1916905538808062000d89565b8181015183556020948501946001909301929091019062000d6c565b600b6000529091507f0175b7a638427703f0dbe7bb9bbf987a2551717b34e79f33b5b1008d1fa01db9601f840160051c81016020851062000e38575b90849392915b601f830160051c8201811062000e285750506200088e565b6000815585945060010162000e10565b508062000e0a565b91607f169162000878565b01519050388062000830565b6009600090815293506000805160206200296e83398151915291905b601f198416851062000eb9576001945083601f1981161062000e9f575b505050811b0160095562000846565b015160001960f88460031b161c1916905538808062000e90565b8181015183556020948501946001909301929091019062000e73565b60096000529091506000805160206200296e833981519152601f840160051c81016020851062000f2e575b90849392915b601f830160051c8201811062000f1e57505062000817565b6000815585945060010162000f06565b508062000f00565b91607f169162000801565b01519050388062000796565b6007600090815293506000805160206200294e83398151915291905b601f198416851062000faf576001945083601f1981161062000f95575b505050811b01600755620007ac565b015160001960f88460031b161c1916905538808062000f86565b8181015183556020948501946001909301929091019062000f69565b60076000529091506000805160206200294e833981519152601f840160051c81016020851062001024575b90849392915b601f830160051c82018110620010145750506200077d565b6000815585945060010162000ffc565b508062000ff6565b91607f169162000767565b01519050388062000714565b6005600090815293507f036b6384b5eca791c62761152d0c79bb0604c104a5fb6f4eb0703f3154bb3db091905b601f1984168510620010b6576001945083601f198116106200109c575b505050811b016005556200072a565b015160001960f88460031b161c191690553880806200108d565b8181015183556020948501946001909301929091019062001070565b90915060056000526020600020601f840160051c81016020851062001120575b90849392915b601f830160051c8201811062001110575050620006fb565b60008155859450600101620010f8565b5080620010f2565b91607f1691620006e5565b600080fd5b60408051919082016001600160401b0381118382101762000b2f57604052565b60405190602082016001600160401b0381118382101762000b2f5760405256fe608060409080825260048036101561001657600080fd5b600091823560e01c90816306c933d814610b7a575080632d08d82a14610a265780634c69c00f146109b85780634cecd88e1461060d578063632cc98b146105d35780637397454d1461040d5780638ab1d681146103c3578063941fac371461023d578063a89ae4ba14610214578063e43252d7146101bf578063eb17429a1461013c5763ed6e39e5146100a857600080fd5b34610138576020366003190112610138573581528060205281812091600283015460016100d4826116cc565b939401935b8181106100f1578251806100ed8682610cdb565b0390f35b806101116101186101056101339489610d9f565b5086519283809261106c565b0382610c04565b6101228287611716565b5261012d8186611716565b5061168f565b6100d9565b5080fd5b50346101385760203660031901126101385735815280602052818120916002830154610167816116cc565b926001809501905b828110610183578351806100ed8782610cdb565b80866101a56101956101ba9486610d9f565b506101118851809481930161106c565b6101af8288611716565b5261012d8187611716565b61016f565b508290346102105760203660031901126102105780356001600160a01b038181169182900361020c576101f790600254163314610d3d565b83526020528120805460ff1916600117905580f35b8480fd5b8280fd5b82843461013857816003193601126101385760035490516001600160a01b039091168152602090f35b509134610138578060031936011261013857823567ffffffffffffffff81116102105761026d9036908501610c26565b9060243580845260209284845282852090600260018301920191825460001981019081116103b0576101116102b46102a86102c29385610d9f565b5088519283809261106c565b6102bc61166a565b9061172a565b1561036d5785926102f38695938a936103259851916102e083610bb6565b6102e8610d7f565b835287830152610e0b565b6102fd815461168f565b905560018060a01b036003541690878551809781958294633c38a5f560e01b84528301611102565b03925af19081156103645750610339578280f35b813d831161035d575b61034c8183610c04565b8101031261035a5781808280f35b80fd5b503d610342565b513d85823e3d90fd5b845162461bcd60e51b8152808901879052601f60248201527f4e6f20726573706f6e736520746f2070726576696f7573206d657373616765006044820152606490fd5b634e487b7160e01b885260118952602488fd5b508290346102105760203660031901126102105780356001600160a01b038181169182900361020c576103fb90600254163314610d3d565b83526020528120805460ff1916905580f35b5082346102105760603660031901126102105781359067ffffffffffffffff6024358181116105cf576104439036908601610c26565b906044359081116105cf5761045b9036908601610c26565b9260018060a01b039461047386600354163314611627565b81875260209587875284882095600260018801970190815460001981019081116105bc576101116104b66104aa6104be938c610d9f565b508a519283809261106c565b6102bc610d7f565b156105795786516104da916104d282610be8565b8b825261172a565b6104e2578880f35b61050a8895610535988851916104f783610bb6565b6104ff610d7f565b835288830152610e0b565b610514815461168f565b90556003541690878551809781958294633c38a5f560e01b84528301611102565b03925af19081156103645750610550575b8080808080808880f35b813d8311610572575b6105638183610c04565b8101031261035a578180610546565b503d610559565b865162461bcd60e51b81528085018a9052601960248201527f4e6f2066756e6374696f6e20746f20726573706f6e6420746f000000000000006044820152606490fd5b634e487b7160e01b8b526011855260248bfd5b8580fd5b50829034610210576020366003190112610210579181923581528060205220600260018060a01b0382541691015482519182526020820152f35b50829034610210576003196060368201126109b45767ffffffffffffffff9060248035919084358484116109b05761016090818486360301126109ac5787519182018281108782111761099a578852848701358681116109965761067690883691880101610c26565b8252828501358681116109965761069290883691880101610c26565b966020968784019889526044870135818111610992576106b7908336918a0101610c26565b938a8101948552606488013582811161098e576106d9908436918b0101610c26565b97606082019889526084810135838116810361098a57608083015260a481013583811161098a5761070f90853691840101610c26565b60a083015260c481013583811161098a5761072f90853691840101610c26565b60c083015260e48101359083821161098a5761014461078b9161075a61014094883691840101610c26565b60e086015261076c6101048201610c82565b61010086015261077f6101248201610c82565b61012086015201610c82565b910152604435908111610986576107a59036908301610c26565b9460018060a01b03966107bd88600354163314611627565b838c528b89528a8c2097600260018a0199019a8b546000198101908111610974576101116104b68f6107f26107fe948f610d9f565b5090519283809261106c565b1561093257908d949392916108208e5161081781610be8565b8781528b61172a565b61085e5750505050505050505061084f9394519261083d84610bb6565b61084561166a565b8452830152610e0b565b610859815461168f565b905580f35b909396999194979a9c9b9295985061088581518d519061087d82610be8565b8a825261172a565b156109145750505089969492606099989694926108cb6108da936003541697519151918b519c8d9a8b998a98634b04236b60e01b8a528901528701526064860190610cb6565b91848303016044850152610cb6565b03925af190811561036457506108ef57505080f35b813d831161090d575b6109028183610c04565b8101031261035a5780f35b503d6108f8565b965097509997505050505061084f9491505190519261083d84610bb6565b8c5162461bcd60e51b81528086018c90526018818a01527f4e6f206d65737361676520746f20726573706f6e6420746f00000000000000006044820152606490fd5b634e487b7160e01b8f5260118652888ffd5b8a80fd5b8d80fd5b8c80fd5b8b80fd5b8980fd5b634e487b7160e01b8a5260418852838afd5b8880fd5b8780fd5b8380fd5b503461013857602036600319011261013857356001600160a01b0381811691829003610210576109ed90600254163314610d3d565b600380546001600160a01b031916821790557f107a9fafffb7ac890f780879e423760c9ffea8dcee8045681f40f542aede2cb88280a280f35b509134610138576020928360031936011261021057803567ffffffffffffffff81116109b45790610a5d6002939236908301610c26565b600193849182548752868852610aa985882091336bffffffffffffffffffffffff60a01b845416178355865190610a9382610bb6565b610a9b610d7f565b82528a820152848301610e0b565b015582549280840190818511610b6757556003548251633c38a5f560e01b815291869183916001600160a01b0390911690829088908290610aed908a908301611102565b03925af18015610b5d578392918691610b2e575b505051927fd1de2c4de50323207202f3df0bb1dec1a42e233aec245f25519d674c10bd72ca339180a38152f35b90809293503d8311610b56575b610b458183610c04565b810103126102105781908438610b01565b503d610b3b565b82513d86823e3d90fd5b634e487b7160e01b865260118352602486fd5b91849150346109b45760203660031901126109b45780356001600160a01b0381169081900361020c578452602090815292205460ff1615158152f35b6040810190811067ffffffffffffffff821117610bd257604052565b634e487b7160e01b600052604160045260246000fd5b6020810190811067ffffffffffffffff821117610bd257604052565b90601f8019910116810190811067ffffffffffffffff821117610bd257604052565b81601f82011215610c7d5780359067ffffffffffffffff8211610bd25760405192610c5b601f8401601f191660200185610c04565b82845260208383010111610c7d57816000926020809301838601378301015290565b600080fd5b359063ffffffff82168203610c7d57565b60005b838110610ca65750506000910152565b8181015183820152602001610c96565b90602091610ccf81518092818552858086019101610c93565b601f01601f1916010190565b602080820190808352835180925260408301928160408460051b8301019501936000915b848310610d0f5750505050505090565b9091929394958480610d2d600193603f198682030187528a51610cb6565b9801930193019194939290610cff565b15610d4457565b60405162461bcd60e51b815260206004820152601360248201527221b0b63632b91034b9903737ba1037bbb732b960691b6044820152606490fd5b60405190610d8c82610bb6565b60048252633ab9b2b960e11b6020830152565b8054821015610dbb5760005260206000209060011b0190600090565b634e487b7160e01b600052603260045260246000fd5b90600182811c92168015610e01575b6020831014610deb57565b634e487b7160e01b600052602260045260246000fd5b91607f1691610de0565b805468010000000000000000811015610bd257610e2f906001928382018155610d9f565b61105657825180519167ffffffffffffffff92838111610bd2578490610e558354610dd1565b93601f94858111611005575b50602090858311600114610f9c57602094929160009183610f91575b5050600019600383901b1c191690831b1781555b019401518051928311610bd257610ea88554610dd1565b828111610f49575b506020918311600114610ee957928293918392600094610ede575b50501b916000199060031b1c1916179055565b015192503880610ecb565b90601f198316918560005283826000209360005b87828210610f3057505010610f17575b505050811b019055565b015160001960f88460031b161c19169055388080610f0d565b8486015187559095019460209485019487935001610efd565b8560005260206000208380860160051c82019260208710610f88575b0160051c019085905b828110610f7c575050610eb0565b60008155018590610f6e565b92508192610f65565b015190503880610e7d565b90601f1983169185600052816000209260005b818110610fed57509185939185602098969410610fd4575b505050811b018155610e91565b015160001960f88460031b161c19169055388080610fc7565b8284015185558a969094019360209384019301610faf565b909192506000848152602081208680860160051c8201936020871061104d575b908a9695949392910160051c01915b828110611042575050610e61565b818155899501611034565b93508193611025565b634e487b7160e01b600052600060045260246000fd5b906000929180549161107d83610dd1565b9182825260019384811690816000146110df575060011461109f575b50505050565b90919394506000526020928360002092846000945b8386106110cb575050505001019038808080611099565b8054858701830152940193859082016110b4565b9294505050602093945060ff191683830152151560051b01019038808080611099565b90815260206040818301526101a091826040820152600060059182549461112886610dd1565b806101e0840152600196878116908160001461160957506001146115ac575b5060065460000b6060830152603f1990818385030160808401526000936007549061117182610dd1565b91828252888a8216918260001461158e575050600114611534575b505060085463ffffffff811660a0850152861c60000b60c0840152818385030160e0840152600093600954906111c182610dd1565b91828252888a821691826000146115165750506001146114bc575b5050600a546101008401528284038201610120840152600b5460009461120182610dd1565b91828252888a8216918260001461149e575050600114611444575b5050600c54610140840152600d546101608401528284038201610180840152600e5460009461124a82610dd1565b91828252888a821691826000146114265750506001146113cc575b5050828403820190830152600f5460009361127f82610dd1565b918282528789821691826000146113ac57505060011461134e575b50506101c090828403019101526000936010546112b681610dd1565b8084529381831691821561132f5750506001146112d5575b5050505090565b9293509060106000527f1b6847dc741a1b0cd08d278845f9d819d87b734759afb55fe2de5cb82a9ae67292846000945b83861061131b57505050500101388080806112ce565b805485870183015294019385908201611305565b925093929495505060ff1916848401521515901b0101388080806112ce565b8691929450600f6000527f8d1108e10bcb7c27dddfc02ed9d693a074039d026cf4ea4240b40f7d581ac80290886000925b85841061139657505001019290506101c03861129a565b80548385018601528994909301928a910161137f565b60ff191683820152921515871b90910190910193506101c090503861129a565b87929550600e6000527fbb7b4a454dc3493923482f07822329ed19e8244eff582cc204f8554c3620c3fd91896000935b828510611410575050500101923880611265565b80548585018701528a95909401938b91016113fc565b60ff191683820152921515881b909101909101945038905080611265565b87929550600b6000527f0175b7a638427703f0dbe7bb9bbf987a2551717b34e79f33b5b1008d1fa01db991896000935b82851061148857505050010192388061121c565b80548585018701528a95909401938b9101611474565b60ff191683820152921515881b90910190910194503890508061121c565b8792955060096000527f6e1540171b6c0c960b71a7020d9f60077f6af931a8bbf590da0223dacf75c7af91896000935b8285106115005750505001019238806111dc565b80548585018701528a95909401938b91016114ec565b60ff191683820152921515881b9091019091019450389050806111dc565b8792955060076000527fa66cc928b5edb82af9bd49922954155ab7b0942694bea4ce44661d9a8736c68891896000935b82851061157857505050010192388061118c565b80548585018701528a95909401938b9101611564565b60ff191683820152921515881b90910190910194503890508061118c565b909250836000527f036b6384b5eca791c62761152d0c79bb0604c104a5fb6f4eb0703f3154bb3db085876000925b8484106115f35750505061020091508201019138611147565b80546102008588010152019101908787916115da565b929450506102009160ff1916828401521515841b8201019138611147565b1561162e57565b60405162461bcd60e51b815260206004820152601460248201527343616c6c6572206973206e6f74206f7261636c6560601b6044820152606490fd5b6040519061167782610bb6565b6009825268185cdcda5cdd185b9d60ba1b6020830152565b600019811461169e5760010190565b634e487b7160e01b600052601160045260246000fd5b67ffffffffffffffff8111610bd25760051b60200190565b906116d6826116b4565b6116e36040519182610c04565b82815280926116f4601f19916116b4565b019060005b82811061170557505050565b8060606020809385010152016116f9565b8051821015610dbb5760209160051b010190565b906040519160209261175884828161174b8183019687815193849201610c93565b8101038084520182610c04565b5190209161177860405191828161174b8183019687815193849201610c93565b519020149056fea26469706673582212209a9a0231e409f21838e101aabaa6e3f7dc75445a6a3ca0298993187c6c98265064736f6c63430008110033bb7b4a454dc3493923482f07822329ed19e8244eff582cc204f8554c3620c3fda66cc928b5edb82af9bd49922954155ab7b0942694bea4ce44661d9a8736c6886e1540171b6c0c960b71a7020d9f60077f6af931a8bbf590da0223dacf75c7afa264697066735822122022f73953af526d6a2be037acc2620332c7d1a4472a72c3756f1dd7f0e31dd42764736f6c63430008110033",
  "devdoc": {
    "kind": "dev",
    "methods": {},
    "version": 1
  },
  "userdoc": {
    "kind": "user",
    "methods": {},
    "version": 1
  },
  "storageLayout": {
    "storage": [],
    "types": null
  }
}