{
  "address": "0x19005D86A17e701815Def4242d779d5A637e64A5",
  "abi": [
    {
      "anonymous": false,
      "inputs": [
        {
          "indexed": true,
          "internalType": "address",
          "name": "user",
          "type": "address"
        },
        {
          "indexed": false,
          "internalType": "uint256",
          "name": "id",
          "type": "uint256"
        }
      ],
      "name": "TodoCompleted",
      "type": "event"
    },
    {
      "anonymous": false,
      "inputs": [
        {
          "indexed": true,
          "internalType": "address",
          "name": "user",
          "type": "address"
        },
        {
          "indexed": false,
          "internalType": "uint256",
          "name": "id",
          "type": "uint256"
        },
        {
          "indexed": false,
          "internalType": "string",
          "name": "content",
          "type": "string"
        }
      ],
      "name": "TodoCreated",
      "type": "event"
    },
    {
      "anonymous": false,
      "inputs": [
        {
          "indexed": true,
          "internalType": "address",
          "name": "user",
          "type": "address"
        },
        {
          "indexed": false,
          "internalType": "uint256",
          "name": "id",
          "type": "uint256"
        }
      ],
      "name": "TodoDeleted",
      "type": "event"
    },
    {
      "inputs": [
        {
          "internalType": "uint256",
          "name": "_id",
          "type": "uint256"
        }
      ],
      "name": "completeTodo",
      "outputs": [],
      "stateMutability": "nonpayable",
      "type": "function"
    },
    {
      "inputs": [
        {
          "internalType": "string",
          "name": "_content",
          "type": "string"
        }
      ],
      "name": "createTodo",
      "outputs": [],
      "stateMutability": "nonpayable",
      "type": "function"
    },
    {
      "inputs": [
        {
          "internalType": "uint256",
          "name": "_id",
          "type": "uint256"
        }
      ],
      "name": "deleteTodo",
      "outputs": [],
      "stateMutability": "nonpayable",
      "type": "function"
    },
    {
      "inputs": [],
      "name": "getTodos",
      "outputs": [
        {
          "components": [
            {
              "internalType": "uint256",
              "name": "id",
              "type": "uint256"
            },
            {
              "internalType": "string",
              "name": "content",
              "type": "string"
            },
            {
              "internalType": "bool",
              "name": "isCompleted",
              "type": "bool"
            },
            {
              "internalType": "uint256",
              "name": "createdAt",
              "type": "uint256"
            },
            {
              "internalType": "address",
              "name": "user",
              "type": "address"
            }
          ],
          "internalType": "struct TodoList.Todo[]",
          "name": "",
          "type": "tuple[]"
        }
      ],
      "stateMutability": "view",
      "type": "function"
    }
  ],
  "transactionHash": "0xaca504da33cca9ac2ae281de878583e566e8b2c1653952883f9c047e6b22a89e",
  "args": [],
  "numDeployments": 1,
  "solcInputHash": "20f4834a29043028ac424b3582e55c8c",
  "bytecode": "0x6080806040523461001657610baa908161001c8239f35b600080fdfe6040608081526004908136101561001557600080fd5b600091823560e01c806320fe2144146107dc5780636e3c673814610518578063c33926cb1461030f5763e34f12211461004d57600080fd5b346102f0576020908160031936011261030b57803567ffffffffffffffff91828211610307573660238301121561030757818101358381116102f45786865193601f19926100a28885601f8401160187610942565b80865236602482840101116102f05780602489930183880137850101523387526001918286528688205494888752878920928851916100e083610910565b8783528883018781528a8401918c835260608501934285526080860197338952805490680100000000000000008210156102dc5790610123918b82018155610964565b9690966102ca57518655888601925180519283116102b7578e6101508461014a8754610996565b876109e7565b8d92601f8511600114610228575092807fca48a6c8eca4d46df9b391e3109cef820f8d09efcc8733a95e831be6640259d29e9d9c9a9896936102179c9a9896936101c6969261021d575b5050600019600383901b1c191690891b1790555b511515600284019060ff801983541691151516179055565b516003820155019060018060a01b039051166bffffffffffffffffffffffff60a01b82541617905533885284528587206102008154610a2e565b9055858051948594855284015233958301906108d0565b0390a280f35b01519050388061019a565b8582528e8220939291908516905b8181106102a25750937fca48a6c8eca4d46df9b391e3109cef820f8d09efcc8733a95e831be6640259d29e9d9c9a9896938c9a9896936102179d93836101c69810610289575b505050811b0190556101ae565b015160001960f88460031b161c1916905538808061027c565b828401518555938c0193928f01928f01610236565b634e487b7160e01b8f526041885260248ffd5b634e487b7160e01b8f528e885260248ffd5b50634e487b7160e01b8f526041885260248ffd5b8280fd5b634e487b7160e01b875260418252602487fd5b8580fd5b8380fd5b5091346105155780600319360112610515573381526020908082528281209182549167ffffffffffffffff831161050257919084959451916005956103588383891b0185610942565b81845282840190819686528386209086925b84841061040657505050505085519481860192828752518093528683818801921b8701019493965b83881061039f5786860387f35b90919293948380600192603f198a8203018652885190815181526103cf8383015160a080868501528301906108d0565b91868101511515878301526060808201519083015260809081878060a01b0391015116910152970193019701969093929193610392565b89868c9b9c99979899519261041a84610910565b8554845260018601938d518a9580549061043382610996565b80845291600181169081156104e5575060011461049d575b505061045b816001970382610942565b838201528d60ff60028901541615159082015260038701546060820152848060a01b03868801541660808201528152019301930192919998999695949661036a565b9091929396508b52838b20908b915b8183106104c55750508101830194919061045b8161044b565b60019193959294965080548386880101520192018f9492918c94926104ac565b60ff19168785015250501515851b81018401955061045b8161044b565b634e487b7160e01b815260418652602490fd5b80fd5b509190346107d8576020806003193601126102f0578335913384526001808352610546828620548510610a53565b33855284835261055884838720610964565b508601546001600160a01b039033908216036107875784825b610686575b5050338552848352818520908154918215610673576000199283019061059c8282610964565b6106615789818a809355828682018a6105b58254610996565b80610622575b50505060028201558260038201550155553386528352818520908154801561060f577f24d84cd6bd5cc33dafa556a214e7d9e1b4fccca98b3e7d1413909e4710f02ff395969750019055519283523392a280f35b634e487b7160e01b875260118852602487fd5b89601f821160011461063c57505050555b82388a816105bb565b601f610655938587528620920160051c820191016109d0565b818b8120915555610633565b634e487b7160e01b8952888a52602489fd5b634e487b7160e01b875260318852602487fd5b3387528685528387205460001981019081116107745781101561076f573387528685528387208382019081831161075c57906106c191610964565b503388528786526106d482868a20610964565b610661579181848b856106f395899897036106fa575b50505050610a2e565b9091610571565b81908454815561070e8986018a8301610a95565b61072e600260ff81880154169083019060ff801983541691151516179055565b6003808601549082015501920154166bffffffffffffffffffffffff60a01b82541617905538838b826106ea565b634e487b7160e01b895260118a52602489fd5b610576565b634e487b7160e01b885260118952602488fd5b825162461bcd60e51b8152808801859052602560248201527f4f6e6c79207468652063726561746f722063616e2064656c657465207468697360448201526420746f646f60d81b6064820152608490fd5b5080fd5b5090346102f0576020908160031936011261030b5782359233855260018352610809828620548510610a53565b33855284835261081b84838720610964565b50810154336001600160a01b039091160361087f5750907f67ded622a190b565ce61203d9279a5c28931773c0919bf91ce964f6cd909e9b491338552848252600261086885838820610964565b5001805460ff19166001179055519283523392a280f35b82608492519162461bcd60e51b8352820152602760248201527f4f6e6c79207468652063726561746f722063616e20636f6d706c657465207468604482015266697320746f646f60c81b6064820152fd5b919082519283825260005b8481106108fc575050826000602080949584010152601f8019910116010190565b6020818301810151848301820152016108db565b60a0810190811067ffffffffffffffff82111761092c57604052565b634e487b7160e01b600052604160045260246000fd5b90601f8019910116810190811067ffffffffffffffff82111761092c57604052565b8054821015610980576000526005602060002091020190600090565b634e487b7160e01b600052603260045260246000fd5b90600182811c921680156109c6575b60208310146109b057565b634e487b7160e01b600052602260045260246000fd5b91607f16916109a5565b8181106109db575050565b600081556001016109d0565b9190601f81116109f657505050565b610a22926000526020600020906020601f840160051c83019310610a24575b601f0160051c01906109d0565b565b9091508190610a15565b6000198114610a3d5760010190565b634e487b7160e01b600052601160045260246000fd5b15610a5a57565b60405162461bcd60e51b8152602060048201526013602482015272151bd91bc8191bd95cc81b9bdd08195e1a5cdd606a1b6044820152606490fd5b90808214610b7057610aa78154610996565b9067ffffffffffffffff821161092c578190610acd82610ac78654610996565b866109e7565b600090601f8311600114610b0457600092610af9575b50508160011b916000199060031b1c1916179055565b015490503880610ae3565b81526020808220858352818320935090601f1985169083905b828210610b57575050908460019594939210610b3e575b505050811b019055565b015460001960f88460031b161c19169055388080610b34565b8495819295850154815560018091019601940190610b1d565b505056fea2646970667358221220df0abc2d38517b1297e53dd1aab7e76d189135770138582212217efae551225b64736f6c63430008110033",
  "devdoc": {
    "kind": "dev",
    "methods": {},
    "version": 1
  },
  "userdoc": {
    "kind": "user",
    "methods": {},
    "version": 1
  },
  "storageLayout": {
    "storage": [
      {
        "astId": 3150,
        "contract": "contracts/TodoList.sol:TodoList",
        "label": "userTodos",
        "offset": 0,
        "slot": "0",
        "type": "t_mapping(t_address,t_array(t_struct(Todo)3144_storage)dyn_storage)"
      },
      {
        "astId": 3154,
        "contract": "contracts/TodoList.sol:TodoList",
        "label": "userTodoCount",
        "offset": 0,
        "slot": "1",
        "type": "t_mapping(t_address,t_uint256)"
      }
    ],
    "types": {
      "t_address": {
        "encoding": "inplace",
        "label": "address",
        "numberOfBytes": "20"
      },
      "t_array(t_struct(Todo)3144_storage)dyn_storage": {
        "base": "t_struct(Todo)3144_storage",
        "encoding": "dynamic_array",
        "label": "struct TodoList.Todo[]",
        "numberOfBytes": "32"
      },
      "t_bool": {
        "encoding": "inplace",
        "label": "bool",
        "numberOfBytes": "1"
      },
      "t_mapping(t_address,t_array(t_struct(Todo)3144_storage)dyn_storage)": {
        "encoding": "mapping",
        "key": "t_address",
        "label": "mapping(address => struct TodoList.Todo[])",
        "numberOfBytes": "32",
        "value": "t_array(t_struct(Todo)3144_storage)dyn_storage"
      },
      "t_mapping(t_address,t_uint256)": {
        "encoding": "mapping",
        "key": "t_address",
        "label": "mapping(address => uint256)",
        "numberOfBytes": "32",
        "value": "t_uint256"
      },
      "t_string_storage": {
        "encoding": "bytes",
        "label": "string",
        "numberOfBytes": "32"
      },
      "t_struct(Todo)3144_storage": {
        "encoding": "inplace",
        "label": "struct TodoList.Todo",
        "members": [
          {
            "astId": 3135,
            "contract": "contracts/TodoList.sol:TodoList",
            "label": "id",
            "offset": 0,
            "slot": "0",
            "type": "t_uint256"
          },
          {
            "astId": 3137,
            "contract": "contracts/TodoList.sol:TodoList",
            "label": "content",
            "offset": 0,
            "slot": "1",
            "type": "t_string_storage"
          },
          {
            "astId": 3139,
            "contract": "contracts/TodoList.sol:TodoList",
            "label": "isCompleted",
            "offset": 0,
            "slot": "2",
            "type": "t_bool"
          },
          {
            "astId": 3141,
            "contract": "contracts/TodoList.sol:TodoList",
            "label": "createdAt",
            "offset": 0,
            "slot": "3",
            "type": "t_uint256"
          },
          {
            "astId": 3143,
            "contract": "contracts/TodoList.sol:TodoList",
            "label": "user",
            "offset": 0,
            "slot": "4",
            "type": "t_address"
          }
        ],
        "numberOfBytes": "160"
      },
      "t_uint256": {
        "encoding": "inplace",
        "label": "uint256",
        "numberOfBytes": "32"
      }
    }
  }
}