{
  "address": "0xc1c5141F8B11fcC0e05912E2667f37C8feB2739c",
  "abi": [
    {
      "anonymous": false,
      "inputs": [
        {
          "indexed": true,
          "internalType": "address",
          "name": "user",
          "type": "address"
        },
        {
          "indexed": false,
          "internalType": "uint256",
          "name": "id",
          "type": "uint256"
        }
      ],
      "name": "TodoCompleted",
      "type": "event"
    },
    {
      "anonymous": false,
      "inputs": [
        {
          "indexed": true,
          "internalType": "address",
          "name": "user",
          "type": "address"
        },
        {
          "indexed": false,
          "internalType": "uint256",
          "name": "id",
          "type": "uint256"
        },
        {
          "indexed": false,
          "internalType": "string",
          "name": "content",
          "type": "string"
        }
      ],
      "name": "TodoCreated",
      "type": "event"
    },
    {
      "anonymous": false,
      "inputs": [
        {
          "indexed": true,
          "internalType": "address",
          "name": "user",
          "type": "address"
        },
        {
          "indexed": false,
          "internalType": "uint256",
          "name": "id",
          "type": "uint256"
        }
      ],
      "name": "TodoDeleted",
      "type": "event"
    },
    {
      "inputs": [
        {
          "internalType": "uint256",
          "name": "_id",
          "type": "uint256"
        }
      ],
      "name": "completeTodo",
      "outputs": [],
      "stateMutability": "nonpayable",
      "type": "function"
    },
    {
      "inputs": [
        {
          "internalType": "string",
          "name": "_content",
          "type": "string"
        }
      ],
      "name": "createTodo",
      "outputs": [],
      "stateMutability": "nonpayable",
      "type": "function"
    },
    {
      "inputs": [
        {
          "internalType": "uint256",
          "name": "_id",
          "type": "uint256"
        }
      ],
      "name": "deleteTodo",
      "outputs": [],
      "stateMutability": "nonpayable",
      "type": "function"
    },
    {
      "inputs": [],
      "name": "getTodos",
      "outputs": [
        {
          "components": [
            {
              "internalType": "uint256",
              "name": "id",
              "type": "uint256"
            },
            {
              "internalType": "string",
              "name": "content",
              "type": "string"
            },
            {
              "internalType": "bool",
              "name": "isCompleted",
              "type": "bool"
            },
            {
              "internalType": "uint256",
              "name": "createdAt",
              "type": "uint256"
            },
            {
              "internalType": "address",
              "name": "user",
              "type": "address"
            }
          ],
          "internalType": "struct TodoList.Todo[]",
          "name": "",
          "type": "tuple[]"
        }
      ],
      "stateMutability": "view",
      "type": "function"
    }
  ],
  "transactionHash": "0x03f003780b93c89f71f2aa232a34bf2e3bb16e1182655ce1bca4e71a1bfd8a84",
  "args": [],
  "numDeployments": 1,
  "solcInputHash": "acf19961bbf3dc542ed4ce4c4f306dea",
  "bytecode": "0x608060405234801561001057600080fd5b50610c6a806100206000396000f3fe608060405234801561001057600080fd5b506004361061004c5760003560e01c806320fe2144146100515780636e3c673814610066578063c33926cb14610079578063e34f122114610097575b600080fd5b61006461005f36600461078b565b6100aa565b005b61006461007436600461078b565b61021e565b6100816104e3565b60405161008e91906107ea565b60405180910390f35b6100646100a53660046108a0565b610619565b3360009081526001602052604090205481106101035760405162461bcd60e51b8152602060048201526013602482015272151bd91bc8191bd95cc81b9bdd08195e1a5cdd606a1b60448201526064015b60405180910390fd5b33600081815260208190526040902080548390811061012457610124610951565b60009182526020909120600460059092020101546001600160a01b03161461019e5760405162461bcd60e51b815260206004820152602760248201527f4f6e6c79207468652063726561746f722063616e20636f6d706c657465207468604482015266697320746f646f60c81b60648201526084016100fa565b336000908152602081905260409020805460019190839081106101c3576101c3610951565b6000918252602091829020600590910201600201805460ff19169215159290921790915560405182815233917f67ded622a190b565ce61203d9279a5c28931773c0919bf91ce964f6cd909e9b491015b60405180910390a250565b3360009081526001602052604090205481106102725760405162461bcd60e51b8152602060048201526013602482015272151bd91bc8191bd95cc81b9bdd08195e1a5cdd606a1b60448201526064016100fa565b33600081815260208190526040902080548390811061029357610293610951565b60009182526020909120600460059092020101546001600160a01b03161461030b5760405162461bcd60e51b815260206004820152602560248201527f4f6e6c79207468652063726561746f722063616e2064656c657465207468697360448201526420746f646f60d81b60648201526084016100fa565b805b336000908152602081905260409020546103299060019061097d565b8110156104245733600090815260208190526040902061034a826001610996565b8154811061035a5761035a610951565b9060005260206000209060050201600080336001600160a01b03166001600160a01b03168152602001908152602001600020828154811061039d5761039d610951565b6000918252602090912082546005909202019081556001808201906103c490840182610a32565b50600282810154908201805460ff909216151560ff1990921691909117905560038083015490820155600491820154910180546001600160a01b0319166001600160a01b039092169190911790558061041c81610b13565b91505061030d565b5033600090815260208190526040902080548061044357610443610b2c565b600082815260208120600560001990930192830201818155906104696001830182610735565b5060028101805460ff19169055600060038201819055600490910180546001600160a01b031916905591553381526001602052604081208054916104ac83610b42565b909155505060405181815233907f24d84cd6bd5cc33dafa556a214e7d9e1b4fccca98b3e7d1413909e4710f02ff390602001610213565b33600090815260208181526040808320805482518185028101850190935280835260609492939192909184015b8282101561061057838290600052602060002090600502016040518060a00160405290816000820154815260200160018201805461054d906109a9565b80601f0160208091040260200160405190810160405280929190818152602001828054610579906109a9565b80156105c65780601f1061059b576101008083540402835291602001916105c6565b820191906000526020600020905b8154815290600101906020018083116105a957829003601f168201915b5050509183525050600282015460ff161515602080830191909152600383015460408301526004909201546001600160a01b03166060909101529082526001929092019101610510565b50505050905090565b33600081815260016020818152604080842054848352818520825160a0810184528281528085018981529381018790524260608201526080810197909752805480860182559086529290942085516005909302019182555192939290918201906106839082610b59565b5060408281015160028301805460ff191691151591909117905560608301516003830155608090920151600490910180546001600160a01b0319166001600160a01b0390921691909117905533600090815260016020529081208054916106e983610b13565b9190505550336001600160a01b03167fca48a6c8eca4d46df9b391e3109cef820f8d09efcc8733a95e831be6640259d28284604051610729929190610c13565b60405180910390a25050565b508054610741906109a9565b6000825580601f10610751575050565b601f01602090049060005260206000209081019061076f9190610772565b50565b5b808211156107875760008155600101610773565b5090565b60006020828403121561079d57600080fd5b5035919050565b6000815180845260005b818110156107ca576020818501810151868301820152016107ae565b506000602082860101526020601f19601f83011685010191505092915050565b60006020808301818452808551808352604092508286019150828160051b87010184880160005b8381101561087c57603f19898403018552815160a08151855288820151818a87015261083f828701826107a4565b838a01511515878b0152606080850151908801526080938401516001600160a01b0316939096019290925250509386019390860190600101610811565b509098975050505050505050565b634e487b7160e01b600052604160045260246000fd5b6000602082840312156108b257600080fd5b813567ffffffffffffffff808211156108ca57600080fd5b818401915084601f8301126108de57600080fd5b8135818111156108f0576108f061088a565b604051601f8201601f19908116603f011681019083821181831017156109185761091861088a565b8160405282815287602084870101111561093157600080fd5b826020860160208301376000928101602001929092525095945050505050565b634e487b7160e01b600052603260045260246000fd5b634e487b7160e01b600052601160045260246000fd5b8181038181111561099057610990610967565b92915050565b8082018082111561099057610990610967565b600181811c908216806109bd57607f821691505b6020821081036109dd57634e487b7160e01b600052602260045260246000fd5b50919050565b601f821115610a2d57600081815260208120601f850160051c81016020861015610a0a5750805b601f850160051c820191505b81811015610a2957828155600101610a16565b5050505b505050565b818103610a3d575050565b610a4782546109a9565b67ffffffffffffffff811115610a5f57610a5f61088a565b610a7381610a6d84546109a9565b846109e3565b6000601f821160018114610aa75760008315610a8f5750848201545b600019600385901b1c1916600184901b178455610b0c565b600085815260209020601f19841690600086815260209020845b83811015610ae15782860154825560019586019590910190602001610ac1565b5085831015610aff5781850154600019600388901b60f8161c191681555b50505060018360011b0184555b5050505050565b600060018201610b2557610b25610967565b5060010190565b634e487b7160e01b600052603160045260246000fd5b600081610b5157610b51610967565b506000190190565b815167ffffffffffffffff811115610b7357610b7361088a565b610b8181610a6d84546109a9565b602080601f831160018114610bb65760008415610b9e5750858301515b600019600386901b1c1916600185901b178555610a29565b600085815260208120601f198616915b82811015610be557888601518255948401946001909101908401610bc6565b5085821015610c035787850151600019600388901b60f8161c191681555b5050505050600190811b01905550565b828152604060208201526000610c2c60408301846107a4565b94935050505056fea264697066735822122053bfae4dd64293fc4a53515aad46f22e883c6c6623e095633558677fc59f0bb764736f6c63430008110033",
  "devdoc": {
    "kind": "dev",
    "methods": {},
    "version": 1
  },
  "userdoc": {
    "kind": "user",
    "methods": {},
    "version": 1
  },
  "storageLayout": {
    "storage": [
      {
        "astId": 18,
        "contract": "contracts/TodoList.sol:TodoList",
        "label": "userTodos",
        "offset": 0,
        "slot": "0",
        "type": "t_mapping(t_address,t_array(t_struct(Todo)12_storage)dyn_storage)"
      },
      {
        "astId": 22,
        "contract": "contracts/TodoList.sol:TodoList",
        "label": "userTodoCount",
        "offset": 0,
        "slot": "1",
        "type": "t_mapping(t_address,t_uint256)"
      }
    ],
    "types": {
      "t_address": {
        "encoding": "inplace",
        "label": "address",
        "numberOfBytes": "20"
      },
      "t_array(t_struct(Todo)12_storage)dyn_storage": {
        "base": "t_struct(Todo)12_storage",
        "encoding": "dynamic_array",
        "label": "struct TodoList.Todo[]",
        "numberOfBytes": "32"
      },
      "t_bool": {
        "encoding": "inplace",
        "label": "bool",
        "numberOfBytes": "1"
      },
      "t_mapping(t_address,t_array(t_struct(Todo)12_storage)dyn_storage)": {
        "encoding": "mapping",
        "key": "t_address",
        "label": "mapping(address => struct TodoList.Todo[])",
        "numberOfBytes": "32",
        "value": "t_array(t_struct(Todo)12_storage)dyn_storage"
      },
      "t_mapping(t_address,t_uint256)": {
        "encoding": "mapping",
        "key": "t_address",
        "label": "mapping(address => uint256)",
        "numberOfBytes": "32",
        "value": "t_uint256"
      },
      "t_string_storage": {
        "encoding": "bytes",
        "label": "string",
        "numberOfBytes": "32"
      },
      "t_struct(Todo)12_storage": {
        "encoding": "inplace",
        "label": "struct TodoList.Todo",
        "members": [
          {
            "astId": 3,
            "contract": "contracts/TodoList.sol:TodoList",
            "label": "id",
            "offset": 0,
            "slot": "0",
            "type": "t_uint256"
          },
          {
            "astId": 5,
            "contract": "contracts/TodoList.sol:TodoList",
            "label": "content",
            "offset": 0,
            "slot": "1",
            "type": "t_string_storage"
          },
          {
            "astId": 7,
            "contract": "contracts/TodoList.sol:TodoList",
            "label": "isCompleted",
            "offset": 0,
            "slot": "2",
            "type": "t_bool"
          },
          {
            "astId": 9,
            "contract": "contracts/TodoList.sol:TodoList",
            "label": "createdAt",
            "offset": 0,
            "slot": "3",
            "type": "t_uint256"
          },
          {
            "astId": 11,
            "contract": "contracts/TodoList.sol:TodoList",
            "label": "user",
            "offset": 0,
            "slot": "4",
            "type": "t_address"
          }
        ],
        "numberOfBytes": "160"
      },
      "t_uint256": {
        "encoding": "inplace",
        "label": "uint256",
        "numberOfBytes": "32"
      }
    }
  }
}